:020000040800F2
:1000000000420120390300085B410008172F000857
:1000100059410008990A0008894A000800000000B8
:10002000000000000000000000000000790200084D
:10003000590B000800000000D5020008FD48000828
:100040005303000853030008530300085303000838
:100050005303000853030008530300085303000828
:100060005303000853030008530300085303000818
:100070005303000853030008530300085303000808
:100080005303000853030008530300080000000056
:100090000000000000000000000000005303000802
:1000A00053030008CD490008530300085303000818
:1000B0005303000853030008D9490008252F0008FE
:1000C000192F00085303000853030008E9410008F2
:1000D0005303000853030008530300080000000006
:1000E00053030008530300085303000800000000F6
:1000F00000000000000000000000000053030008A2
:1001000000000000530300085303000853030008D5
:1001100000000000000000000000000000000000DF
:100120009D0A000853030008A90A000853030008A9
:100130005303000800000000000000000000000061
:100140000000000000000000000000005303000851
:100150005303000853030008530300085303000827
:1001600053030008530300080000000000000000D3
:10017000000000000000000000000000000000007F
:100180000000000053030008000000000000000011
:10019000530300085303000800F002F800F05CF875
:1001A0000AA090E8000C82448344AAF10107DA45D2
:1001B00001D100F051F8AFF2090EBAE80F0013F0C8
:1001C000010F18BFFB1A43F0010318479CCF020030
:1001D000BCCF02000A444FF0000C10F8013B13F0B2
:1001E000070408BF10F8014B1D1108BF10F8015B90
:1001F000641E05D010F8016B641E01F8016BF9D183
:1002000013F0080F1EBF10F8014BAD1C0C1B09D1D9
:100210006D1E58BF01F801CBFAD505E014F8016B4B
:1002200001F8016B6D1EF9D59142D6D370470000DD
:100230000023002400250026103A28BF78C1FBD8EF
:10024000520728BF30C148BF0B6070471FB528F068
:100250009FFB1FBD10B510BD00F051FA1146FFF70E
:10026000F5FF22F0F3F800F06FFA03B4FFF7F2FFA6
:1002700003BC00F073FA00002C4B19680868B0E862
:10028000F04F80F30988BFF36F8F4FF0000080F3C9
:10029000118870470000000008480068006880F37B
:1002A00008884FF0000080F3148862B661B6BFF38F
:1002B0004F8FBFF36F8F00DF00BF00BF08ED00E07E
:1002C000DFF80C00016841F470010160704700BF65
:1002D00088ED00E0EFF30980BFF36F8F134B1A68CE
:1002E0001EF0100F08BF20ED108A20E9F04F1060BB
:1002F00009B44FF0500080F31188BFF34F8FBFF364
:100300006F8F27F0D1FB4FF0000080F3118809BCFC
:1003100019680868B0E8F04F1EF0100F08BFB0EC85
:10032000108A80F30988BFF36F8F70474000002068
:10033000EFF30580704700000948804709480047EF
:10034000FEE7FEE7FEE7FEE7FEE7FEE7FEE7FEE785
:10035000FEE7FEE704480549054A064B70470000E2
:10036000BD49000899010008003801200042012021
:10037000003A0120003A012053EA020C00F06980A3
:100380002DE9F04B4FF00006002B1FBFB3FA83F5A9
:1003900003FA05F424FA05F65E4012BF1643B2FADA
:1003A00082F502FA05F4C5F120051EBF22FA05FC0C
:1003B00044EA0C04203556EA044C4FEA144418BFB2
:1003C000641C4FF000084FF00009904271EB030CE1
:1003D00039D3002919BFB1FA81F701FA07F6B0FA4B
:1003E00080F700FA07F6C7F120071EBF20FA07FCC6
:1003F00046EA0C062037B6FBF4FCA7EB0507103FD6
:1004000007F01F0BCBF120060CFA0BFB2CFA06F6BB
:1004100044BFB3460026202FA4BF5E464FF0000B1A
:100420005BEA060C08BF4FF0010B19EB0B09ABFBA5
:10043000027C48EB0608C01B06FB02CC0BFB03CC7E
:1004400071EB0C01C1E70B46024641464846BDE848
:10045000F08B13B54FF000004FF00001AFF30080B8
:10046000BDE81C40704740EA0103024630B59B07D7
:1004700010D14FF0013400E008C208C91D1B9D4394
:1004800015EAC41FF8D013F0FF0102F8011B0DD0CC
:100490001B0AF8E711F8013B002B02F8013B05D0DD
:1004A00011F8013B002B02F8013BF3D130BD10B530
:1004B000431C02E010F8011B71B18107FAD14FF023
:1004C000013202C88C1A8C4314EAC211F9D0C01A46
:1004D0000A0603D0C01E10BDC01A10BD0A0401D008
:1004E000801E10BD0902FCD0401E10BD032A40F240
:1004F000308010F0030C00F0158011F8013BBCF1C6
:10050000020F624498BF11F801CB00F8013B38BFDD
:1005100011F8013BA2F1040298BF00F801CB38BFEB
:1005200000F8013B11F0030300F02580083AC0F009
:10053000088051F8043B083A51F804CBA0E80810B1
:10054000F5E7121D5CBF51F8043B40F8043BAFF3E4
:100550000080D20724BF11F8013B11F801CB48BF3E
:1005600011F8012B24BF00F8013B00F801CB48BF74
:1005700000F8012B704710B5203AC0F00B80B1E8AD
:100580001850203AA0E81850B1E81850A0E81850C8
:10059000BFF4F5AF5FEA027C24BFB1E81850A0E8D1
:1005A000185044BF18C918C0BDE810405FEA827CEB
:1005B00024BF51F8043B40F8043B08BF7047D20702
:1005C00028BF31F8023B48BF11F8012B28BF20F8A3
:1005D000023B48BF00F8012B70474FF0000204298E
:1005E000C0F0128010F0030C00F01B80CCF1040C62
:1005F000BCF1020F18BF00F8012BA8BF20F8022B96
:10060000A1EB0C0100F00DB85FEAC17C24BF00F83B
:10061000012B00F8012B48BF00F8012B70474FF069
:10062000000200B5134694469646203922BFA0E842
:100630000C50A0E80C50B1F12001BFF4F7AF09074E
:1006400028BFA0E80C5048BF0CC05DF804EB89003F
:1006500028BF40F8042B08BF704748BF20F8022B82
:1006600011F0804F18BF00F8012B70474FF0013C8C
:1006700050F8042B51F8043B9A4221D1A2EB0C0311
:10068000934313EACC1317D150F8042B51F8043BD1
:100690009A4215D1A2EB0C03934313EACC130BD16E
:1006A00050F8042B51F8043B9A4209D1A2EB0C03F9
:1006B000934313EACC13DBD04FF00000704700BF28
:1006C000D01A01BAB1FA81F101F0180122FA01F051
:1006D000CB40C1F12001DBB2C0B2C01A2CFA01F349
:1006E000D11A914311EAC311E6D1704770477047A0
:1006F0007047000000487047A037012070477546DA
:10070000FFF7F8FFAE4605006946534620F00700A4
:10071000854618B020B5FFF71DFEBDE820404FF01C
:1007200000064FF000074FF000084FF0000B21F0DB
:100730000701AC46ACE8C009ACE8C009ACE8C009A8
:10074000ACE8C0098D46704710B50446AFF3008091
:100750002046BDE81040FFF788BD00000149182081
:10076000ABBEFEE72600020010B50146806B026CAE
:1007700012F0500F05D0026CD20626D500F0B9FA5F
:1007800010BD016C41F40071016401688A6812F0C7
:10079000405F17D1027EAAB9CA6A12F4700F02D064
:1007A0008A6852050ED44A6822F020024A60016C21
:1007B00021F480710164016CC90403D4016C41F01F
:1007C0000101016400F07EFA10BD806BC26CBDE8CF
:1007D00010400846104710B5806B40210164416C01
:1007E00041F00401416400F084FA10BD10B5806B43
:1007F00000F07EFA10BD0000464910B54A6822F4A8
:1008000040324A604A6843681A434A6001684A684D
:1008100022F480724A6001684A68036942EA03224E
:100820004A6001684A6822F040724A6001684A687A
:1008300083681A434A6001688A6822F400628A6009
:1008400001688A68C3681A438A60816A6FF07062BF
:10085000D14201688A6822F070628A6001688A6801
:100860000CD0836A1A438A6001688A6822F0405279
:100870008A6001688A68C36A1A4301E022F0405224
:100880008A6001688A6822F002028A6001688A68C8
:10089000037E42EA43028A6090F820100029016832
:1008A0004A680FD042F400624A6001684A6822F444
:1008B00060424A6001684A68174C436A04EB43335C
:1008C0001A4301E022F400624A600168CA6A22F415
:1008D0007002CA620168CA6A838B104C04EB03532E
:1008E0001A43CA6201688A6822F400728A60016849
:1008F0008A6890F8303042EA43228A6001688A6848
:1009000022F480628A6001688A68406942EA802035
:10091000886010BD0023014000E0FFFF0000F0FFF1
:1009200010B50821064800F0E8FD064C01212046DC
:1009300000F0E3FD2046BDE81040022100F0DDBDDF
:10094000000402400008024010B50821064800F0EB
:10095000D4FD064C0121204600F0CFFD2046BDE825
:100960001040022100F0C9BD00040240000802400E
:1009700010B50821064800F0C0FD064C01212046B4
:1009800000F0BBFD2046BDE81040022100F0B5BDDF
:10099000000402400008024010B50821064800F09B
:1009A000ACFD064C0121204600F0A7FD2046BDE825
:1009B0001040022100F0A1BD0004024000080240E6
:1009C00010B50821064800F098FD064C012120468C
:1009D00000F093FD2046BDE81040022100F08DBDDF
:1009E000000402400008024010B500231A462349C3
:1009F000234806F0DAFA2248012300221F492C304E
:100A000006F0D3FA1E48022300221C49583006F093
:100A1000CCFA1B48032300221849843006F0C5FA9B
:100A2000184A0321164806F0E2F91548164A032130
:100A30002C3006F0DCF91248144A0321583006F035
:100A4000D6F90F48124A0521583006F0D0F90C4863
:100A5000104A0321843006F0CAF9094806F0C0FAAA
:100A600007482C3006F0BCFA0548583006F0B8FAB2
:100A70000348BDE81040843006F0B2BAE1360208FF
:100A8000BC4D002021090008490900089909000807
:100A900071090008C1090008FEE70000014800F0E4
:100AA000C5BA000050050020014800F0BFBA0000A0
:100AB0007C06002001681823CAB2103AB2FBF3F298
:100AC000054B6FF30901032A9B5CC36500D9091D1F
:100AD0008165084670470000608A020810B501462B
:100AE00000208B698A6A4FF0C07453B1B3F5005F80
:100AF00015D072B1012A0CD0022A0AD0032A09D1DA
:100B000004E01AB1012A06D0022A03D1C96AC90138
:100B100000D5012010BDC96AA142FAD010BD002A3B
:100B2000F7D0012AF2D0022AF3D0032AF3D010BD65
:100B300030B50468256825F4802525600468636065
:100B40008368402B036803D099600068C26030BDA1
:100B50009A600068C16030BD704772B6FEE7000061
:100B600078B50024009490F83C20012A19D0012285
:100B700080F83C200A6807230568092A13D9EE6823
:100B80000A3A02EB420293409E43EE600B788A6879
:100B90000A3B03EB43039A400368DD682A43DA60AB
:100BA00010E0022078BD2E6902EB420293409E4382
:100BB0002E610B788A6803EB43039A4003681D6932
:100BC0002A431A614A681F23072A13D205686E6BED
:100BD000521E02EB820293409E436E630A8893B2D8
:100BE0000A79521E02EB820293400268556B2B4336
:100BF000536327E005680D2A12D22E6BD21F02EB39
:100C0000820293409E432E630B790A88DB1F92B2C7
:100C100003EB83039A4003681D6B2A431A6311E0B8
:100C2000EE6A0D3A02EB820293409E43EE620B792C
:100C30000A880D3B92B203EB83039A400368DD6A96
:100C40002A43DA621B4B0568194A9D420AD10D6896
:100C5000122D07D1556825F400055560556845F4F7
:100C60008005556005689D421DD1134D0B68AB4250
:100C700001D0112B17D1536823F4800353605368BC
:100C800043F4000353600968A9420CD10B490C4A94
:100C90000968B1FBF2F101EB8101490000E0491E56
:100CA00000910029FBD180F83C40002078BD000075
:100CB0000023014000200140120000103C000020F1
:100CC00040420F0010B500680649884209D1064825
:100CD00000F018F9BDE8104001220449024800F074
:100CE0007FB810BD00200140080500200000002052
:100CF0007047704770B504004FF0000503D0206CBA
:100D0000002610B107E0012070BD204600F01CF85D
:100D1000666484F83C60206CC00610D4206C20F41B
:100D2000885040F0020020642046FFF765FD6664AD
:100D3000206C20F0020040F00100206400E001255A
:100D400084F83C60284670BD70B586B00646142114
:100D50006846FFF764FC1D493068884234D11C485E
:100D60000025016841F480710160006800F4807022
:100D7000059017481438016841F0010101600068CE
:100D8000694600F001000590012000900320CDE9A4
:100D90000105104800F0BCFA104C0F48C4E90005EA
:100DA0000015A560C4E90350400060618000A061A7
:100DB0004011C4E907052046656200F007FA08B152
:100DC000FFF7CBFEB463A66306B070BD0020014000
:100DD00044380240000002401064024050050020E8
:100DE000F8B5044600200E46009094F83C10012906
:100DF00007D0012184F83C1021688B68DB0702D002
:100E000011E00220F8BD8B6843F001038B60364986
:100E1000364B0968B1FBF3F101EB410100E0491EDB
:100E200000910029FBD121688B68DB0503D58B6815
:100E300023F480738B6021688B68DB0749D0236CB7
:100E400040F20165AB4343F480732364496849056C
:100E500005D5216C21F4005141F480512164216CAD
:100E6000C90404D5616C21F00601616400E060648E
:100E700084F83C00A16B1F481D4DC863A16B1E4840
:100E80000864A16B1D48C86421686FF022000860E7
:100E90002068416841F0806141602068816841F4C8
:100EA000807181602168134632464C31A06B00F09E
:100EB000F7F96868C006206802D01149884210D14D
:100EC000816811F0405F0CD1816841F08041816000
:100ED00007E0206C40F010002064606C40F00100DE
:100EE00060640020F8BD00003C00002040420F007C
:100EF0000023014069070008ED070008D707000834
:100F00000020014010B50446002094F83C1001294F
:100F10000CD0012184F83C1021688A6822F001027B
:100F20008A6021688A68D20702D01DE0022010BDC5
:100F30008A6822F480728A60A16B91F83520022AB7
:100F400007D1084600F014F818B1216C41F04001B7
:100F5000216421684A6822F080624A60216C21F491
:100F6000885141F001012164002184F83C1010BD3A
:100F70002DE9F0410446876D00F0CCFA064694F85E
:100F800035000025022806D08020606584F83450A2
:100F90000120BDE8F0812068016821F016010160A0
:100FA0002068416921F080014161206C08B9A06C82
:100FB00020B12068016821F0080101602068016803
:100FC00021F0010101600CE000F0A4FA801B05286B
:100FD00007D920206065032084F8350084F8345058
:100FE000D7E720680068C007EED194F85C103F2076
:100FF0008840B860012084F8350084F8345000201F
:10100000C7E790F83510022903D0802141650120FF
:101010007047052180F835100068016821F0010152
:1010200001600020704790F8350070472DE9F843C3
:1010300004464FF00009CDF8009063484FF4165174
:10104000A56D0068B0FBF1F72E6894F85C100820DD
:1010500000FA01F131420FD021680A6852070BD51E
:101060000A6822F004020A6094F85C108840A860C4
:10107000606D40F00100606594F85C104FF001086D
:1010800008FA01F0304208D021684969090604D500
:10109000A860606D40F00200606594F85C10042068
:1010A0008840304208D021680968890704D5A860C3
:1010B000606D40F00400606594F85C10102088407A
:1010C000304218D021680968090714D5A860206843
:1010D0000168490304D50068000308D5A16C07E046
:1010E0000168C90503D4016821F008010160216C81
:1010F00009B12046884794F85C102020884030428F
:1011000031D021680968C9062DD5A86094F835004A
:1011100005282068016806D0490347D50068000308
:101120001DD4616C1CE021F016010160206841694A
:1011300021F080014161206C08B9A06C20B12068C9
:10114000016821F00801016094F85C103F2088409C
:10115000A86084F8358084F83490216D1FE0E16B3D
:1011600009B120468847606D00282BD0606DC0070C
:1011700014D0052084F835002068016821F00101B1
:1011800001600098401C0090B84203D820680068B5
:10119000C007F6D184F8358084F83490E16C0029DA
:1011A00010D001B02046BDE8F04308470168C905EA
:1011B000D5D4016821F01001016084F8358084F8ED
:1011C0003490CCE7BDE8F8833C0000202DE9F041E5
:1011D000044600F09FF906465CB1022084F8350011
:1011E000002584F834502068016821F00101016075
:1011F0000DE00120BDE8F08100F08CF9801B05288E
:1012000005D920206065032084F83500F2E72068C6
:101210000068C007F0D12268116820480140D4E975
:1012200001031843D4E90336334318436369184371
:10123000A3691843E3691843236A18430843616AA2
:10124000042903D1D4E90B13194308431060206823
:101250004069666A20F0070130460E4301270428E2
:101260000CD1A06A0643E06A40B12046FFF736FC85
:1012700020B14020606584F83570BAE72068466187
:101280002046FFF717FC94F85C203F2191408160D5
:10129000656584F835700020ACE700003F8010F0F1
:1012A0002DE9F0410446866D90F8340000250128B0
:1012B0000DD0012084F8340094F835700020012FFF
:1012C00007D084F8340002252846BDE8F0810220CA
:1012D000FBE7022784F8357060652046FFF728FC9D
:1012E00094F85C103F208840B0602068016841F0AD
:1012F00016010160206C20B12068016841F00801EE
:1013000001602068016841F001010160DCE7000034
:101310002DE9F84FDFF8B8A10022012403254FF092
:101320000F090AF1040BAAF1040E00BF0B6804FABE
:1013300002F63340B34273D10F7907F00307012F50
:1013400001D0022F16D187684FEA420805FA08FC3F
:1013500027EA0C07D1F80CC00CFA08FC4CEA070C81
:10136000C0F808C04768B7430E79C6F30016964028
:101370003E4346600E79F643B6070DD0C768560067
:1013800005FA06FC27EA0C07D1F808C00CFA06FC9F
:101390004CEA070CC0F80CC00E7906F00306022ECA
:1013A00010D1D60800EB8608D8F8206057074FEA1E
:1013B000D76C09FA0CF7BE430F6907FA0CF73743ED
:1013C000C8F8207006684FEA420C05FA0CF7BE43D5
:1013D0000F7907F0030707FA0CF7374307604E68E9
:1013E00016F4403F6DD03B4E376847F48047376076
:1013F000366822F0030706F480460096364E07EB67
:10140000060CDCF8086897073F0F09FA07F826EA88
:101410000806DFF8C880404503D14FF000081EE001
:101420004FE0DFF8BC80404502D14FF0010816E0E4
:10143000DFF8B080404502D14FF002080FE0DFF83E
:10144000A880404502D14FF0030808E0DFF89C80F7
:10145000404502D14FF0040801E04FF0070808FAB8
:1014600007F848EA0608CCF80888DAF8006057461A
:10147000D1F804C09E435FEACC2C00D51E433E60E9
:10148000DBF800605F46D1F804C09E435FEA8C2C15
:1014900000D51E433E60DEF800607746D1F804C0F8
:1014A0009E435FEA8C3C00D51E433E60084F083FD8
:1014B0003E68D1F804C09E435FEACC3C00D51E4391
:1014C0003E60521C102AFFF431AFBDE8F88F0000D7
:1014D000083C014044380240003001400000024016
:1014E0000004024000080240000C024000100240CC
:1014F0000069084000D001207047426921EA0203D8
:101500000A4043EA0241816170470AB18161704734
:101510000904FBE7014880687047000030000020A4
:10152000704770472DE9F041016804464A694E68EA
:1015300090F83E000025D743FA0506D4F243D205C1
:1015400003D46FF4807201254A61B90508D4F143D0
:10155000C90505D422686FF4007145F00205516198
:10156000790525D4F143C90522D4638D94F83D1043
:10157000226B202808D13BB9212910D029290ED06F
:10158000282901D1212A0AD022686FF48061516193
:1015900045F00405102806D0402804D008E0204675
:1015A00002F090F904E02068016841F400710160E4
:1015B000380508D4F043C00505D421686FF40060F5
:1015C00045F008054861002D07D0206C28432064B1
:1015D0002046BDE8F04101F011BDBDE8F0812DE9E4
:1015E000F047026800215368C66A90F83E4090F8C0
:1015F0003D50102C12D0402C10D0046C002C7DD00B
:101600005469E443A6077AD4DE43B60577D4036C65
:1016100003B19169BDE8F04702F030B997695169AB
:101620004FF42A0CC9435FEAC1784FF02A4904D02D
:1016300066452AD04E4528D010E0DE43B6050DD4CD
:10164000C16A614501D1012103E0C16A494501D167
:101650000821C162BDE8F04701F0A4BF0E0716D40F
:10166000DE43B60513D4416CC9B21161416B09B1B7
:10167000C96B29B9816B002907D0C96B002904D037
:101680000068416841F400614160BDE8F0878E0761
:1016900006D4DE43B60503D4BDE8F04701F0F6BE3C
:1016A000FE43526876074FEA02521DD4002AECDB53
:1016B0000A0608D4DA43520505D4490705D5BDE822
:1016C000F04701F087BE4907DFD4D9438905DCD450
:1016D000212D05D0402CD8D1BDE8F04701F0A8BF9E
:1016E000BDE8F04701F034BE002ACEDB4A060BD439
:1016F000DA43520508D4490708D501E00DE00EE0B1
:10170000BDE8F04701F0AABD4907BED4D943890519
:10171000BBD4BDE8F04701F034BD916970E7E10644
:1017200006D4D943890503D4BDE8F04702F012B9C5
:101730002821212D27D0292D25D0650655D4DD431C
:101740006D0552D4640752D590F83D30448D002C7D
:101750009BD01269446A2270426A521C4262428DD6
:10176000521E4285428D002A8FD12A2B8DD10268CC
:10177000536823F4806353602222026380F83D1093
:1017800000F0F0FA81E7250623D4DD436D0520D46F
:10179000640720D590F83D30448D002CF2D0446A87
:1017A00024781461426A521C4262428D521E428564
:1017B000428D002AE6D1292BE4D10268536823F434
:1017C000806353602122026380F83D1000F0CBFA61
:1017D0005BE76107D6D4D9438905D3D4418D00296D
:1017E000D0D0416A097811610AE06107CAD4D943AF
:1017F0008905C7D4418D0029C4D01169426A11708E
:10180000416A491C4162418D491E41853DE770474F
:1018100070B5040025D094F83D00002520B984F867
:101820003C50204600F058FA242084F83D002068FF
:10183000016821F0010101602068016841F4004164
:1018400001602068016821F40041016000F0BAFCE9
:101850004D4A6168914201D84C4900E04C498842A8
:1018600001D2012070BD4B492368B0FBF1F15E68E5
:1018700026F03F060E435E606368934206D94FF43C
:10188000967359434FF47A73B1FBF3F12368491C03
:101890001E6A26F03F06314319626168914210D8F2
:1018A0004900401EB0FBF1F2521CC2F30B02042AA5
:1018B00001D2042022E0B0FBF1F0401CC0F30B0089
:1018C0001CE0A268F2B301EBC10303EB0116431E57
:1018D000B3FBF6F35B1C43F480431B0549D092B382
:1018E00001EBC10202EB0111401EB0FBF1F0401C04
:1018F000C0F30B0040F4804040F400402168CA6906
:101900004CF6FF739A431043C861D4E907100143B2
:101910002068026822F0C00211430160D4E903018B
:1019200001432068826848F2FF339A431143816083
:10193000D4E9050108432168CA6822F0FF02104378
:10194000C86001E00EE016E02068016841F0010186
:1019500001602564202084F83D00256384F83E5012
:10196000002070BD01EB4106431EB3FBF6F35B1C88
:10197000B3E70120C2E701EB4101401EB0FBF1F0EB
:10198000401CC0F30B00B7E7A086010080841E0056
:1019900000093D0040420F00704770477047704794
:1019A000704700002DE9FF4F83B09A46DDE91187AB
:1019B00093460446DDF84090FFF7ACFD054694F8E9
:1019C0003D00202870D1192301227449204600953A
:1019D00002F09AF80028F5D194F83C00012863D071
:1019E000012084F83C0020680168C90703D1016820
:1019F00041F0010101602068016821F4006101608B
:101A0000222084F83D00402084F83E000026266411
:101A1000C4F82490A4F82A80608D20856048E06294
:101A2000CDE9007553465A462046049901F054FE0C
:101A3000002879D1208DD0B1012821D0022820683A
:101A400024D0416980690090208D032866D8012840
:101A50002BD0544902283B464FF00002009557D046
:101A60008846204602F050F800285DD13AE0206810
:101A7000416981690091016841F4007101607DE074
:101A80002068016821F480610160F0E7016821F4B9
:101A9000806101602068016841F400610160206894
:101AA00041698069009069E075E02A463946204620
:101AB00002F0D0F888BB54E02068016841F400715E
:101AC000016020680069616A0870606A401C606299
:101AD000218D491E2185618D491E61852168096915
:101AE000017042E02068016821F480610160206893
:101AF0000069616A0870606A401C6062208D401E47
:101B00002085608D401E60853B4600224146009541
:101B1000204601F0F9FF00B9CEE705E02A46394634
:101B2000204602F097F818B1012007B0BDE8F08F09
:101B300020680069616A0870606A401C6062208DDC
:101B4000401E81B22185608D401E608520684269FB
:101B5000D243520712D4032903D1016821F48061D2
:101B6000016020680069616A0870606A401C6062F8
:101B7000208D401E2085608D401E6085208D0028B0
:101B80007FF462AF202084F83D0084F83E6084F842
:101B90003C600020C9E70220C7E7000002001000F7
:101BA0000000FFFF040001002DE9FF4F83B09A46BB
:101BB000DDE9119793460446DDF84080FFF7AAFC63
:101BC000054694F83D0020287FD119230122404981
:101BD0002046009501F098FF002876D194F83C004B
:101BE000012872D0012084F83C0020680168C907F0
:101BF00003D1016841F0010101602068016821F40E
:101C000000610160212084F83D00402084F83E00FE
:101C100000262664C4F82480A4F82A90608D2085CC
:101C20002C48E062CDE9007553465A462046049997
:101C300001F0D0FD70B930E02A463946204602F066
:101C400041F858B1206C042804D12068016841F49F
:101C500000710160012007B0BDE8F08F606A216863
:101C600000780861606A401C6062218D491E89B25B
:101C70002185628D521E628522685369DB435B07B2
:101C80000BD469B100781061606A401C6062208DDD
:101C9000401E2085608D401E6085208D0028CBD1A0
:101CA0002A463946204601F003FF0028CAD154F8DD
:101CB0003D0B016841F400710160202004F81E0909
:101CC000E67766770020C6E7FFE70220C3E700005B
:101CD000020010000000FFFF10B586B0044614217A
:101CE0006846FEF79CFC1C492068884231D11B489D
:101CF0000021026842F002020260006800F0020067
:101D000005904FF4407000901220CDE901010320AE
:101D100003900420049069461148FFF7F9FA0F4830
:101D20001030016841F4001101600068002200F4E5
:101D30000010059005211F2000F0AEF81F2000F0D4
:101D40009DF800220521202000F0A6F8202000F0B8
:101D500095F806B010BD0000005400403038024035
:101D600000040240704770470248816802781144BD
:101D700081607047300000200B4810B5016841F4C5
:101D800000710160016841F480610160016841F403
:101D900080710160032000F09FF80F2000F006F82A
:101DA00000F050F8002010BD003C024030B5054660
:101DB0001F4887B00024016841F0040101600068F9
:101DC00006A900F00400009001A800F0DBF90498D7
:101DD000A8B100F0F7F940001649174AB0FBF1F13D
:101DE0001648491E026040F2E732C0E90324C0E908
:101DF0000114846100F066FF040003D015E000F0D8
:101E0000E1F9E9E70D4800F0A9FF04000DD11E201B
:101E100000F034F8102D07D2002229461E2000F0D1
:101E20003BF80748056000E0012407B0204630BDBC
:101E30004038024040420F000008004024070020C4
:101E4000340000200C4882B0016841F480410160F8
:101E5000006800F4804000900748001F016841F0CE
:101E6000805101600068002200F0805000900F2136
:101E7000901E02B000F010B844380240002809DB80
:101E800000F01F02012191404009800000F1E02094
:101E9000C0F8001170470000F0B40E4B1B680C46F0
:101EA000C3F30223C3F10705042D00D90425191D2E
:101EB000072901D2002300E0DB1E012606FA05F106
:101EC000491E214099409E40761E16403143F0BC89
:101ED00002F0DBBD0CED00E0064900F007020868E7
:101EE0004FF6FF03184040EA0220034A10430860FF
:101EF000704700000CED00E00000FA052DE9F84302
:101F0000044600684FF00109C1074FF0000601D1F7
:101F1000400729D5DFF82081C8F86860FFF7FAFA92
:101F20000746464D05E000BFFFF7F4FAC01B022844
:101F300059D828680001F7D4A068217B800140EAC5
:101F40000170616808433D4984310860C8F86890B1
:101F5000FFF7E0FA074604E0FFF7DCFAC01B0228AF
:101F600041D828680001F7D52078800752D533483A
:101F70004030016841F0805101600068304D00F050
:101F800080500090286840F480702860FFF7C2FA03
:101F9000074604E0FFF7BEFAC01B022823D82868D2
:101FA000C005F7D5254D7035286810F4407020D055
:101FB000218A01F4407181421BD02868214920F414
:101FC0004070C1F800900E6028602868C00710D0EB
:101FD000FFF7A0FA064641F2883707E0FFF79AFAC2
:101FE000801BB84202D90320BDE8F8832868800727
:101FF000F4D521691148C1F301220830032A12D017
:10200000016821F4F81101602868218AC1F30B01ED
:10201000084328602078000703D50B49207DC1F8CC
:10202000E0010020E0E70268084B22F4F8121940B2
:102030000A430260E8E7000000004742003802401F
:1020400000700040400E474200104742FFFCFF0F67
:102050002DE9F0470E46050065D0DFF81481D8F869
:102060000000F7B200F00700B04207D288F8007015
:10207000D8F8000000F00700B04254D128683D4C69
:10208000810712D5400703D5206840F4E050206056
:102090002878000703D5206840F46040206020685D
:1020A000A96820F0F000084320602878C0072DD0F0
:1020B000304968680839012812D0022813D0032853
:1020C00011D00968890700292DDA216821F0030160
:1020D00001432160FFF71EFA814641F2883A0EE083
:1020E00009688903EFE709688901ECE7FFF712FA4D
:1020F000A0EB0901514502D90320BDE8F087206813
:10210000696800F00C00B0EB810FEFD1D8F8001037
:10211000404601F00701B14207D90770006800F09E
:102120000700B04201D00120E7E72878400705D535
:102130002068E96820F4E050084320602878000710
:1021400006D52068296920F4604040EAC10020607B
:1021500000F048F82168084AC1F30311515CC840F7
:102160000649086006480068FFF720FE0020C4E723
:10217000003C024008380240688A02083C00002007
:10218000340000200F2202600C4A136803F003039E
:102190004360136803F0F0038360136803F4E053B3
:1021A000C36012684FF4E05303EAD20202610448AC
:1021B000006800F00700086070470000083802401F
:1021C000003C02400448054900680968044AC1F31C
:1021D0008221515CC84070473C0000200838024012
:1021E000788A0208154810B5006810F00C021448EF
:1021F00013D04110042A0FD0082A0ED10F4C241FEF
:102200002268236802F03F025B0207D52068C0F312
:102210008810A0FB010106E0084610BD2168C1F34B
:102220008811A1FB00010023FEF7A6F82168C1F385
:102230000141491C4900B0FBF1F010BD08380240D3
:102240000024F4002DE9F84F04006ED02078DFF868
:102250004C93C007A9F104054AD009F104000168B4
:10226000C1F38101012908D00068C0F38100022870
:102270000AD1D9F80000400206D52868800337D576
:1022800060680028E1D033E06068B0F5803F10D08E
:10229000B0F5A02F286810D020F48030286028687E
:1022A00020F4802028606068A8B1FFF733F9064663
:1022B0000DE0286840F48030F4E740F48020286086
:1022C000F7E700BFFFF726F9801B642873D828685A
:1022D0008003F7D50CE0FFF71DF9064605E000BFC7
:1022E000FFF718F9801B6428F0D828688003F7D41A
:1022F0002078DFF8AC8280074FF0000A3ED5A7486F
:10230000001D016811F00C0F08D00068C0F38100B7
:1023100002280BD1D9F80000400207D428688007B2
:1023200016D5E068012800D112E033E1E068B8B1C9
:102330000120C8F80000FFF7EDF8064605E000BFF1
:10234000FFF7E8F8801B0228C0D828688007F7D577
:102350002868216920F0F80040EAC10028600DE0FB
:10236000C8F800A0FFF7D6F8064604E0FFF7D2F859
:10237000801B02281FD828688007F7D42078000720
:1023800022D5864F87486169703771B1012101609C
:10239000FFF7C0F8064604E0FFF7BCF8801B0228F0
:1023A00009D838688007F7D50EE0C0F800A0FFF71D
:1023B000B1F8064605E082E0FFF7ACF8801B022882
:1023C0007DD838688007F7D42078400768D5DFF8D3
:1023D000CCB100270BF13C0BDBF80000C0000BD4A4
:1023E000DBF8001041F08051CBF80010DBF8000062
:1023F000012700F0805000906B4E3068C00510D46B
:10240000306840F480703060FFF784F8009005E099
:10241000FFF780F80099401A022850D83068C005AC
:10242000F6D55E4EA0686C3601280FD005283068BE
:1024300010D020F001003060306820F004003060DF
:10244000A068B8B1FFF766F800900FE0306840F080
:102450000100F4E740F004003060F7E7FFF75AF8B6
:102460000099411A41F28830814266D8306880076D
:10247000F4D50EE0FFF74EF8009007E0FFF74AF8BA
:102480000099411A41F28830814256D8306880075D
:10249000F4D42FB1DBF8001021F08051CBF80010FC
:1024A000A069C8B33D49091D0968C1F3810102292A
:1024B0004AD00228504607D0C8F8600000E03CE04F
:1024C000FFF728F804463BE04746C8F86000FFF7EE
:1024D00021F8064605E000BFFFF71CF8801B022824
:1024E0002BD828688001F7D4D4E907010843A16AF2
:1024F0002E4A490802EB0141626A41EA821108430F
:1025000094F82C1040EA0161C9F8001001203866E7
:10251000FFF700F8044606E03EE000BFFEF7FAFFD2
:10252000001B022809D828688001F7D534E000BFD5
:10253000FEF7F0FF001B022802D90320BDE8F88F48
:1025400028688001F4D427E00128F7D0D9F80000EA
:10255000E26900F4800191421CD1226A00F03F013F
:10256000914217D147F6C071626A0140B1EB821FF8
:1025700010D1A26A4FF0FF3300F4403103EB520256
:10258000B1EB024F06D194F82C1000F07060B0EB64
:10259000016F01D00120D1E70020CFE704380240CD
:1025A00000004742800E4742007000400000FFFFDD
:1025B00010B5040002D0607F10B106E0012010BD0C
:1025C00000202077204600F041F802206077206844
:1025D000C168C943C90632D5CA2141622168532066
:1025E0004862204601F0C6FD20BB20688168164A7B
:1025F000114081602168886862681043D4E904232F
:102600001A43104388602168E06808612068016906
:10261000228941EA02410161204601F0CFFD48B91B
:1026200021680A6C22F480220A6421680A6CA3697A
:102630001A430A642268FF21516208B110BD0020CC
:102640000121617710BD0000BFFF8FFF10B586B07C
:10265000044618216846FDF7E2FF094920688842D0
:102660000CD102200090000204906846FFF746FC5F
:1026700008B1FEF772FA03490120086006B010BDE8
:10268000002800403C0E474270B50446007F0B46D0
:10269000012819D00126267702206077B2B19878F8
:1026A000D97840EA014558781978000240EA41306B
:1026B00005432168CA2048622168532048622046A9
:1026C00001F058FDD0B122E0022070BD5878C1065B
:1026D00003D500F0EF000A305870D87801F03EFDC5
:1026E0000204587801F03AFD42EA0022987801F09D
:1026F00035FD0243187842EA4035DAE707480540DD
:1027000020684560204601F059FD00B966772268CF
:10271000FF2151620021217770BD00003FFFFF00C3
:102720002DE9F0410446007F0D46012823D04FF0EB
:10273000010884F81C8002206077206800278068E8
:102740004FEA4060D2B1002800DBEF70A87829780A
:1027500040EA01466878E978000240EA8150064381
:102760002168CA204862216853204862204601F04F
:1027700001FDB8B12CE00220BDE8F081002800DBAB
:10278000EF70287801F0EAFC0204687801F0E6FCBA
:1027900042EA0022A87801F0E1FC0243E87842EA2C
:1027A0008056DDE70D480640206806602068816895
:1027B00021F480218160D5E90301084321688A68FA
:1027C00010438860204601F0F9FC08B984F81D80A8
:1027D0002268FF2151622777CEE700007F7F7F00CC
:1027E00070B504460B482168C860FEF793FE0546A5
:1027F0004FF47A7607E000BFFEF78CFE401BB04234
:1028000001D9032070BD2068C0688006F4D500207F
:1028100070BD00005F3F01007047000038B50168DF
:1028200004464A688868C043430606D5C30704D1F6
:10283000D3435B0601D4216C05E0830708D4D3435E
:102840001B0605D4616C01B02046BDE83040084746
:10285000830603D5430601D5C30551D4D3439B0654
:102860004ED443060AD494F85130032B49D0636DFB
:1028700043F004036365CB688B680093830609D437
:10288000636D43F0010363658B6800930B6823F06D
:1028900040030B60C00506D4606D40F00800606521
:1028A000206880680090606D002829D02068416809
:1028B00021F0E0014160012084F85100900701D42B
:1028C000D00722D02068416821F003014160114DFA
:1028D000E06C40B10565E06CFEF793FB18B1606DEC
:1028E00040F040006065A06C002809D00565A06C30
:1028F000FEF787FB002803D0606D40F04000606564
:1029000038BDC8688868009038BD2046FFF784FF4E
:1029100038BD0000F541000870B5040009D0606AB8
:10292000002540B125616561A56294F8510040B170
:102930000CE0012070BD6068B0F5827FF4D0E561E5
:10294000F2E784F85050204600F044F8022084F862
:1029500051002068016821F040010160A0882189B0
:1029600000F4827001F404410843A18901F400617C
:102970000843217C01F002010843217D01F001019F
:102980000843218B01F400710843217F01F03801D5
:10299000084394F8201001F080010843218D01F4D0
:1029A0000051084321680860A069042101EA104031
:1029B00094F8241001F01001084321684860206851
:1029C000C16921F40061C1616565012084F851008D
:1029D000002070BD70B586B0064614216846FDF72C
:1029E0001EFE24493068884241D1234800250168F1
:1029F00041F480510160006800F4805005901E4849
:102A00001438016841F0010101600068694600F076
:102A100001000590A02000900220CDE901050320CF
:102A20000390052004901548FEF772FC154C1448DD
:102A300020604FF0806060604020C4E90205000122
:102A4000C4E90405C001A561C4E9075020466562D8
:102A5000FEF7BCFB08B1FEF780F8B4640022052144
:102A60002320A663FFF718FA2320FFF707FA06B022
:102A700070BD0000003001404438024000000240B8
:102A8000406402407C0600202DE9F84F9846164627
:102A90008A460446FEF73EFD814694F8510001281F
:102AA0001ED1BAF1000F73D0002E71D094F85000EF
:102AB000012815D0012784F85070032084F85100B4
:102AC00000256565C4F830A0A686E686A563A587BF
:102AD000E58765642564A068B0F5004F03D00CE07D
:102AE0000220BDE8F88F2068016821F040010160F4
:102AF0002068016841F4804101602068016849064E
:102B000003D4016841F040010160E068B0F5006F56
:102B1000606803D048B3012E27D047E008B1012EEA
:102B20001FD1206B21680088C86006E0206881689A
:102B3000890709D5216B0988C160206B801C20633F
:102B4000E08E401EE0860CE0FEF7E4FCA0EB0901FD
:102B5000414503D3B8F1FF3F03D035E0B8F1000F92
:102B600032D0E08E0028E1D123E0206B216800788C
:102B7000087306E02068816889070AD5216B097807
:102B80000173206B401C2063E08E401EE0860DE048
:102B90002BE0FEF7BFFCA0EB0901414503D3B8F1E0
:102BA000FF3F03D010E0B8F1000F0DD0E08E0028F9
:102BB000E0D14A464146204601F06CFB08B1202096
:102BC0006065A06830B109E084F8517084F8505015
:102BD000032086E72068C1688068009084F85170FF
:102BE00004F8505F60680028F3D0012079E7000006
:102BF00070B5044690F8510001281CD1C9B1C2B18A
:102C000094F85000012816D0012084F850000320C9
:102C100084F85100002565652163A286E286A563DC
:102C200065642564A587E587A068B0F5004F04D0EA
:102C30000DE0012070BD022070BD2068016821F008
:102C4000400101602068016841F480410160A16C8D
:102C500017480864A16C1748C863A16C1648C8647B
:102C6000A06C0565E38E2268216B0C32A06CFEF728
:102C700017FB30B1606D40F01000606584F8505073
:102C8000D7E720680168490603D4016841F0400194
:102C9000016084F850502068416841F02001416093
:102CA0002068416841F002014160002070BD0000D1
:102CB000274200083142000805420008704770476B
:102CC0007047704710B5040003D094F83D0010B170
:102CD00007E0012010BD002084F83C00204600F0F1
:102CE0001FF8022084F83D00211D206801F07AFEC3
:102CF000012084F8460084F83E0084F83F0084F800
:102D0000400084F8410084F8420084F8430084F8CD
:102D1000440084F8450084F83D00002010BD000008
:102D200008B500680B49884212D10B48016841F48C
:102D3000003101600068002200F40030009005219D
:102D40001920FFF7A9F8BDE808401920FFF796B849
:102D500008BD0000004401404438024090F83D1096
:102D6000012901D001207047022180F83D1001683F
:102D7000CA6842F00102CA6000680E4988420ED05B
:102D8000B0F1804F0BD00C49884208D00B498842E3
:102D900005D00B49884202D00A49884204D1816893
:102DA00001F00701062903D0016841F0010101602B
:102DB000002070470000014000040040000800406F
:102DC000000C00400040014070472DE9F0410446EE
:102DD0000068C66805694FF00007A90713D5B10759
:102DE00011D5F91E016101202077206880698007D4
:102DF000204602D0FFF7E8FF04E000F07EF820460E
:102E000000F07CF82777680716D5700714D521687D
:102E10006FF004000861022020772068806910F4B8
:102E2000407F204602D0FFF7CFFF04E000F065F8B6
:102E3000204600F063F82777280715D5300713D50B
:102E400021686FF008000861042020772068C069BD
:102E50008007204602D0FFF7B7FF04E000F04DF8EE
:102E6000204600F04BF82777E80616D5F00614D573
:102E700021686FF010000861082020772068C06981
:102E800010F4407F204602D0FFF79EFF04E000F0E0
:102E900034F8204600F032F82777E80708D0F0072A
:102EA00006D021686FF001000861204600F028F884
:102EB000280608D5300606D521686FF08000086125
:102EC0002046FFF7FDFE680608D5700606D5216886
:102ED0006FF040000861204600F01CF8A8060AD5F3
:102EE000B00608D521686FF0200008612046BDE8D3
:102EF000F041FFF7E6BEBDE8F08170477047000083
:102F000000680349884201D1FEF72EBF70470000D8
:102F1000000800407047FEE70148FEF703BB0000D1
:102F2000B00500200148FEF75ABB0000B0050020A4
:102F300038B5806B002190F83D202B4B46F2A81449
:102F40001B68B3FBF4F3C3EBC30303EB83030093EE
:102F50003BB15B1E009303681B689B0505D5009B76
:102F6000F6E7036C43F020030364436B03B1D963BA
:102F7000836B03B1D96303681C6824F480641C600C
:102F80004185436B03B11965836B03B11965036810
:102F90001C6824F001041C6090F83D402023602C44
:102FA0000BD0282434EA02020FD080F83D3080F89C
:102FB0003E1000BFFEF72BFC38BD80F83D3080F896
:102FC0003E100164FEF7ACFA38BD0268136843F0A6
:102FD000010313600268136843F4806313600163A4
:102FE00080F83D40E6E700003C00002000684169B1
:102FF000C943090601D400210161704770B5044638
:1030000090F83D0094F83E10102901D0402906D1D7
:10301000222804D121680A6822F400620A6028216B
:1030200031EA00024FF000054FF0200626D021685B
:103030004968090505D4602803D084F83D6084F808
:103040003E50256320684168090537D5416821F461
:1030500000614160606B90F835203C49012A11D035
:103060000165606BFDF7CDFF38B32068016821F082
:103070000101016084F83D60606B1CE0256384F809
:103080003D10DFE7A06B0165A06BFDF7BAFFA0B1B3
:1030900020684169C943490605D40069616A08701E
:1030A000606A401C60622068016821F001010160D3
:1030B00084F83D60A06B016D884710E094F83D10E6
:1030C000602910D04169C943490605D40069616A85
:1030D0000870606A401C60622046FEF798FB206C16
:1030E000C1071CD115E084F83D6025644169C943DE
:1030F000490605D40069616A0870606A401C606214
:103100002068016821F0010101602046FEF708FAFD
:10311000E5E7810703D4410701D4000704D52068FF
:10312000416821F4E061416094F83D00216C490759
:103130000BD5282809D10648E062256384F83D6054
:1031400084F83E502046FEF727FC70BD312F000862
:103150000000FFFF01684A69D24352050FD46FF4A3
:1031600080624A61002140F8301F2022427381733F
:10317000026942F0040202610173012070470020DD
:10318000704710B5C26A438D0168042B06D0438D89
:10319000032B08D0438D022B1DD012E04A6822F485
:1031A00080624A600CE04B6823F480634B60042A21
:1031B00006D0022A04D001680A6822F480620A60FC
:1031C00001680969426A1170416A491C4162418D76
:1031D000491E418510BD012A34D0102A32D0042A5C
:1031E00034D0022A32D00B6843F400730B600168BC
:1031F0000969436A1970416A491C4162438D5B1E2B
:10320000438503681B690B70416A491C4162418D0B
:10321000491E418501684B6823F440734B602021AF
:1032200080F83D1090F83E300021402B80F83E1091
:1032300010D0082A02D0202A00D012210163FEF704
:10324000ACFB10BD0B6823F48063CFE70B6843F43D
:103250008063CBE70163FEF7A2FB10BD38B590F8A1
:103260003D10222910D1C36A418D03290DD901686F
:103270000969426A1170416A491C4162418D491EC7
:103280004185418D032906D038BDC26A022A02D089
:10329000012906D029B10068416821F480614160AC
:1032A00038BD2A4A46F2A81400211268B2FBF4F293
:1032B00002EB8202009202682024009D6D1E0095A0
:1032C00026D01568AD05F8D4156825F4806515601D
:1032D0000268556825F4E065556002681269456A20
:1032E0002A70426A521C4262428D521E428580F808
:1032F0003D4090F83E2080F83E10402A21D0082B17
:1033000002D0202B00D012210163FEF746FB38BD0E
:10331000036C43F020030364536823F4E0635360B9
:1033200002681269436A1A70426A521C4262428DF4
:10333000521E428580F83D4080F83E10FEF767FA45
:1033400038BD0163FEF72BFB38BD00003C000020B8
:1033500010B5C26A90F83D1021290BD1418D51B1B1
:10336000416A026809781161416A491C4162418DD4
:10337000491E418510BD20230021082A13D0202A90
:1033800011D012F5803F0ED00268546824F4E06436
:1033900054601122026380F83E1080F83D3000BF77
:1033A000FEF7FCFA10BD0268546824F4E06454602F
:1033B0000268146844F400741460016380F83D30BE
:1033C00090F83E2080F83E10402AE9D1FEF7E8FA56
:1033D00010BD000010B590F83D1090F83E30C26A64
:1033E000048DB4B1212903D0402B11D122290FD152
:1033F000418DE1B390F83E10402942D0416A026805
:1034000009781161416A491C4162418D491E41851B
:1034100010BD2129E8D120230021082A13D0202A19
:1034200011D012F5803F0ED00268546824F4E06495
:1034300054601122026380F83E1080F83D3000BFD6
:10344000FEF7ACFA10BD0268546824F4E0645460DE
:103450000268146844F400741460016380F83D301D
:1034600090F83E2080F83E10402AE9D100E002E0CA
:10347000FEF796FA10BD0068416821F48061416052
:1034800010BDBDE8104000F0D3B8000078B590F84A
:103490003E50C26A036B90F83D6000240168222E02
:1034A0007AD1066D0EB9402D76D0056D1DB905692E
:1034B000B5F5404F09D0458D05B3468D384D012EE9
:1034C0000ED0438D022B3AD05DE04A698A690092A2
:1034D0000A6842F480720A60016D491C016578BD7A
:1034E000AA4213D10A6822F480620A6001684A681D
:1034F000120503D50A6822F4806216E04A698A69D7
:1035000000920A6842F400720A6039E0082A10D07A
:10351000202A0ED0122B0AD0042A03D0022A01D06E
:10352000102AE7D10A6842F480620A6024E0012A86
:10353000E0D00A6822F480620A600168DEE7042AAB
:1035400021D0022A1FD0102A1DD00B6823F48063DB
:103550000B6001680B6843F400630B6001684B6803
:103560001B0509D5AA4212D0012A10D0082A0ED074
:10357000102A0CD0202A0AD001684A698969009172
:10358000046578BD08E00B6843F48063E5E74A68AA
:1035900042F480524A60EFE7486988690090F0E79A
:1035A0000000FFFF90F83E10402910D00169B1F5EE
:1035B000804F19D0016DA9B3016D012910D1416C63
:1035C0005FF0F10201F4407142EAD11106E0016DB1
:1035D0000029416C05D0C9B241F0010100680161C8
:1035E000704701F0FE01F9E790F83D102129416C88
:1035F00009D0C9B241F0010102681161416B29B1E2
:10360000C96B49B902E001F0FE01F5E7816B0029C1
:10361000E6D0C96B0029E3D00068416841F400613D
:1036200041607047FFE7416CF02201F44071CBE745
:1036300010B590F83D10026D4AB1026D012A14D008
:10364000026D022A16D0BDE81040FFF7CFBCC16C56
:103650000129816C02D0C1F3072108E00268C9B2D8
:103660001161016D891C016510BD816CC9B20268D0
:10367000116123E022291CD0428D0AB1212920D0DA
:10368000428D002AF0D12129EED101684A6822F446
:10369000E0624A6001680A6842F400720A60002130
:1036A0000163202280F83D2080F83E10FEF778F973
:1036B00010BD01680A6842F480720A60016D491CFD
:1036C000D1E7416A026809781161416A491C416287
:1036D000418D491E418510BD2DE9F84F0446006813
:1036E00089460B9D01689846174641F48061016048
:1036F0002068016841F48071016000954FF0011B62
:103700000022594620460A9B00F0FEF94FF4007A49
:1037100040B120680068C00501D5C4F840A003206E
:10372000BDE8F88F216809F0FE0008612B462849A2
:1037300020460A9A00F030FAF0BB2068416980699F
:1037400000902A4620460A9900F0BCFA40B1206C4D
:1037500004283AD12068016841F40071016034E026
:10376000FEB2B8F1010F09D02168380A08612A4673
:1037700020460A9900F0A6FA0028E8D120680661E0
:103780002A4620460A9900F09DFA0028DFD12068D9
:10379000016841F48071016000950022594620467D
:1037A0000A9B00F0B1F90028B3D1216809F0FF00AD
:1037B00040F00100086100E007E02B460449204684
:1037C0000A9A00F0E9F90028AAD00120A8E7000031
:1037D000020001002DE9F843044600680D46DDE9CA
:1037E000089701689846164641F4807101604B467F
:1037F00000224FF001112046009700F085F948B1F2
:1038000020680068C00502D54FF4007020640320D2
:10381000BDE8F883216805F0FE0008613B464A4692
:103820001549204600F0B8F988B9206841698069D7
:1038300000903A464946204600F044FA48B1206CD0
:10384000042804D12068016841F40071016001205E
:10385000DEE7F5B2B8F1010F09D02168300A08613E
:103860003A464946204600F02DFA0028E7D1206864
:1038700005610020CCE700000200010038B50C46CD
:1038800090F83D2000212825954302680B4605D07D
:1038900051699169009180F83C3038BD556825F434
:1038A00080655560E243540700D50121120601D519
:1038B000828900E0028B80F83C3092B2FDF731FE45
:1038C00038BD00002DE9F04190F83D300446C26A51
:1038D000002120261E4F00686FF48065082A01D061
:1038E000202A01D1282B04D0212B17D04561BDE817
:1038F000F081E762426822F4E0624260206845613C
:103900002068026822F480620260216384F83D60CE
:1039100084F83E102046FEF73FF8E8E7E7622122F0
:10392000226384F83D6084F83E10416821F4E06130
:103930004160206845612068016821F48061016070
:103940002046FFF753FB2046FEF70DFACFE70000B5
:103950000000FFFFF8B590F83D600446006841683C
:1039600021F4E0614160206800254169009101680F
:1039700041F0010101602068016821F4806101606B
:1039800020684168090520D5474F222E48D02A2EAD
:1039900046D0616B096849686185618D19B1216CF8
:1039A00041F004012164416821F400614160606BD1
:1039B000FDF739FB012808D0606B0765606BFDF7E8
:1039C00020FB10B1606B016D8847608D08B32068E3
:1039D0004169C943490708D40069616A0870606A8F
:1039E000401C6062608D401E608520684169C9434B
:1039F000490608D40069616A0870606A401C606208
:103A0000608D401E6085608D18B1206C40F0040010
:103A10002064206C00B32046BDE8F840FFF7EEBA02
:103A2000A16B096849686185618D19B1216C41F00C
:103A300004012164416821F400614160A06BFDF73D
:103A4000F2FA0128C1D0A06B0765A06BFDF7D9FA87
:103A50000028BAD0A06BB6E72A2E06D1256328200D
:103A600084F83D002046FEF77DF994F83D102020B3
:103A700028290DD0216B222901D0222E07D12563C0
:103A800084F83D0084F83E502046FEF76BF9F8BDFF
:103A90000649E162256384F83D0084F83E502046E3
:103AA000FDF77AFFF8BD0000312F00080000FFFF8E
:103AB00070B516460D4604461EE02046FFF74AFB49
:103AC00008B1012070BD681C16D0FDF723FD801BD6
:103AD000A84200D885B920684069C04340070BD58B
:103AE000002044F8300F20216173A073216941F058
:103AF000200121612073E4E720684069C04340074A
:103B0000DBD4002070BD00002DE9F0479846174631
:103B10000D460446C1F30746DDF820902AE000BFB9
:103B2000B8F1FF3F26D0FDF7F5FCA0EB09014145B8
:103B300002D8B8F1000F1DD12068012E16D080697F
:103B400025EA00000004000C12D00020B84211D178
:103B5000002044F8300F20216173A073216941F0E7
:103B60002001216120730120BDE8F0874069E7E76B
:103B70000120EBE72068012E0AD0806925EA0000C9
:103B80000004000C06D00020B842C9D00020EBE7AA
:103B90004069F3E70120F7E72DE9F047984616461C
:103BA0000D4604464FF000094FF0200AC1F30747C5
:103BB00023E020684069C043400515D420680168AF
:103BC00041F40071016021686FF480604861C4F8BD
:103BD000309084F83DA084F83E90216C41F00401BF
:103BE000216484F83C9021E0701C06D0FDF792FC23
:103BF000A0EB0800B04203D816B1012F1FD021E07E
:103C00002068012F15D0806925EA00000004000C0F
:103C100018D000BF44F8309F84F80DA084F80E90AF
:103C2000216941F02001216184F80C900120BDE858
:103C3000F087406925EA00000004000CEAD1206802
:103C4000406901E02068806925EA00000004000C5A
:103C5000AFD1ECE72DE9F041002590460E46044631
:103C6000202728E04069C043C0060CD454F8301B1C
:103C70006FF01000486144F810596777A577206A03
:103C80002062257714E0FDF745FCA0EB0800B04268
:103C900000D886B920684069C04340060BD544F877
:103CA000305F6773A573206940F0200020612573A1
:103CB0000120BDE8F08120684169C9434906D1D49B
:103CC0000020F6E770B516460D4604461EE0204675
:103CD000FFF740FA08B1012070BD681C16D0FDF74F
:103CE00019FC801BA84200D885B920684069C043F0
:103CF00000060BD5002044F8300F20216173A0731B
:103D0000216941F0200121612073E4E720684069C6
:103D1000C0430006DBD4002070BD000010B50020B9
:103D20002DED028B82B00090684600F03FF89DF8C0
:103D300000409FED138BE0090ED19DF80110E000CB
:103D400000EB511024F00EFD53EC182B24F022FD53
:103D500041EC100BE0090ED0E0009DF80110A0F539
:103D6000806000EB511024F0FDFC53EC182B24F084
:103D700011FD41EC100B02B0BDEC028B10BD000038
:103D8000000000000000C03F1FB500208DF80C00AF
:103D9000012103A864228DE807000B460A46902102
:103DA0000148FDF701FF1FBDB00500200EB502223E
:103DB000CDE90002642102910123002290210248F2
:103DC000FDF7F0FD0EBD0000B00500207FB500241A
:103DD00015480094019402941249039401604FF431
:103DE0000031C0E901140461047680F820400F49D5
:103DF000C0E90A140125C561C46080F830504561EE
:103E0000FCF778FF08B1FCF7A8FECDE9004569464C
:103E100005480295FCF7A4FE002801D0FCF79DFEA2
:103E20007FBD000000200140080500200100000FB8
:103E30000D4808B5016841F4800101600068002266
:103E400000F48000009005213820FEF725F8382086
:103E5000FEF714F8002205213A20FEF71DF8BDE810
:103E600008403A20FEF70AB83038024010B5B4B026
:103E700000203190329031A81EF0D7FF274C1C2231
:103E80002749E0616846FCF776FB002168461FF091
:103E90002FF8234920601C221C3107A8FCF76BFB7C
:103EA000002107A81FF024F81D4960601C2238314A
:103EB0000EA8FCF760FB00210EA81FF019F81849A6
:103EC000A0601C22543115A8FCF755FB002115A851
:103ED0001FF00EF81249E0601C2270311CA8FCF79C
:103EE0004AFB00211CA81FF003F80D4920611C2289
:103EF0008C3123A8FCF73FFB002123A81EF0F8FF1C
:103F0000074960611C22A8312AA8FCF734FB002174
:103F10002AA81EF0EDFFA06134B010BD10000020F3
:103F20009C8902082DE9F04387B014216846FCF70C
:103F300076FB33480024016841F004010160016808
:103F400001F004010591016841F080010160016800
:103F500001F080010591016841F0010101600168F3
:103F600001F001010591016841F002010160006862
:103F7000244F00F002000590002283213846FDF70F
:103F8000C4FADFF88490002212214846FDF7BDFAFA
:103F9000DFF8788044F24106002231464046FDF7C2
:103FA000B4FA832000900125CDE9015469463846D2
:103FB0000394FDF7ADF912200090CDE90154694654
:103FC00048460394FDF7A4F90096CDE901546946EB
:103FD00040460394FDF79CF94FF48760CDE9000457
:103FE000694640460294FDF793F92802CDE90004A2
:103FF000694648460294FDF78BF907B0BDE8F083A7
:104000003038024000080240000002400004024034
:104010000D4810B50B4901600C49416000214FF477
:1040200080428160C0E9031241618161C161016226
:10403000FDF7EEFB002803D0BDE81040FCF78DBD76
:1040400010BD000000540040B0050020A086010013
:1040500010B586B014216846FCF7E1FA1D4800242B
:104060001B490594C0E900147F218160FF21C0E94C
:10407000031444618461FEF79BFA08B1FCF76DFDFF
:1040800010208DF800008DF801408DF80240039457
:10409000012269460F480494FEF742FB08B1FCF781
:1040A0005CFD03208DF814008DF8150005208DF8B7
:1040B000160025208DF81700012205A90548FEF7F6
:1040C000E3FA002801D0FCF748FD06B010BD00005F
:1040D0000028004004060020114810B50F49016077
:1040E0004FF4827141604FF400418160002102224F
:1040F000C0E90312012242615202C0E906210162B5
:10410000416281620A21C162FEF706FC002803D0E9
:10411000BDE81040FCF721BD10BD0000003001409B
:10412000240600200B4810B5094901603121416087
:10413000002142F20F72C0E9021201618161FEF7B3
:10414000C1FD002803D0BDE81040FCF706BD10BD3E
:1041500000440140DC060020FEE7FEE7002102E00B
:104160000A38C0B2491C0A28FAD2090740EA11608D
:10417000704700002DE9F041044600680025C16841
:10418000490618D4C16841F08001C160FDF7C2F949
:1041900006464FF47A78042707E000BFFDF7BAF926
:1041A000801B404501D9677701252068C06840061B
:1041B00001D4002DF2D02846BDE8F08170B5044648
:1041C00000680025C16821F08001C1602068806816
:1041D000800606D42046FEF703FB10B1042060776A
:1041E0000125284670BD00000148FEF717BB0000FE
:1041F0002406002010B5806B0021C187C186FEF720
:104200000BFB10BD10B5806B01684A6822F00302F9
:104210004A60416D41F010014165012180F8511063
:10422000FEF7FAFA10BD10B5806BFEF748FD10BD21
:1042300038B50546846BFDF76DF9024628680068BD
:10424000C00523D42068416821F020014160206826
:10425000416821F0020141606421204600F01AF813
:1042600018B1606D40F020006065A068002118B9A9
:104270002068C26880680090E186012084F85100BF
:10428000606D18B12046FEF7C7FA38BD2046FEF72C
:1042900015FD38BDF8B515460E460B46009204468E
:1042A0000122022100F02CF8A0B91348134900683C
:1042B000B0FBF1F04FF47A71484300906068B0F5BC
:1042C000827F0DD13346002280212046009500F0E8
:1042D00017F870B1606D40F0200060650320F8BDF4
:1042E000009830B1401E009020688068C0430006EE
:1042F000F6D50020F8BD00003C00002000366E011D
:104300002DE9F8431E46914688460446089DFDF770
:1043100001F9401B351AFDF7FDF8074625480068EE
:10432000C0F3CB30684338E0701C37D0FDF7F2F8AB
:10433000C01BA84203D215B1009860B32CE02068DE
:10434000416821F0E00141606068B0F5827F0BD1E7
:10435000A068B0F5004F02D0B0F5806F04D120689E
:10436000016821F040010160A06AB0F5005F09D149
:104370002068016821F4005101602068016841F45F
:1043800000510160012084F85100002084F85000A1
:104390000320BDE8F8830025401E00902068816856
:1043A00038EA010004D000214945BDD10020F0E7E2
:1043B0000121F9E73C0000202DE9F047141A641CA4
:1043C000A6B25C1A641CDDF82080A4B2F0283AD2B0
:1043D000B1F58C7F37D200F013F9DFF8709000222E
:1043E00010214846FDF791F8012280211848FDF779
:1043F0008CF866434FF49667002517E0741BBC42A7
:1044000001D200200BE03C4600202A1838F8121098
:104410000A0A42EA01210F4A22F81010401CA04269
:10442000F3D321460B4800F0C9F92544B542E5D342
:104430000949C88E0028FCD14846BDE8F047012252
:104440001021FDF762B8BDE8F087000000000240CF
:10445000000802405C440020240600202DE9F041C1
:104460000746002140F21713EF22084600F0C8F873
:104470000E4E002210213046FDF747F800244FF47D
:1044800096652A4639460A481EF0E6FA2946084843
:1044900000F094F9641CA4B2382CF2D33046BDE885
:1044A000F04101221021FDF730B800000000024069
:1044B0005C4400201FB54FF416614548FCF78DF8A9
:1044C0000A201EF0A6FC434C002240212046FDF7A6
:1044D0001CF80A201EF09DFC012240212046FDF719
:1044E00014F814201EF095FC3A2000F0DFF8552057
:1044F00000F044F9B22000F0D9F837A1D1E9000169
:10450000CDE900010521684600F0F0F8022000F036
:10451000B5F8B72000F0CAF8352000F02FF9BB201D
:1045200000F0C4F8322000F029F9C02000F0BEF8F5
:104530002C2000F023F9C22000F0B8F8012000F090
:104540001DF9C32000F0B2F8152000F017F9C420BF
:1045500000F0ACF8202000F011F9C62000F0A6F819
:104560000F2000F00BF9D02000F0A0F8A42000F0FC
:1045700005F9A12000F002F9E02000F097F818A05A
:104580000FC88DE80F000E21684600F0AFF8E1205B
:1045900000F08CF816A10FC98DE80F000E216846B7
:1045A00000F0A4F8212000F081F8112000F07EF83E
:1045B000132000F07BF8292000F078F896201EF0F8
:1045C00028FC04B00020BDE81040FFF747BF000002
:1045D0005C440020000402400C0C00333300000057
:1045E000D0080E090905313348171415313400007D
:1045F000D0080E090915313348171415313400005D
:104600002DE9F843DFF8708016460D4607461C4634
:10461000002210214046FCF778FF2A20143414357C
:1046200000F044F8380A8DF800008DF80170300A67
:104630008DF802008DF803600421684600F056F8FA
:104640002B2000F033F8280A8DF800008DF8015077
:10465000200A8DF802008DF803400421684600F01E
:1046600045F82C2000F022F84046BDE8F84301222E
:104670001021FCF74ABF00000000024010B50446BC
:10468000362000F013F854B1012C0AD0022C0AD0C5
:10469000032C0AD16020BDE8104000F06FB8C020A4
:1046A000F9E7A020F7E70020F5E710BD31B50C4C85
:1046B000002210212046FCF728FF00228021094813
:1046C000FCF723FF4FF0FF33012269460648FEF74F
:1046D000DBF9012210212046FCF717FF38BD00004E
:1046E0000000024000080240240600202DE9F05F8F
:1046F000DFF878B00C460646002210215846FCF739
:1047000004FF012280211A48FCF7FFFE4FF4803895
:104710004FF6FF7A174FDFF860901DE0444501D354
:10472000504600E0204685B23888A0420BD82A4681
:1047300031461148FEF75CFAD9F8480090F8351078
:104740000129FBD106E04FF0FF332A4631460A48E3
:10475000FEF79AF92E44641B002CDFD15846BDE8C1
:10476000F05F01221021FCF7D0BE000000000240E3
:1047700000080240AC0000202406002031B50C4C9B
:10478000002210212046FCF7C0FE012280210948AA
:10479000FCF7BBFE4FF0FF33012269460648FEF7E7
:1047A00073F9012210212046FCF7AFFE38BD00004E
:1047B0000000024000080240240600204900FFF7E4
:1047C00095BF00002DED028B01220C490C48FCF72F
:1047D00007FB0A4C9FED0B8ADFED0B8A208800EE69
:1047E000100A6420B8EE400A20EE080AC0EE280A3B
:1047F000C4ED010A1EF00DFBF0E7000000000020F0
:10480000080500203333534000F07F4510B50120E8
:104810001EF0FFFAFBE7000070B5054C40F6B83516
:1048200001212046FCF769FE28461EF0F2FAF7E760
:104830000004024014F082FD1AF050FE1BF0EFF865
:1048400015F07EFE044600236FF04F02092116F09A
:104850002BFE204615F09EFF1BF0E1F815F070FED0
:10486000002304461A46092116F01EFE9621204612
:1048700015F096FF00201AF05DFD0146204615F068
:104880009FFF1BF0CCF815F05BFE0446002350227E
:10489000092116F009FE204615F07FFF074C4FF066
:1048A000FF35294620681EF0F1FA1DF05FF92068F7
:1048B0001EF0C4FA0A201EF0ACFAF2E72C00002029
:1048C00010B501201EF0A5FAFBE70000FFF75CFA27
:1048D000054C4FF4FA7500BFFFF720FA84ED020B88
:1048E00028461EF096FAF7E700000020FCF77CF857
:1048F00002F088FB05201EF08CFAF9E710B5502075
:1049000080F31188BFF34F8FBFF36F8F23F074FDD7
:1049100018B104494FF080500860002080F31188DE
:1049200010BD000004ED00E030B593B030216846C2
:10493000FBF775FE14210CA8FBF771FE1D4800243F
:10494000016841F080510160006800F080501190D2
:104950001948016841F4404101600068102100F4E9
:10496000404011900A2000900120CDE9030102256A
:10497000CDE905050820CDE907406420CDE909050A
:1049800004200B906846FDF75DFC08B172B6FEE7A7
:104990000F20CDE90C054FF48050CDE90E400321E6
:1049A0000CA81094FDF754FB002801D072B6FEE766
:1049B00013B030BD4038024000700040024801682A
:1049C00041F470010160704788ED00E00148FEF796
:1049D000FCB90000DC0600200148FEF7F6B9000033
:1049E00024070020F0B50268204B214C9F03214D85
:1049F000214E984207D0B84205D0A04203D0A84229
:104A000001D0B04204D122F0700C4A6842EA0C0294
:104A1000984210D0B8420ED0A0420CD0A8420AD082
:104A2000B04208D0154CA04205D0154CA04202D08F
:104A3000144CA04203D122F44074CA6822434C694A
:104A400022F08002224302608A68C2620A6882629F
:104A5000984201D109690163012141610169C907D6
:104A600003D0016921F001010161F0BD00000140A6
:104A70000004004000080040000C004000400140DD
:104A80000044014000480140FEE70907090E0028E4
:104A900004DB00F1E02080F80014704700F00F0004
:104AA00000F1E02080F8141D704770B50446002521
:104AB0006FF02F0608E02068411C2160007805EBAC
:104AC000850106EB410145182068007800F004F8E4
:104AD0000028F0D1284670BD3038092801D80120BF
:104AE000704700207047000010B54421074800F0CF
:104AF0009DFC00221E2106481DF006F8054CA06012
:104B000001F064FD0020207010BD0000E84F00207F
:104B1000816600081C0200202DE9F0470E46814600
:104B200017461146304600F01CF94FF0FF3A0028B6
:104B30007DD000223946304600F0BFF800284FF003
:104B4000000075D1B6F90480B6F900305246A8EBE2
:104B50000301491C0AFA81F10FFA81FAB6F906C07D
:104B6000B6F90210ACEB010C0CF1010C02FA8CF25C
:104B7000B7F802C012B2ACEB010C0FFA8CFCBCF11E
:104B8000000F0EDD63F30F0468F30F0501EB0C005B
:104B900061F31F4460F31F45C9F800400120C9F8C4
:104BA0000450B7F906107388CB1AD21A12B2002A31
:104BB00013DDB6F9063099420FDA338863F30F0438
:104BC000B38861F31F4463F30F05114461F31F457C
:104BD00009EBC001401C0C604D60B7F90220B6F92A
:104BE00002108A4200DD1146B7F90630B6F90620F8
:104BF000934200DA1A463B88B6F900C0521AA3EB7A
:104C00000C031BB212B2002B10DD002A0EDD634430
:104C100063F30F058B1863F31F456CF30F0409EB67
:104C2000C00361F31F441C605D60401C01E01AE09A
:104C300017E0B7F9043036889F1BAAEB070636B297
:104C4000002E0EDD63F30F0461F31F44334463F35E
:104C50000F05114461F31F4509EBC001401C0C60B6
:104C60004D60BDE8F0875046FBE770B5B1F9003004
:104C7000B2F90040A34200DC23460380B1F90250A0
:104C8000B2F90240A54200DD2C464480B1F904602F
:104C9000B2F90450AE4200DA35468580B1F906100B
:104CA000B2F90620914200DB1146C1800120AB42DF
:104CB00001DC8C4200DD002070BDF8B50D460446D5
:104CC000B0F90000B1F900101646884247DBB4F98C
:104CD0000210B5F90220914241DBB4F90410B5F994
:104CE000042091423BDCB4F90610B5F9062091424C
:104CF00035DC96B3ADF800006088ADF802003246AE
:104D00006946284600F099F8002827D0A088ADF819
:104D100000006088ADF8020032466946284600F07F
:104D20008CF800281AD02088ADF80000E088ADF893
:104D3000020032466946284600F07FF800280DD070
:104D4000A088ADF80000E088ADF802003246694660
:104D5000284600F072F8002800D00120F8BD00209D
:104D6000F8BDB0F90020B1F904309A4213DCB0F973
:104D70000420B1F900309A420DDBB0F90220B1F9FC
:104D800006309A4207DCB0F90600B1F902108842F9
:104D900001DB0120704700207047F8B50D4604463E
:104DA000B0F90400B1F900101646884243DBB4F9AB
:104DB0000600B5F9021088423DDBB4F90000B5F9F0
:104DC0000410884237DCB4F90210B5F9062091428C
:104DD00031DC76B3ADF800006088ADF802003246F1
:104DE0006946284600F029F818BBA088ADF80000F5
:104DF0006088ADF8020032466946284600F01DF88A
:104E0000B8B92088ADF80000E088ADF8020032465D
:104E10006946284600F011F858B9A088ADF800009E
:104E2000E088ADF8020032466946284600F005F8F1
:104E300008B10020F8BD0120F8BD2DE9FC41144661
:104E40000E46B1F90020B0F9001005468A423ADB5F
:104E5000B5F90400824236DCB6F90270B5F90220D9
:104E6000974230DBB5F906309F422CDC002C75DD13
:104E7000401A9A1A401C521C00B212B200EBD070B9
:104E800002EBD27240105210904200DB1046844276
:104E900000DD0446ADF80010288800222044ADF85B
:104EA00004006888ADF80200688831462044ADF8F7
:104EB00006006846FFF7C1FF40B1BDF8040020447A
:104EC000ADF804003FE00020BDE8FC81E888002246
:104ED000001BADF80200E888ADF8060031466846D0
:104EE000FFF7ABFF28B1BDF804002044ADF8040083
:104EF00011E0A8880022001BADF80000A888ADF8DA
:104F0000040031466846FFF798FF50B1BDF8000035
:104F1000001BADF80000BDF80200001BADF8020058
:104F200016E06888ADF80200688800222044ADF8D9
:104F3000060031466846FFF780FF70B1BDF80000FB
:104F4000001BADF80000BDF806002044ADF80600D7
:104F5000314668461AF0A6FAB6E7FFE70120B3E744
:104F600010B5B1F90040B2F900309C4200DA234696
:104F70000380B1F90240B2F902309C4200DA2346C4
:104F80004380B1F90440B2F904309C4200DD23466D
:104F90008380B1F90610B2F90620914200DC114677
:104FA000C18010BDF8B507461CF04AFD0025374CFE
:104FB0000646009537B1F868606038461CF072FE0E
:104FC000606802E00FF00EFD606000691AF066F99B
:104FD0006068406908B11AF061F96068C0691AF048
:104FE0005DF96068006A1AF059F96068016991B169
:104FF0001AF0F0FA1FF0DAF81EF000FE6068B0F860
:105000005011D9B30068017CC9071DD0C068406841
:10501000D0B1002713E0A0F85051F8BDC11991F8A4
:10502000301151B900F5AC7000F057FA616801EB2E
:10503000C7010A6B0260496B41607F1CBFB26068A8
:10504000B0F85011B942E9D860684FF4807130303F
:1050500015F03EFE6068202100F5987015F038FECE
:105060006068A0F8505130461CF0E4FC0090606885
:105070000068436A13B122680099984715F0A6FCAE
:1050800000F032F8BDE8F84000F002B8DC00002083
:1050900070B50A4D002400BFC4EBC40655F82600C5
:1050A00008B115F007FD05EB86001C2115F010FE78
:1050B000641CE4B2042CEFD370BD0000C450002087
:1050C000084949680AE04A68824202D00A68824276
:1050D00003D10A7E42F001020A7649690029F2D121
:1050E00070470000B0000020704700000421014814
:1050F00000F09CB9DC4F00202021014800F096B957
:10510000F44F00202DE9FF410446DDE90A671D0048
:105110004FF0000002D1B6F5807F2BD003900190B4
:105120000290ADF80C100090ADF80410ADF80A2014
:10513000ADF80E203B463246294668461AF012F971
:105140003B463246294601A81AF00CF93B46324646
:10515000294602A81AF006F93B463246294603A81A
:105160001AF000F9BDF90000BDF90430984209DADF
:10517000054608E02080491E6080A180521EE28022
:10518000BDE8FF811D46BDF90820BDF90C108A421B
:1051900001DA164600E00E46B54203DA984206DB15
:1051A000184604E08A4201DA104600E00846801EF4
:1051B0002080BDF90030BDF90420934201DD1D4679
:1051C00000E01546BDF90800BDF90C10884201DD6C
:1051D000064600E00E46B54205DD934201DD194664
:1051E00004E0114602E0884200DD0146891CA180EE
:1051F000BDF90230BDF90620934201DA1D4600E0F8
:105200001546BDF90A00BDF90E10884201DA0646BE
:1052100000E00E46B54205DA934201DA194604E091
:10522000114602E0884200DA0146891E6180BDF91C
:105230000230BDF90620934201DD1D4600E015460F
:10524000BDF90A00BDF90E10884201DD064600E0F6
:105250000E46B54205DD934201DD194604E01146D4
:1052600002E0884200DD0146891CE18088E70000F9
:105270002DE9F04115460E460746114C1CF0E0FBA7
:1052800080462B4632463946204613F031FD20B188
:105290000020A062E06950B110E02C21204615F0FA
:1052A00017FD4FF00040A0620020BDE8F0814046AD
:1052B0001CF0C0FBE06108B90120E0612046F4E782
:1052C0001850002010B51421074800F0AFF813F073
:1052D000D5FC40B10549016005494160054981603F
:1052E0000549C16010BDFEE700500020518601084D
:1052F000CD8901089D8B01081D8601087FB50E46EA
:10530000040003D10FF06EFB04002CD00FF0DEFB85
:10531000002828D094F82800400724D4002506B39C
:10532000ADF80050ADF8025020460FF073FB401E60
:10533000ADF8040020460FF0B3FB401EADF80600A8
:105340006A46314602A8FFF790FC00280BD020687F
:10535000017C890708D5DDE90001C4E90C010120C1
:1053600029E0A4F850517FBD82690AB102A9904793
:1053700000260AE004EBC601002202A83031FFF744
:105380009CFC0028EFD1761CB6B2B4F85001B042B4
:10539000F0D880B2202804D204EBC00002A930303B
:1053A00004E0A4F8505104F1300069460DF0E1F832
:1053B000B4F85001401CA4F8500160680028D2D015
:1053C0001CF07CFC7FBD70B5054600F012F8044669
:1053D0000CE02146284600F01EF8064621462846E5
:1053E00000F0A2F8204615F065FB3446002CF0D101
:1053F00070BD002800D04068704700B50346002209
:10540000FFF7F7FF03E01846521C00F004F8010014
:10541000F9D1104600BD0068091D4058704700686A
:1054200040587047002800D08068704700224260D2
:10543000C91C21F0030182600160704770B5044609
:105440000068083015F0AAFA050013D001460022C2
:1054500020461DF045FC2946204662681DF03AFCB6
:10546000616819B12A4620461DF03AFC6560A068C3
:1054700000B9A560284670BD2DE9F0410C46060034
:105480000AD04CB1FFF7B5FFA04208D13046FFF774
:10549000D5FF051E01D01EE00020BDE8F081306878
:1054A000083015F07BFA051EF7D030682A460759F8
:1054B000304639461DF00EFC3A46294630461DF06E
:1054C0000FFC2A46214630461DF00AFC224629469A
:1054D00030461DF0FFFB2846DFE770B50446006844
:1054E000083015F05BFA050013D001460022204673
:1054F0001DF0F0FB29462046A2681DF0F1FBA168D3
:1055000019B12A4620461DF0E5FBA560606800B988
:105510006560284670BD28B1416809B9806808B146
:10552000002070470120704770B504000DD0FFF7D0
:1055300060FF00228842204608D1FFF76CFF6060C0
:10554000011E01D000221EE0A26070BDFFF76AFFBD
:105550008842206808440AD10168A16029B1204628
:10556000BDE8704000221DF0B5BB626070BD0568EB
:105570002046FFF750FF06460246294620461DF00A
:10558000A9FB2A4631462046BDE870401DF0A8BB65
:1055900010B50446006882680AB121469047206829
:1055A0000068002801D02060F5E710BD8068002861
:1055B00001D0B0F9160070478068002801D0807EC5
:1055C0008009704770B5164605460C4651EA06003C
:1055D0001AD0284616F0E2F8A86801233246018A5C
:1055E00021440182A868418A3144418221462846EB
:1055F00018F05AFC00220B21284612F0CDFA01289F
:1056000003D1284618F0A9FB012070BD77B581B001
:105610000E46050017D0622217F0D0FE040012D00B
:10562000206880B128463146632217F0C7FE10F08B
:10563000FF0208D023682046039998470090BDF8E0
:105640000000ADF80C00039804B070BD2DE9F047E0
:10565000074692B0408C1A9E40F00800788490462D
:105660003A8499468A463289384617F0A7FE05469D
:10567000A7F8209032895146384617F09FFE04461D
:10568000788CA54220F00800788403D12904B1EB7E
:10569000044F68D0A7F8208032895146384617F069
:1056A0008DFE05468046A7F82090514638460BF0FF
:1056B000EBF8318900682A461BF00EF930890B2877
:1056C00023D147F6FF794D4501D04C451DD13846D1
:1056D00018F03BF800EBD0704510384616F013FF79
:1056E00000EBD0704010C84506D1691C431C99429C
:1056F00000DA00E0194688464C4506D1691C421C78
:10570000914201DA6C1C00E014461948FFF796FE3E
:1057100005002BD02F60C5E903843089A880684636
:10572000C5F808A00CF098F91248FF21CDE9005007
:10573000114802901148039000200890CDE909011A
:1057400030880B9070889DF8421040420C90F068B1
:105750000790002060F300018DF842103069069038
:1057600068460CF0EDF912B0BDE8F087FEE70000E6
:105770000C5000203171020819730208757202087A
:1057800014210148FFF752BE0C5000202DE9F84FBC
:1057900000259046894606462C460427E6E000BFD1
:1057A000F06807EBC401405881017CD480B230EA34
:1057B000090112D05FF0000230EA08000FD000208B
:1057C000824270D0F0686A46102150F83400824658
:1057D0001AF0E4FD002871D103E00122ECE701207A
:1057E000EEE76A46112150461AF0D8FD002865D12F
:1057F0006A46122150461AF0D1FD00285ED16A4651
:10580000132150461AF0CAFD002857D16A461521C7
:1058100050461AF0C3FD002850D16A461421504664
:105820001AF0BCFDF0BB6A460A2150461AF0B6FDDC
:10583000C0BB6A466B2150461AF0B0FD90BB6A4669
:105840006C2150461AF0AAFD60BB6A460121504601
:105850001AF0A4FD30BB6A46042150461AF09EFDA2
:1058600000BB6A46022150461AF098FDD0B96A463C
:10587000032150461AF092FDA0B96A460521504610
:105880001AF08CFD70B96A46062150461AF086FD62
:1058900040B96A46322150461AF080FD10B96A4676
:1058A0006E2101E00AE060E050461AF077FD28B969
:1058B0006A466D2150461AF071FD10B10320BDE813
:1058C000F88F6A46692150461AF068FDF0BB6A46B7
:1058D0006A2150461AF062FDC0BB6A466E215046EE
:1058E0001AF05CFD90BB6A466D2150461AF056FDD9
:1058F00060BB6A46372150461AF050FD30BB6A46FD
:10590000382150461AF04AFD00BB6A463521504600
:105910001AF044FDD0B96A46402150461AF03EFDC7
:10592000A0B96A46452150461AF038FD70B96A465A
:10593000412150461AF032FD40B96A464221504694
:105940001AF02CFD10B96A46432100E009E05046E8
:105950001AF024FD28B96A46492150461AF01EFD66
:1059600008B1022501E005B90125641C708CC0F363
:105970000510A0423FF614AF2846A0E70148406852
:1059800070470000DC0000207047C0F304100728B7
:1059900000D9072070470000A0F57F41FF3905D0EE
:1059A000002804D0712803D208490AE01F2070475C
:1059B0000749713880B2096829B1064A5268904295
:1059C00001D2085C70470020704700001CCA020822
:1059D000480200205C02002010B518210348FFF7A0
:1059E00025FD03490120087010BD0000B84F0020BC
:1059F000640200202DE9F04190460C46050015D0C8
:105A0000FAF755FD0A4F06462146BA6828469047E0
:105A10000446BA682819414690470146701A03E0C7
:105A20006218AA5C2A55641CA042F9D2BDE8F08134
:105A3000780200202DE9F041094D90460E466A6833
:105A40001C46074619469047306020B120686A68B6
:105A5000384400219047C8F80000BDE8F0810000FC
:105A6000780200202DE9F04F87B08A46DDE9105812
:105A70001F4693460446002105B129805CB1207879
:105A8000002809D0BAF1000F05D0002618F0060F43
:105A900015D0002004E0002007B0BDE8F08F401CC6
:105AA000215C0A2904D00D2902D00029F7D100E099
:105AB000401C002DF0D04FF0FF312980ECE75FEA69
:105AC000887001D541F6FF77894608468DF8141095
:105AD000049127E00498CDF8189068B34FF0000CBB
