:020000040800F2
:100000009060012055030008DB4300089731000889
:10001000D9430008350F0008814C0008000000009B
:100020000000000000000000000000009502000831
:100030002910000800000000F1020008F54A00083D
:100040006F0300086F0300086F0300086F030008C8
:100050006F0300086F0300086F0300086F030008B8
:100060006F0300086F0300086F0300086F030008A8
:100070006F0300086F0300086F0300086F03000898
:100080006F0300086F0300086F0300080000000002
:100090000000000000000000000000006F030008E6
:1000A0006F030008C54B00086F0300086F030008CA
:1000B0006F0300086F030008D14B0008A53100084A
:1000C000993100086F0300086F03000869440008B5
:1000D0006F0300086F0300086F03000800000000B2
:1000E0006F0300086F0300086F03000800000000A2
:1000F0000000000000000000000000006F03000886
:10010000000000006F0300086F0300086F03000881
:1001100000000000000000000000000000000000DF
:100120006D0F00086F030008790F00086F030008C7
:100130006F03000800000000000000000000000045
:100140000000000000000000000000006F03000835
:100150006F0300086F0300086F0300086F030008B7
:100160006F0300086F03000800000000000000009B
:10017000000000000000000000000000000000007F
:10018000000000006F0300080000000000000000F5
:100190006F0300086F03000800F002F800F06AF82F
:1001A0000AA090E8000C82448344AAF10107DA45D2
:1001B00001D100F05FF8AFF2090EBAE80F0013F0BA
:1001C000010F18BFFB1A43F0010318470C4304004A
:1001D0002C4304000A444FF0000C10F8013B13F0CC
:1001E000070408BF10F8014B1D1108BF10F8015B90
:1001F000641E05D010F8016B641E01F8016BF9D183
:1002000013F0080F1EBF10F8014BAD1C0C1B09D1D9
:100210006D1E58BF01F801CBFAD505E014F8016B4B
:1002200001F8016B6D1EF9D59142D6D370470000DD
:100230000023002400250026103A28BF78C1FBD8EF
:10024000520728BF30C148BF0B607047642900F0D7
:100250005581002070471FB52EF026FC00F0F8FCF9
:100260000400002000212EF0C5FA401C60601FBD74
:1002700010B510BD00F0C6FC1146FFF7ECFF25F0ED
:1002800073FF00F0F7FC03B4FFF7F2FF03BC00F0CC
:10029000FBFC00002C4B19680868B0E8F04F80F3B5
:1002A0000988BFF36F8F4FF0000080F3118870470B
:1002B0000000000008480068006880F308884FF0DC
:1002C000000080F3148862B661B6BFF34F8FBFF3AE
:1002D0006F8F00DF00BF00BF08ED00E0DFF80C000B
:1002E000016841F470010160704700BF88ED00E0D3
:1002F000EFF30980BFF36F8F134B1A681EF0100FD6
:1003000008BF20ED108A20E9F04F106009B44FF0CB
:10031000500080F31188BFF34F8FBFF36F8F2DF024
:100320000BFC4FF0000080F3118809BC19680868C5
:10033000B0E8F04F1EF0100F08BFB0EC108A80F349
:100340000988BFF36F8F704740000020EFF30580EE
:10035000704700000948804709480047FEE7FEE76C
:10036000FEE7FEE7FEE7FEE7FEE7FEE7FEE7FEE765
:1003700004480549054A064B70470000B54B000884
:1003800099010008903E01209060012090400120DA
:100390009040012053EA020C00F069802DE9F04BF7
:1003A0004FF00006002B1FBFB3FA83F503FA05F4E4
:1003B00024FA05F65E4012BF1643B2FA82F502FA3D
:1003C00005F4C5F120051EBF22FA05FC44EA0C0421
:1003D000203556EA044C4FEA144418BF641C4FF011
:1003E00000084FF00009904271EB030C39D300294B
:1003F00019BFB1FA81F701FA07F6B0FA80F700FAEF
:1004000007F6C7F120071EBF20FA07FC46EA0C06D4
:100410002037B6FBF4FCA7EB0507103F07F01F0BD6
:10042000CBF120060CFA0BFB2CFA06F644BFB346C0
:100430000026202FA4BF5E464FF0000B5BEA060C9F
:1004400008BF4FF0010B19EB0B09ABFB027C48EB2B
:100450000608C01B06FB02CC0BFB03CC71EB0C01A6
:10046000C1E70B46024641464846BDE8F08B13B54E
:100470004FF000004FF00001AFF30080BDE81C40DA
:10048000704700000FB41CB5074B06AA7B446946B1
:100490000090059800F0C9FA0020694600F0D8FAEB
:1004A0001CBC5DF814FB0000C105000070B50446DB
:1004B00085690068C10601D5302600E02026C00706
:1004C00007D070BDD4E9012130469047206A401C16
:1004D00020626D1EF6D570BD70B504468569007842
:1004E000C00707D170BDD4E9012120209047206AC0
:1004F000401C20626D1EF6D570BD00002DE9F04154
:100500000646002410687529314616A510D0AFF3B1
:100510000080002802DA404213A507E031688A070C
:1005200001D512A502E0490704D511A5012401E077
:10053000AFF3008000210A2206F1240709E0B0FB96
:10054000F2FCB0FBF2F302FB1C003030785418468A
:10055000491C0028F3D123462A463046BDE8F04125
:1005600000F004BA000000002D0000002B00000085
:10057000200000002DE9F05F894604464FF0000A94
:10058000DFF824B1FB44C0F820A02046E16888478A
:1005900000287DD0252806D0D4E901219047206A83
:1005A000401C2062F1E700255F462046E16888474D
:1005B0002028064607DB312E05D2B81910F8200C8A
:1005C00008B10543F1E7A80701D525F00405C4F8F3
:1005D0001CA00027C4F818A02A2E09D0304604F029
:1005E0007EFB38B304EB8708303EC8F8186019E08A
:1005F00059F8041B204604EB87029161E1688847A3
:10060000012F064618D1E069002820DA25F02005E0
:100610001DE0D8F8180000EB800006EB40003038F1
:10062000C8F818002046E1688847064604F057FBE2
:100630000028EED1012F0AD02E2E08D12046E168E5
:1006400088477F1C0646022F45F02005C4DBA069C1
:10065000002803DA404245F00105A061E80701D017
:1006600025F01005A6B1A6F14100192802D82036C0
:1006700045F400654A463146204625604D46FFF761
:10068000E5FD60B1012807D0ED1D25F0070000E071
:1006900007E000F1080978E705F1040975E730463D
:1006A0007AE7206ABDE8F09F243A040070B5064658
:1006B00000F058F90468054630460A22002100F08F
:1006C000CCF92C6070BD0000014A00F0FFB90000B9
:1006D0003003002040EA0103024630B59B0710D1E9
:1006E0004FF0013400E008C208C91D1B9D4315EA04
:1006F000C41FF8D013F0FF0102F8011B0DD01B0A34
:10070000F8E711F8013B002B02F8013B05D011F886
:10071000013B002B02F8013BF3D130BD10B5431C67
:1007200002E010F8011B71B18107FAD14FF00132DC
:1007300002C88C1A8C4314EAC211F9D0C01A0A06F6
:1007400003D0C01E10BDC01A10BD0A0401D0801E07
:1007500010BD0902FCD0401E10BD032A40F23080BB
:1007600010F0030C00F0158011F8013BBCF1020FF2
:10077000624498BF11F801CB00F8013B38BF11F873
:10078000013BA2F1040298BF00F801CB38BF00F88A
:10079000013B11F0030300F02580083AC0F0088007
:1007A00051F8043B083A51F804CBA0E80810F5E7EB
:1007B000121D5CBF51F8043B40F8043BAFF30080CE
:1007C000D20724BF11F8013B11F801CB48BF11F843
:1007D000012B24BF00F8013B00F801CB48BF00F813
:1007E000012B704710B5203AC0F00B80B1E81850CB
:1007F000203AA0E81850B1E81850A0E81850BFF40B
:10080000F5AF5FEA027C24BFB1E81850A0E81850A9
:1008100044BF18C918C0BDE810405FEA827C24BFFD
:1008200051F8043B40F8043B08BF7047D20728BF8B
:1008300031F8023B48BF11F8012B28BF20F8023BDA
:1008400048BF00F8012B70474FF000020429C0F0A8
:10085000128010F0030C00F01B80CCF1040CBCF1F2
:10086000020F18BF00F8012BA8BF20F8022BA1EB44
:100870000C0100F00DB85FEAC17C24BF00F8012B29
:1008800000F8012B48BF00F8012B70474FF0000221
:1008900000B5134694469646203922BFA0E80C5076
:1008A000A0E80C50B1F12001BFF4F7AF090728BF51
:1008B000A0E80C5048BF0CC05DF804EB890028BFCD
:1008C00040F8042B08BF704748BF20F8022B11F0F6
:1008D000804F18BF00F8012B704700004FF0013C1B
:1008E00050F8042B51F8043B9A4221D1A2EB0C039F
:1008F000934313EACC1317D150F8042B51F8043B5F
:100900009A4215D1A2EB0C03934313EACC130BD1FB
:1009100050F8042B51F8043B9A4209D1A2EB0C0386
:10092000934313EACC13DBD04FF00000704700BFB5
:10093000D01A01BAB1FA81F101F0180122FA01F0DE
:10094000CB40C1F12001DBB2C0B2C01A2CFA01F3D6
:10095000D11A914311EAC311E6D17047704770472D
:100960007047000000487047303E01202DE9F047F5
:100970000D4699469246044600F12408016888060F
:1009800004D5E06921F01001216000E00120A842B7
:1009900001DD471B00E00027A1697A1902EB09007D
:1009A000081AA0612078C00602D42046FFF77EFD19
:1009B000002608E0D4E901211AF806009047206AD1
:1009C000401C761C20624E45F4DB2078C0060AD518
:1009D0002046FFF76BFD06E0D4E901213020904767
:1009E000206A401C2062381EA7F10107F4DC07E0F2
:1009F000D4E9012118F805009047206A401C2062C4
:100A0000281EA5F10105F3DC2046FFF765FD2078DF
:100A1000000602D50220BDE8F0870120FBE70000B8
:100A200001694A1C02610878704700B58FB0CDE9B2
:100A300001310021059105497944CDE903101146A2
:100A40006846FFF797FD0FB000BD0000E5FFFFFF10
:100A50000A6802F8010B0A6070472DE9F0479146D9
:100A60000F4680460446002614F8015B2DB100F0C5
:100A700053F80068405DC007F6D12B2D02D02D2D14
:100A800018D0641E4A463946204600F04DF827B17A
:100A90003968A14201D1C7F800804FF00204710506
:100AA0000BD54042002803DDFFF75CFF0460A00780
:100AB000BDE8F08746F48066E4E70028F8DAFFF73F
:100AC00051FF04606FF00040F2E700002DE9F041B3
:100AD00015460E46040002D12C6804B90BA420462A
:100AE00000F081F80444207870B12746314638463A
:100AF00000F069F80444207810B1002004F8010BDC
:100B000038462C60BDE8F0810027F9E700000000BE
:100B100000487047303E012010B500F099F8001DE4
:100B200010BD00BFD1DC02002DE9F05F8246154602
:100B30008B4600270AF10104B9460078302801D01D
:100B40009DB113E014F8010B0127782803D0582831
:100B500001D045B10AE00DB1102D07D1002714F8DE
:100B6000010B102502E0082500E00A250026B0460A
:100B70000EE005FB080005FB06F101271FFA80F8CF
:100B800001EB1046B6F5803F00D3B94614F8010BCF
:100B9000294600F061F80028EBDABBF1000F05D020
:100BA0000FB1641E00E05446CBF80040B9F1000FCD
:100BB00006D0FFF7D7FE02210160C81EBDE8F09FF6
:100BC00048EA0640FAE730B503461D781DB10A46EB
:100BD00003E0AC4201D1181A30BD12F8014B002CD1
:100BE000F7D15B1CF1E730B503461D783DB10A46ED
:100BF00012F8014B1CB1AC42FAD15B1CF5E7181A94
:100C000030BD70477546FFF783FFAE460500694665
:100C1000534620F00700854618B020B5FFF7A8FB23
:100C2000BDE820404FF000064FF000074FF00008ED
:100C30004FF0000B21F00701AC46ACE8C009ACE86E
:100C4000C009ACE8C009ACE8C0098D467047000097
:100C500000487047503E01203A2800D2303820F03A
:100C60002002412A01D3A2F13700884201D34FF07C
:100C7000FF30704710B50446AFF300802046BDE852
:100C80001040FFF700BB000001491820ABBEFEE793
:100C900026000200464910B54A6822F440324A60F4
:100CA0004A6843681A434A6001684A6822F48072BD
:100CB0004A6001684A68036942EA03224A6001689F
:100CC0004A6822F040724A6001684A6883681A43A1
:100CD0004A6001688A6822F400628A6001688A6852
:100CE000C3681A438A60816A6FF07062D1420168FA
:100CF0008A6822F070628A6001688A680CD0836A10
:100D00001A438A6001688A6822F040528A6001684A
:100D10008A68C36A1A4301E022F040528A6001687F
:100D20008A6822F002028A6001688A68037E42EAC9
:100D300043028A6090F82010002901684A680FD0A9
:100D400042F400624A6001684A6822F460424A60E4
:100D500001684A68174C436A04EB43331A4301E0C5
:100D600022F400624A600168CA6A22F47002CA6210
:100D70000168CA6A838B104C04EB03531A43CA629E
:100D800001688A6822F400728A6001688A6890F8B3
:100D9000303042EA43228A6001688A6822F4806225
:100DA0008A6001688A68406942EA8020886010BDD4
:100DB0000023014000E0FFFF0000F0FF10B5082114
:100DC000064800F0DAFC064C0121204600F0D5FC74
:100DD0002046BDE81040022100F0CFBC00040240D4
:100DE0000008024010B50821064800F0C6FC064C79
:100DF0000121204600F0C1FC2046BDE81040022140
:100E000000F0BBBC000402400008024010B50821FD
:100E1000064800F0B2FC064C0121204600F0ADFC73
:100E20002046BDE81040022100F0A7BC00040240AB
:100E30000008024010B50821064800F09EFC064C50
:100E40000121204600F099FC2046BDE81040022117
:100E500000F093BC000402400008024010B50821D5
:100E6000064800F08AFC064C0121204600F085FC73
:100E70002046BDE81040022100F07FBC0004024083
:100E80000008024010B500231A462349234800F009
:100E900052F82248012300221F492C3000F04BF861
:100EA0001E48022300221C49583000F044F81B4819
:100EB000032300221849843000F03DF8184A03212A
:100EC000164806F046FB1548164A03212C3006F05A
:100ED00040FB1248144A0321583006F03AFB0F48F1
:100EE000124A0521583006F034FB0C48104A032101
:100EF000843006F02EFB094806F028FC07482C3009
:100F000006F024FC0548583006F020FC0348BDE8F4
:100F10001040843006F01ABC35740208104F0020CF
:100F2000BD0D0008E50D0008350E00080D0E000887
:100F30005D0E0008FEE72DE9F0410D461E461746FE
:100F400004462C21FFF7A2FCA07820F0F0008030AE
:100F5000A0703046A560A8470146E07861F3C7104D
:100F600067F38610E0702671BDE8F081014800F05B
:100F70009DB90000A4060020014800F097B90000C8
:100F8000D007002001681823CAB2103AB2FBF3F26E
:100F9000054B6FF30901032A9B5CC36500D9091D4A
:100FA000816508467047000078EB020810B50146DD
:100FB00000208B698A6A4FF0C07453B1B3F5005FAB
:100FC00015D072B1012A0CD0022A0AD0032A09D105
:100FD00004E01AB1012A06D0022A03D1C96AC90164
:100FE00000D5012010BDC96AA142FAD010BD002A67
:100FF000F7D0012AF2D0022AF3D0032AF3D010BD91
:1010000030B50468256825F4802525600468636090
:101010008368402B036803D099600068C26030BDCC
:101020009A600068C16030BD704772B6FEE700008C
:1010300078B50024009490F83C20012A19D00122B0
:1010400080F83C200A6807230568092A13D9EE684E
:101050000A3A02EB420293409E43EE600B788A68A4
:101060000A3B03EB43039A400368DD682A43DA60D6
:1010700010E0022078BD2E6902EB420293409E43AD
:101080002E610B788A6803EB43039A4003681D695D
:101090002A431A614A681F23072A13D205686E6B18
:1010A000521E02EB820293409E436E630A8893B203
:1010B0000A79521E02EB820293400268556B2B4361
:1010C000536327E005680D2A12D22E6BD21F02EB64
:1010D000820293409E432E630B790A88DB1F92B2F3
:1010E00003EB83039A4003681D6B2A431A6311E0E4
:1010F000EE6A0D3A02EB820293409E43EE620B7958
:101100000A880D3B92B203EB83039A400368DD6AC1
:101110002A43DA621B4B0568194A9D420AD10D68C1
:10112000122D07D1556825F400055560556845F422
:101130008005556005689D421DD1134D0B68AB427B
:1011400001D0112B17D1536823F4800353605368E7
:1011500043F4000353600968A9420CD10B490C4ABF
:101160000968B1FBF2F101EB8101490000E0491E81
:1011700000910029FBD180F83C40002078BD0000A0
:101180000023014000200140120000103C0000201C
:1011900040420F0070B504004FF0000503D0206CF2
:1011A000002610B107E0012070BD204600F01CF8B9
:1011B000666484F83C60206CC00610D4206C20F477
:1011C000885040F0020020642046FFF763FD66640B
:1011D000206C20F0020040F00100206400E00125B6
:1011E00084F83C60284670BD70B586B00646142170
:1011F0006846FFF74BFB1D493068884234D11C48D4
:101200000025016841F480710160006800F480707D
:10121000059017481438016841F001010160006829
:10122000694600F001000590012000900320CDE9FF
:101230000105104800F0ACF9104C0F48C4E9000556
:101240000015A560C4E90350400060618000A06102
:101250004011C4E907052046656200F0F7F808B1BF
:10126000FFF7E3FEB463A66306B070BD0020014043
:10127000443802400000024010640240A4060020EE
:1012800090F83510022903D0802141650120704774
:10129000052180F835100068016821F00101016026
:1012A0000020704790F83500704700002DE9F843A2
:1012B00004464FF00009CDF8009063484FF41651F2
:1012C000A56D0068B0FBF1F72E6894F85C1008205B
:1012D00000FA01F131420FD021680A6852070BD59C
:1012E0000A6822F004020A6094F85C108840A86042
:1012F000606D40F00100606594F85C104FF00108EB
:1013000008FA01F0304208D021684969090604D57D
:10131000A860606D40F00200606594F85C100420E5
:101320008840304208D021680968890704D5A86040
:10133000606D40F00400606594F85C1010208840F7
:10134000304218D021680968090714D5A8602068C0
:101350000168490304D50068000308D5A16C07E0C3
:101360000168C90503D4016821F008010160216CFE
:1013700009B12046884794F85C102020884030420C
:1013800031D021680968C9062DD5A86094F83500C8
:1013900005282068016806D0490347D50068000386
:1013A0001DD4616C1CE021F01601016020684169C8
:1013B00021F080014161206C08B9A06C20B1206847
:1013C000016821F00801016094F85C103F2088401A
:1013D000A86084F8358084F83490216D1FE0E16BBB
:1013E00009B120468847606D00282BD0606DC0078A
:1013F00014D0052084F835002068016821F001012F
:1014000001600098401C0090B84203D82068006832
:10141000C007F6D184F8358084F83490E16C002957
:1014200010D001B02046BDE8F04308470168C90567
:10143000D5D4016821F01001016084F8358084F86A
:101440003490CCE7BDE8F8833C0000202DE9F04162
:10145000044600F09FF906465CB1022084F835008E
:10146000002584F834502068016821F001010160F2
:101470000DE00120BDE8F08100F08CF9801B05280B
:1014800005D920206065032084F83500F2E7206844
:101490000068C007F0D12268116820480140D4E9F3
:1014A00001031843D4E903363343184363691843EF
:1014B000A3691843E3691843236A18430843616A20
:1014C000042903D1D4E90B131943084310602068A1
:1014D0004069666A20F0070130460E430127042860
:1014E0000CD1A06A0643E06A40B12046FFF75EFDDA
:1014F00020B14020606584F83570BAE72068466105
:101500002046FFF73FFD94F85C203F219140816029
:10151000656584F835700020ACE700003F8010F06E
:101520002DE9F0410446866D90F83400002501282D
:101530000DD0012084F8340094F835700020012F7C
:1015400007D084F8340002252846BDE8F081022047
:10155000FBE7022784F8357060652046FFF750FDF1
:1015600094F85C103F208840B0602068016841F02A
:1015700016010160206C20B12068016841F008016B
:1015800001602068016841F001010160DCE70000B2
:101590002DE9F84FDFF8B8A10022012403254FF010
:1015A0000F090AF1040BAAF1040E00BF0B6804FA3C
:1015B00002F63340B34273D10F7907F00307012FCE
:1015C00001D0022F16D187684FEA420805FA08FCBD
:1015D00027EA0C07D1F80CC00CFA08FC4CEA070CFF
:1015E000C0F808C04768B7430E79C6F300169640A6
:1015F0003E4346600E79F643B6070DD0C7685600E5
:1016000005FA06FC27EA0C07D1F808C00CFA06FC1C
:101610004CEA070CC0F80CC00E7906F00306022E47
:1016200010D1D60800EB8608D8F8206057074FEA9B
:10163000D76C09FA0CF7BE430F6907FA0CF737436A
:10164000C8F8207006684FEA420C05FA0CF7BE4352
:101650000F7907F0030707FA0CF7374307604E6866
:1016600016F4403F6DD03B4E376847F480473760F3
:10167000366822F0030706F480460096364E07EBE4
:10168000060CDCF8086897073F0F09FA07F826EA06
:101690000806DFF8C880404503D14FF000081EE07F
:1016A0004FE0DFF8BC80404502D14FF0010816E062
:1016B000DFF8B080404502D14FF002080FE0DFF8BC
:1016C000A880404502D14FF0030808E0DFF89C8075
:1016D000404502D14FF0040801E04FF0070808FA36
:1016E00007F848EA0608CCF80888DAF80060574698
:1016F000D1F804C09E435FEACC2C00D51E433E6067
:10170000DBF800605F46D1F804C09E435FEA8C2C92
:1017100000D51E433E60DEF800607746D1F804C075
:101720009E435FEA8C3C00D51E433E60084F083F55
:101730003E68D1F804C09E435FEACC3C00D51E430E
:101740003E60521C102AFFF431AFBDE8F88F000054
:10175000083C014044380240003001400000024093
:101760000004024000080240000C02400010024049
:101770000069084000D001207047426921EA020355
:101780000A4043EA0241816170470AB181617047B2
:101790000904FBE701488068704700003000002022
:1017A000704770472DE9F041016804464A694E6868
:1017B00090F83E000025D743FA0506D4F243D2053F
:1017C00003D46FF4807201254A61B90508D4F1434E
:1017D000C90505D422686FF4007145F00205516116
:1017E000790525D4F143C90522D4638D94F83D10C1
:1017F000226B202808D13BB9212910D029290ED0ED
:10180000282901D1212A0AD022686FF48061516110
:1018100045F00405102806D0402804D008E02046F2
:1018200002F090F904E02068016841F40071016061
:10183000380508D4F043C00505D421686FF4006072
:1018400045F008054861002D07D0206C284320642E
:101850002046BDE8F04101F011BDBDE8F0812DE961
:10186000F047026800215368C66A90F83E4090F83D
:101870003D50102C12D0402C10D0046C002C7DD088
:101880005469E443A6077AD4DE43B60577D4036CE3
:1018900003B19169BDE8F04702F030B99769516929
:1018A0004FF42A0CC9435FEAC1784FF02A4904D0AB
:1018B00066452AD04E4528D010E0DE43B6050DD44B
:1018C000C16A614501D1012103E0C16A494501D1E5
:1018D0000821C162BDE8F04701F0A4BF0E0716D48D
:1018E000DE43B60513D4416CC9B21161416B09B135
:1018F000C96B29B9816B002907D0C96B002904D0B5
:101900000068416841F400614160BDE8F0878E07DE
:1019100006D4DE43B60503D4BDE8F04701F0F6BEB9
:10192000FE43526876074FEA02521DD4002AECDBD0
:101930000A0608D4DA43520505D4490705D5BDE89F
:10194000F04701F087BE4907DFD4D9438905DCD4CD
:10195000212D05D0402CD8D1BDE8F04701F0A8BF1B
:10196000BDE8F04701F034BE002ACEDB4A060BD4B6
:10197000DA43520508D4490708D501E00DE00EE02E
:10198000BDE8F04701F0AABD4907BED4D943890597
:10199000BBD4BDE8F04701F034BD916970E7E106C2
:1019A00006D4D943890503D4BDE8F04702F012B943
:1019B0002821212D27D0292D25D0650655D4DD439A
:1019C0006D0552D4640752D590F83D30448D002CFB
:1019D0009BD01269446A2270426A521C4262428D54
:1019E000521E4285428D002A8FD12A2B8DD102684A
:1019F000536823F4806353602222026380F83D1011
:101A000000F0F0FA81E7250623D4DD436D0520D4EC
:101A1000640720D590F83D30448D002CF2D0446A04
:101A200024781461426A521C4262428D521E4285E1
:101A3000428D002AE6D1292BE4D10268536823F4B1
:101A4000806353602122026380F83D1000F0CBFADE
:101A50005BE76107D6D4D9438905D3D4418D0029EA
:101A6000D0D0416A097811610AE06107CAD4D9432C
:101A70008905C7D4418D0029C4D01169426A11700B
:101A8000416A491C4162418D491E41853DE77047CD
:101A900070B5040025D094F83D00002520B984F8E5
:101AA0003C50204600F058FA242084F83D0020687D
:101AB000016821F0010101602068016841F40041E2
:101AC00001602068016821F40041016000F0BAFC67
:101AD0004D4A6168914201D84C4900E04C49884226
:101AE00001D2012070BD4B492368B0FBF1F15E6863
:101AF00026F03F060E435E606368934206D94FF4BA
:101B0000967359434FF47A73B1FBF3F12368491C80
:101B10001E6A26F03F06314319626168914210D86F
:101B20004900401EB0FBF1F2521CC2F30B02042A22
:101B300001D2042022E0B0FBF1F0401CC0F30B0006
:101B40001CE0A268F2B301EBC10303EB0116431ED4
:101B5000B3FBF6F35B1C43F480431B0549D092B3FF
:101B600001EBC10202EB0111401EB0FBF1F0401C81
:101B7000C0F30B0040F4804040F400402168CA6983
:101B80004CF6FF739A431043C861D4E90710014330
:101B90002068026822F0C00211430160D4E9030109
:101BA00001432068826848F2FF339A431143816001
:101BB000D4E9050108432168CA6822F0FF021043F6
:101BC000C86001E00EE016E02068016841F0010104
:101BD00001602564202084F83D00256384F83E5090
:101BE000002070BD01EB4106431EB3FBF6F35B1C06
:101BF000B3E70120C2E701EB4101401EB0FBF1F069
:101C0000401CC0F30B00B7E7A086010080841E00D3
:101C100000093D0040420F00704770477047704711
:101C2000704700002DE9FF4F83B09A46DDE9118728
:101C300093460446DDF84090FFF7ACFD054694F866
:101C40003D00202870D119230122744920460095B7
:101C500002F09AF80028F5D194F83C00012863D0EE
:101C6000012084F83C0020680168C90703D101689D
:101C700041F0010101602068016821F40061016008
:101C8000222084F83D00402084F83E00002626648F
:101C9000C4F82490A4F82A80608D20856048E06212
:101CA000CDE9007553465A462046049901F054FE8A
:101CB000002879D1208DD0B1012821D002282068B8
:101CC00024D0416980690090208D032866D80128BE
:101CD0002BD0544902283B464FF00002009557D0C4
:101CE0008846204602F050F800285DD13AE020688E
:101CF000416981690091016841F4007101607DE0F2
:101D00002068016821F480610160F0E7016821F436
:101D1000806101602068016841F400610160206811
:101D200041698069009069E075E02A46394620469D
:101D300002F0D0F888BB54E02068016841F40071DB
:101D4000016020680069616A0870606A401C606216
:101D5000218D491E2185618D491E61852168096992
:101D6000017042E02068016821F480610160206810
:101D70000069616A0870606A401C6062208D401EC4
:101D80002085608D401E60853B46002241460095BF
:101D9000204601F0F9FF00B9CEE705E02A463946B2
:101DA000204602F097F818B1012007B0BDE8F08F87
:101DB00020680069616A0870606A401C6062208D5A
:101DC000401E81B22185608D401E60852068426979
:101DD000D243520712D4032903D1016821F4806150
:101DE000016020680069616A0870606A401C606276
:101DF000208D401E2085608D401E6085208D00282E
:101E00007FF462AF202084F83D0084F83E6084F8BF
:101E10003C600020C9E70220C7E700000200100074
:101E20000000FFFF040001002DE9FF4F83B09A4638
:101E3000DDE9119793460446DDF84080FFF7AAFCE0
:101E4000054694F83D0020287FD1192301224049FE
:101E50002046009501F098FF002876D194F83C00C8
:101E6000012872D0012084F83C0020680168C9076D
:101E700003D1016841F0010101602068016821F48B
:101E800000610160212084F83D00402084F83E007C
:101E900000262664C4F82480A4F82A90608D20854A
:101EA0002C48E062CDE9007553465A462046049915
:101EB00001F0D0FD70B930E02A463946204602F0E4
:101EC00041F858B1206C042804D12068016841F41D
:101ED00000710160012007B0BDE8F08F606A2168E1
:101EE00000780861606A401C6062218D491E89B2D9
:101EF0002185628D521E628522685369DB435B0730
:101F00000BD469B100781061606A401C6062208D5A
:101F1000401E2085608D401E6085208D0028CBD11D
:101F20002A463946204601F003FF0028CAD154F85A
:101F30003D0B016841F400710160202004F81E0986
:101F4000E67766770020C6E7FFE70220C3E70000D8
:101F5000020010000000FFFF10B586B004461421F7
:101F60006846FEF793FC1C492068884231D11B4823
:101F70000021026842F002020260006800F00200E4
:101F800005904FF4407000901220CDE9010103202C
:101F900003900420049069461148FFF7F9FA0F48AE
:101FA0001030016841F4001101600068002200F463
:101FB0000010059005211F2000F0AEF81F2000F052
:101FC0009DF800220521202000F0A6F8202000F036
:101FD00095F806B010BD00000054004030380240B3
:101FE000000402407047704702488168027811443B
:101FF00081607047300000200B4810B5016841F443
:1020000000710160016841F480610160016841F480
:1020100080710160032000F09FF80F2000F006F8A7
:1020200000F050F8002010BD003C024030B50546DD
:102030001F4887B00024016841F004010160006876
:1020400006A900F00400009001A800F0DBF9049854
:10205000A8B100F0F7F940001649174AB0FBF1F1BA
:102060001648491E026040F2E732C0E90324C0E985
:102070000114846100F066FF040003D015E000F055
:10208000E1F9E9E70D4800F0A9FF04000DD11E2099
:1020900000F034F8102D07D2002229461E2000F04F
:1020A0003BF80748056000E0012407B0204630BD3A
:1020B0004038024040420F000008004078080020ED
:1020C000340000200C4882B0016841F48041016076
:1020D000006800F4804000900748001F016841F04C
:1020E000805101600068002200F0805000900F21B4
:1020F000901E02B000F010B844380240002809DBFE
:1021000000F01F02012191404009800000F1E02011
:10211000C0F8001170470000F0B40E4B1B680C466D
:10212000C3F30223C3F10705042D00D90425191DAB
:10213000072901D2002300E0DB1E012606FA05F183
:10214000491E214099409E40761E16403143F0BC06
:1021500002F097BD0CED00E0064900F007020868A8
:102160004FF6FF03184040EA0220034A104308607C
:10217000704700000CED00E00000FA052DE9F8437F
:10218000044600684FF00109C1074FF0000601D175
:10219000400729D5DFF82081C8F86860FFF7FAFA10
:1021A0000746464D05E000BFFFF7F4FAC01B0228C2
:1021B00059D828680001F7D4A068217B800140EA43
:1021C0000170616808433D4984310860C8F868902F
:1021D000FFF7E0FA074604E0FFF7DCFAC01B02282D
:1021E00041D828680001F7D52078800752D53348B8
:1021F0004030016841F0805101600068304D00F0CE
:1022000080500090286840F480702860FFF7C2FA80
:10221000074604E0FFF7BEFAC01B022823D828684F
:10222000C005F7D5254D7035286810F4407020D0D2
:10223000218A01F4407181421BD02868214920F491
:102240004070C1F800900E6028602868C00710D068
:10225000FFF7A0FA064641F2883707E0FFF79AFA3F
:10226000801BB84202D90320BDE8F88328688007A4
:10227000F4D521691148C1F301220830032A12D094
:10228000016821F4F81101602868218AC1F30B016B
:10229000084328602078000703D50B49207DC1F84A
:1022A000E0010020E0E70268084B22F4F812194030
:1022B0000A430260E8E7000000004742003802409D
:1022C00000700040400E474200104742FFFCFF0FE5
:1022D0002DE9F0470E46050065D0DFF81481D8F8E7
:1022E0000000F7B200F00700B04207D288F8007093
:1022F000D8F8000000F00700B04254D128683D4CE7
:10230000810712D5400703D5206840F4E0502060D3
:102310002878000703D5206840F4604020602068DA
:10232000A96820F0F000084320602878C0072DD06D
:10233000304968680839012812D0022813D00328D0
:1023400011D00968890700292DDA216821F00301DD
:1023500001432160FFF71EFA814641F2883A0EE000
:1023600009688903EFE709688901ECE7FFF712FACA
:10237000A0EB0901514502D90320BDE8F087206890
:10238000696800F00C00B0EB810FEFD1D8F80010B5
:10239000404601F00701B14207D90770006800F01C
:1023A0000700B04201D00120E7E72878400705D5B3
:1023B0002068E96820F4E05008432060287800078E
:1023C00006D52068296920F4604040EAC1002060F9
:1023D00000F048F82168084AC1F30311515CC84075
:1023E0000649086006480068FFF720FE0020C4E7A1
:1023F000003C02400838024080EB02083C0000200C
:10240000340000200F2202600C4A136803F003031B
:102410004360136803F0F0038360136803F4E05330
:10242000C36012684FF4E05303EAD2020261044829
:10243000006800F00700086070470000083802409C
:10244000003C02400448054900680968044AC1F399
:102450008221515CC84070473C000020083802408F
:1024600090EB0208154810B5006810F00C021448F3
:1024700013D04110042A0FD0082A0ED10F4C241F6C
:102480002268236802F03F025B0207D52068C0F390
:102490008810A0FB010106E0084610BD2168C1F3C9
:1024A0008811A1FB00010023FDF774FF2168C1F32F
:1024B0000141491C4900B0FBF1F010BD0838024051
:1024C0000024F4002DE9F84F04006ED02078DFF8E6
:1024D0004C93C007A9F104054AD009F10400016832
:1024E000C1F38101012908D00068C0F381000228EE
:1024F0000AD1D9F80000400206D52868800337D5F4
:1025000060680028E1D033E06068B0F5803F10D00B
:10251000B0F5A02F286810D020F4803028602868FB
:1025200020F4802028606068A8B1FFF733F90646E0
:102530000DE0286840F48030F4E740F48020286003
:10254000F7E700BFFFF726F9801B642873D82868D7
:102550008003F7D50CE0FFF71DF9064605E000BF44
:10256000FFF718F9801B6428F0D828688003F7D497
:102570002078DFF8AC8280074FF0000A3ED5A748EC
:10258000001D016811F00C0F08D00068C0F3810035
:1025900002280BD1D9F80000400207D42868800730
:1025A00016D5E068012800D112E033E1E068B8B147
:1025B0000120C8F80000FFF7EDF8064605E000BF6F
:1025C000FFF7E8F8801B0228C0D828688007F7D5F5
:1025D0002868216920F0F80040EAC10028600DE079
:1025E000C8F800A0FFF7D6F8064604E0FFF7D2F8D7
:1025F000801B02281FD828688007F7D4207800079E
:1026000022D5864F87486169703771B10121016019
:10261000FFF7C0F8064604E0FFF7BCF8801B02286D
:1026200009D838688007F7D50EE0C0F800A0FFF79A
:10263000B1F8064605E082E0FFF7ACF8801B0228FF
:102640007DD838688007F7D42078400768D5DFF850
:10265000CCB100270BF13C0BDBF80000C0000BD421
:10266000DBF8001041F08051CBF80010DBF80000DF
:10267000012700F0805000906B4E3068C00510D4E8
:10268000306840F480703060FFF784F8009005E017
:10269000FFF780F80099401A022850D83068C0052A
:1026A000F6D55E4EA0686C3601280FD0052830683C
:1026B00010D020F001003060306820F0040030605D
:1026C000A068B8B1FFF766F800900FE0306840F0FE
:1026D0000100F4E740F004003060F7E7FFF75AF834
:1026E0000099411A41F28830814266D830688007EB
:1026F000F4D50EE0FFF74EF8009007E0FFF74AF838
:102700000099411A41F28830814256D830688007DA
:10271000F4D42FB1DBF8001021F08051CBF8001079
:10272000A069C8B33D49091D0968C1F381010229A7
:102730004AD00228504607D0C8F8600000E03CE0CC
:10274000FFF728F804463BE04746C8F86000FFF76B
:1027500021F8064605E000BFFFF71CF8801B0228A1
:102760002BD828688001F7D4D4E907010843A16A6F
:102770002E4A490802EB0141626A41EA821108438C
:1027800094F82C1040EA0161C9F800100120386665
:10279000FFF700F8044606E03EE000BFFEF7FAFF50
:1027A000001B022809D828688001F7D534E000BF53
:1027B000FEF7F0FF001B022802D90320BDE8F88FC6
:1027C00028688001F4D427E00128F7D0D9F8000068
:1027D000E26900F4800191421CD1226A00F03F01BD
:1027E000914217D147F6C071626A0140B1EB821F76
:1027F00010D1A26A4FF0FF3300F4403103EB5202D4
:10280000B1EB024F06D194F82C1000F07060B0EBE1
:10281000016F01D00120D1E70020CFE7043802404A
:1028200000004742800E4742007000400000FFFF5A
:1028300010B5040002D0607F10B106E0012010BD89
:1028400000202077204600F041F8022060772068C1
:10285000C168C943C90632D5CA21416221685320E3
:102860004862204601F0C6FD20BB20688168164AF8
:10287000114081602168886862681043D4E90423AC
:102880001A43104388602168E06808612068016984
:10289000228941EA02410161204601F0CFFD48B999
:1028A00021680A6C22F480220A6421680A6CA369F8
:1028B0001A430A642268FF21516208B110BD00204A
:1028C0000121617710BD0000BFFF8FFF10B586B0FA
:1028D000044618216846FDF7D9FF09492068884257
:1028E0000CD102200090000204906846FFF746FCDD
:1028F00008B1FEF79AFB03490120086006B010BD3D
:10290000002800403C0E474270B50446007F0B464D
:10291000012819D00126267702206077B2B1987875
:10292000D97840EA014558781978000240EA4130E8
:1029300005432168CA204862216853204862204626
:1029400001F058FDD0B122E0022070BD5878C106D8
:1029500003D500F0EF000A305870D87801F03EFD42
:102960000204587801F03AFD42EA0022987801F01A
:1029700035FD0243187842EA4035DAE7074805405A
:1029800020684560204601F059FD00B9667722684D
:10299000FF2151620021217770BD00003FFFFF0041
:1029A0002DE9F0410446007F0D46012823D04FF069
:1029B000010884F81C800220607720680027806866
:1029C0004FEA4060D2B1002800DBEF70A878297888
:1029D00040EA01466878E978000240EA81500643FF
:1029E0002168CA204862216853204862204601F0CD
:1029F00001FDB8B12CE00220BDE8F081002800DB29
:102A0000EF70287801F0EAFC0204687801F0E6FC37
:102A100042EA0022A87801F0E1FC0243E87842EAA9
:102A20008056DDE70D480640206806602068816812
:102A300021F480218160D5E90301084321688A6877
:102A400010438860204601F0F9FC08B984F81D8025
:102A50002268FF2151622777CEE700007F7F7F0049
:102A600070B504460B482168C860FEF793FE054622
:102A70004FF47A7607E000BFFEF78CFE401BB042B1
:102A800001D9032070BD2068C0688006F4D50020FD
:102A900070BD00005F3F01007047000038B501685D
:102AA00004464A688868C043430606D5C30704D174
:102AB000D3435B0601D4216C05E0830708D4D343DC
:102AC0001B0605D4616C01B02046BDE830400847C4
:102AD000830603D5430601D5C30551D4D3439B06D2
:102AE0004ED443060AD494F85130032B49D0636D79
:102AF00043F004036365CB688B680093830609D4B5
:102B0000636D43F0010363658B6800930B6823F0EA
:102B100040030B60C00506D4606D40F0080060659E
:102B2000206880680090606D002829D02068416886
:102B300021F0E0014160012084F85100900701D4A8
:102B4000D00722D02068416821F003014160114D77
:102B5000E06C40B10565E06CFEF792FB18B1606D6A
:102B600040F040006065A06C002809D00565A06CAD
:102B7000FEF786FB002803D0606D40F040006065E2
:102B800038BDC8688868009038BD2046FFF784FFCC
:102B900038BD00007544000870B5040009D0606AB3
:102BA000002540B125616561A56294F8510040B1EE
:102BB0000CE0012070BD6068B0F5827FF4D0E56163
:102BC000F2E784F85050204600F044F8022084F8E0
:102BD00051002068016821F040010160A08821892E
:102BE00000F4827001F404410843A18901F40061FA
:102BF0000843217C01F002010843217D01F001011D
:102C00000843218B01F400710843217F01F0380152
:102C1000084394F8201001F080010843218D01F44D
:102C20000051084321680860A069042101EA1040AE
:102C300094F8241001F010010843216848602068CE
:102C4000C16921F40061C1616565012084F851000A
:102C5000002070BD70B586B0064614216846FDF7A9
:102C600015FE24493068884241D123480025016877
:102C700041F480510160006800F4805005901E48C6
:102C80001438016841F0010101600068694600F0F4
:102C900001000590A02000900220CDE9010503204D
:102CA0000390052004901548FEF772FC154C14485B
:102CB00020604FF0806060604020C4E902050001A0
:102CC000C4E90405C001A561C4E907502046656256
:102CD000FEF7BCFB08B1FEF7A8F9B4640022052199
:102CE0002320A663FFF718FA2320FFF707FA06B0A0
:102CF00070BD000000300140443802400000024036
:102D000040640240D00700202DE9F84F984616464F
:102D10008A460446FEF73EFD814694F8510001289C
:102D20001ED1BAF1000F73D0002E71D094F850006C
:102D3000012815D0012784F85070032084F8510031
:102D400000256565C4F830A0A686E686A563A5873C
:102D5000E58765642564A068B0F5004F03D00CE0FA
:102D60000220BDE8F88F2068016821F04001016071
:102D70002068016841F480410160206801684906CB
:102D800003D4016841F040010160E068B0F5006FD4
:102D9000606803D048B3012E27D047E008B1012E68
:102DA0001FD1206B21680088C86006E02068816818
:102DB000890709D5216B0988C160206B801C2063BD
:102DC000E08E401EE0860CE0FEF7E4FCA0EB09017B
:102DD000414503D3B8F1FF3F03D035E0B8F1000F10
:102DE00032D0E08E0028E1D123E0206B216800780A
:102DF000087306E02068816889070AD5216B097885
:102E00000173206B401C2063E08E401EE0860DE0C5
:102E10002BE0FEF7BFFCA0EB0901414503D3B8F15D
:102E2000FF3F03D010E0B8F1000F0DD0E08E002876
:102E3000E0D14A464146204601F06CFB08B1202013
:102E40006065A06830B109E084F8517084F8505092
:102E5000032086E72068C1688068009084F851707C
:102E600004F8505F60680028F3D0012079E7000083
:102E700070B5044690F8510001281CD1C9B1C2B107
:102E800094F85000012816D0012084F85000032047
:102E900084F85100002565652163A286E286A5635A
:102EA00065642564A587E587A068B0F5004F04D068
:102EB0000DE0012070BD022070BD2068016821F086
:102EC000400101602068016841F480410160A16C0B
:102ED00017480864A16C1748C863A16C1648C864F9
:102EE000A06C0565E38E2268216B0C32A06CFEF7A6
:102EF00017FB30B1606D40F01000606584F85050F1
:102F0000D7E720680168490603D4016841F0400111
:102F1000016084F850502068416841F02001416010
:102F20002068416841F002014160002070BD00004E
:102F3000A7440008B1440008854400087047704762
:102F40007047704710B5040003D094F83D0010B1ED
:102F500007E0012010BD002084F83C00204600F06E
:102F60001FF8022084F83D00211D206801F036FE84
:102F7000012084F8460084F83E0084F83F0084F87D
:102F8000400084F8410084F8420084F8430084F84B
:102F9000440084F8450084F83D00002010BD000086
:102FA00008B500680B49884212D10B48016841F40A
:102FB000003101600068002200F40030009005211B
:102FC0001920FFF7A9F8BDE808401920FFF796B8C7
:102FD00008BD0000004401404438024090F83D1014
:102FE000012901D001207047022180F83D100168BD
:102FF000CA6842F00102CA6000680E4988420ED0D9
:10300000B0F1804F0BD00C49884208D00B49884260
:1030100005D00B49884202D00A49884204D1816810
:1030200001F00701062903D0016841F001010160A8
:1030300000207047000001400004004000080040EC
:10304000000C00400040014070472DE9F04104466B
:103050000068C66805694FF00007A90713D5B107D6
:1030600011D5F91E01610120207720688069800751
:10307000204602D0FFF7E8FF04E000F07EF820468B
:1030800000F07CF82777680716D5700714D52168FB
:103090006FF004000861022020772068806910F436
:1030A000407F204602D0FFF7CFFF04E000F065F834
:1030B000204600F063F82777280715D5300713D589
:1030C00021686FF008000861042020772068C0693B
:1030D0008007204602D0FFF7B7FF04E000F04DF86C
:1030E000204600F04BF82777E80616D5F00614D5F1
:1030F00021686FF010000861082020772068C069FF
:1031000010F4407F204602D0FFF79EFF04E000F05D
:1031100034F8204600F032F82777E80708D0F007A7
:1031200006D021686FF001000861204600F028F801
:10313000280608D5300606D521686FF080000861A2
:103140002046FFF7FDFE680608D5700606D5216803
:103150006FF040000861204600F01CF8A8060AD570
:10316000B00608D521686FF0200008612046BDE850
:10317000F041FFF7E6BEBDE8F08170477047000000
:1031800000680349884201D1FEF72EBF7047000056
:10319000000800407047FEE70148FEF703BB00004F
:1031A000040700200148FEF75ABB00000407002076
:1031B00038B5806B002190F83D202B4B46F2A814C7
:1031C0001B68B3FBF4F3C3EBC30303EB830300936C
:1031D0003BB15B1E009303681B689B0505D5009BF4
:1031E000F6E7036C43F020030364436B03B1D96338
:1031F000836B03B1D96303681C6824F480641C608A
:103200004185436B03B11965836B03B1196503688D
:103210001C6824F001041C6090F83D402023602CC1
:103220000BD0282434EA02020FD080F83D3080F819
:103230003E1000BFFEF72BFC38BD80F83D3080F813
:103240003E100164FEF7ACFA38BD0268136843F023
:10325000010313600268136843F480631360016321
:1032600080F83D40E6E700003C000020006841692E
:10327000C943090601D400210161704770B50446B5
:1032800090F83D0094F83E10102901D0402906D155
:10329000222804D121680A6822F400620A602821E9
:1032A00031EA00024FF000054FF0200626D02168D9
:1032B0004968090505D4602803D084F83D6084F886
:1032C0003E50256320684168090537D5416821F4DF
:1032D00000614160606B90F835203C49012A11D0B3
:1032E0000165606BFDF7CCFF38B32068016821F001
:1032F0000101016084F83D60606B1CE0256384F887
:103300003D10DFE7A06B0165A06BFDF7B9FFA0B131
:1033100020684169C943490605D40069616A08709B
:10332000606A401C60622068016821F00101016050
:1033300084F83D60A06B016D884710E094F83D1063
:10334000602910D04169C943490605D40069616A02
:103350000870606A401C60622046FEF798FB206C93
:10336000C1071CD115E084F83D6025644169C9435B
:10337000490605D40069616A0870606A401C606291
:103380002068016821F0010101602046FEF708FA7B
:10339000E5E7810703D4410701D4000704D520687D
:1033A000416821F4E061416094F83D00216C4907D7
:1033B0000BD5282809D10648E062256384F83D60D2
:1033C00084F83E502046FEF727FC70BDB13100085E
:1033D0000000FFFF01684A69D24352050FD46FF421
:1033E00080624A61002140F8301F202242738173BD
:1033F000026942F00402026101730120704700205B
:10340000704710B5C26A438D0168042B06D0438D06
:10341000032B08D0438D022B1DD012E04A6822F402
:1034200080624A600CE04B6823F480634B60042A9E
:1034300006D0022A04D001680A6822F480620A6079
:1034400001680969426A1170416A491C4162418DF3
:10345000491E418510BD012A34D0102A32D0042AD9
:1034600034D0022A32D00B6843F400730B60016839
:103470000969436A1970416A491C4162438D5B1EA8
:10348000438503681B690B70416A491C4162418D89
:10349000491E418501684B6823F440734B6020212D
:1034A00080F83D1090F83E300021402B80F83E100F
:1034B00010D0082A02D0202A00D012210163FEF782
:1034C000ACFB10BD0B6823F48063CFE70B6843F4BB
:1034D0008063CBE70163FEF7A2FB10BD38B590F81F
:1034E0003D10222910D1C36A418D03290DD90168ED
:1034F0000969426A1170416A491C4162418D491E45
:103500004185418D032906D038BDC26A022A02D006
:10351000012906D029B10068416821F48061416029
:1035200038BD2A4A46F2A81400211268B2FBF4F210
:1035300002EB8202009202682024009D6D1E00951D
:1035400026D01568AD05F8D4156825F4806515609A
:103550000268556825F4E065556002681269456A9D
:103560002A70426A521C4262428D521E428580F885
:103570003D4090F83E2080F83E10402A21D0082B94
:1035800002D0202B00D012210163FEF746FB38BD8C
:10359000036C43F020030364536823F4E063536037
:1035A00002681269436A1A70426A521C4262428D72
:1035B000521E428580F83D4080F83E10FEF767FAC3
:1035C00038BD0163FEF72BFB38BD00003C00002036
:1035D00010B5C26A90F83D1021290BD1418D51B12F
:1035E000416A026809781161416A491C4162418D52
:1035F000491E418510BD20230021082A13D0202A0E
:1036000011D012F5803F0ED00268546824F4E064B3
:1036100054601122026380F83E1080F83D3000BFF4
:10362000FEF7FCFA10BD0268546824F4E0645460AC
:103630000268146844F400741460016380F83D303B
:1036400090F83E2080F83E10402AE9D1FEF7E8FAD3
:1036500010BD000010B590F83D1090F83E30C26AE1
:10366000048DB4B1212903D0402B11D122290FD1CF
:10367000418DE1B390F83E10402942D0416A026882
:1036800009781161416A491C4162418D491E418599
:1036900010BD2129E8D120230021082A13D0202A97
:1036A00011D012F5803F0ED00268546824F4E06413
:1036B00054601122026380F83E1080F83D3000BF54
:1036C000FEF7ACFA10BD0268546824F4E06454605C
:1036D0000268146844F400741460016380F83D309B
:1036E00090F83E2080F83E10402AE9D100E002E048
:1036F000FEF796FA10BD0068416821F480614160D0
:1037000010BDBDE8104000F0D3B8000078B590F8C7
:103710003E50C26A036B90F83D6000240168222E7F
:103720007AD1066D0EB9402D76D0056D1DB90569AB
:10373000B5F5404F09D0458D05B3468D384D012E66
:103740000ED0438D022B3AD05DE04A698A6900921F
:103750000A6842F480720A60016D491C016578BDF7
:10376000AA4213D10A6822F480620A6001684A689A
:10377000120503D50A6822F4806216E04A698A6954
:1037800000920A6842F400720A6039E0082A10D0F8
:10379000202A0ED0122B0AD0042A03D0022A01D0EC
:1037A000102AE7D10A6842F480620A6024E0012A04
:1037B000E0D00A6822F480620A600168DEE7042A29
:1037C00021D0022A1FD0102A1DD00B6823F4806359
:1037D0000B6001680B6843F400630B6001684B6881
:1037E0001B0509D5AA4212D0012A10D0082A0ED0F2
:1037F000102A0CD0202A0AD001684A6989690091F0
:10380000046578BD08E00B6843F48063E5E74A6827
:1038100042F480524A60EFE7486988690090F0E717
:103820000000FFFF90F83E10402910D00169B1F56B
:10383000804F19D0016DA9B3016D012910D1416CE0
:103840005FF0F10201F4407142EAD11106E0016D2E
:103850000029416C05D0C9B241F001010068016145
:10386000704701F0FE01F9E790F83D102129416C05
:1038700009D0C9B241F0010102681161416B29B15F
:10388000C96B49B902E001F0FE01F5E7816B00293F
:10389000E6D0C96B0029E3D00068416841F40061BB
:1038A00041607047FFE7416CF02201F44071CBE7C3
:1038B00010B590F83D10026D4AB1026D012A14D086
:1038C000026D022A16D0BDE81040FFF7CFBCC16CD4
:1038D0000129816C02D0C1F3072108E00268C9B256
:1038E0001161016D891C016510BD816CC9B202684E
:1038F000116123E022291CD0428D0AB1212920D058
:10390000428D002AF0D12129EED101684A6822F4C3
:10391000E0624A6001680A6842F400720A600021AD
:103920000163202280F83D2080F83E10FEF778F9F0
:1039300010BD01680A6842F480720A60016D491C7A
:10394000D1E7416A026809781161416A491C416204
:10395000418D491E418510BD2DE9F84F0446006890
:1039600089460B9D01689846174641F480610160C5
:103970002068016841F48071016000954FF0011BDF
:103980000022594620460A9B00F0FEF94FF4007AC7
:1039900040B120680068C00501D5C4F840A00320EC
:1039A000BDE8F88F216809F0FE0008612B46284920
:1039B00020460A9A00F030FAF0BB2068416980691D
:1039C00000902A4620460A9900F0BCFA40B1206CCB
:1039D00004283AD12068016841F40071016034E0A4
:1039E000FEB2B8F1010F09D02168380A08612A46F1
:1039F00020460A9900F0A6FA0028E8D1206806615E
:103A00002A4620460A9900F09DFA0028DFD1206856
:103A1000016841F4807101600095002259462046FA
:103A20000A9B00F0B1F90028B3D1216809F0FF002A
:103A300040F00100086100E007E02B460449204601
:103A40000A9A00F0E9F90028AAD00120A8E70000AE
:103A5000020001002DE9F843044600680D46DDE947
:103A6000089701689846164641F4807101604B46FC
:103A700000224FF001112046009700F085F948B16F
:103A800020680068C00502D54FF400702064032050
:103A9000BDE8F883216805F0FE0008613B464A4610
:103AA0001549204600F0B8F988B920684169806955
:103AB00000903A464946204600F044FA48B1206C4E
:103AC000042804D12068016841F4007101600120DC
:103AD000DEE7F5B2B8F1010F09D02168300A0861BC
:103AE0003A464946204600F02DFA0028E7D12068E2
:103AF00005610020CCE700000200010038B50C464B
:103B000090F83D2000212825954302680B4605D0FA
:103B100051699169009180F83C3038BD556825F4B1
:103B200080655560E243540700D50121120601D596
:103B3000828900E0028B80F83C3092B2FDF731FEC2
:103B400038BD00002DE9F04190F83D300446C26ACE
:103B5000002120261E4F00686FF48065082A01D0DE
:103B6000202A01D1282B04D0212B17D04561BDE894
:103B7000F081E762426822F4E062426020684561B9
:103B80002068026822F480620260216384F83D604C
:103B900084F83E102046FEF73FF8E8E7E76221226E
:103BA000226384F83D6084F83E10416821F4E061AE
:103BB0004160206845612068016821F480610160EE
:103BC0002046FFF753FB2046FEF70DFACFE7000033
:103BD0000000FFFFF8B590F83D60044600684168BA
:103BE00021F4E0614160206800254169009101688D
:103BF00041F0010101602068016821F480610160E9
:103C000020684168090520D5474F222E48D02A2E2A
:103C100046D0616B096849686185618D19B1216C75
:103C200041F004012164416821F400614160606B4E
:103C3000FDF738FB012808D0606B0765606BFDF766
:103C40001FFB10B1606B016D8847608D08B3206861
:103C50004169C943490708D40069616A0870606A0C
:103C6000401C6062608D401E608520684169C943C8
:103C7000490608D40069616A0870606A401C606285
:103C8000608D401E6085608D18B1206C40F004008E
:103C90002064206C00B32046BDE8F840FFF7EEBA80
:103CA000A16B096849686185618D19B1216C41F08A
:103CB00004012164416821F400614160A06BFDF7BB
:103CC000F1FA0128C1D0A06B0765A06BFDF7D8FA07
:103CD0000028BAD0A06BB6E72A2E06D1256328208B
:103CE00084F83D002046FEF77DF994F83D10202031
:103CF00028290DD0216B222901D0222E07D125633E
:103D000084F83D0084F83E502046FEF76BF9F8BD7C
:103D10000649E162256384F83D0084F83E50204660
:103D2000FDF77AFFF8BD0000B13100080000FFFF89
:103D300070B516460D4604461EE02046FFF74AFBC6
:103D400008B1012070BD681C16D0FDF723FD801B53
:103D5000A84200D885B920684069C04340070BD508
:103D6000002044F8300F20216173A073216941F0D5
:103D7000200121612073E4E720684069C0434007C7
:103D8000DBD4002070BD00002DE9F04798461746AF
:103D90000D460446C1F30746DDF820902AE000BF37
:103DA000B8F1FF3F26D0FDF7F5FCA0EB0901414536
:103DB00002D8B8F1000F1DD12068012E16D08069FD
:103DC00025EA00000004000C12D00020B84211D1F6
:103DD000002044F8300F20216173A073216941F065
:103DE0002001216120730120BDE8F0874069E7E7E9
:103DF0000120EBE72068012E0AD0806925EA000047
:103E00000004000C06D00020B842C9D00020EBE727
:103E10004069F3E70120F7E72DE9F0479846164699
:103E20000D4604464FF000094FF0200AC1F3074742
:103E300023E020684069C043400515D4206801682C
:103E400041F40071016021686FF480604861C4F83A
:103E5000309084F83DA084F83E90216C41F004013C
:103E6000216484F83C9021E0701C06D0FDF792FCA0
:103E7000A0EB0800B04203D816B1012F1FD021E0FB
:103E80002068012F15D0806925EA00000004000C8D
:103E900018D000BF44F8309F84F80DA084F80E902D
:103EA000216941F02001216184F80C900120BDE8D6
:103EB000F087406925EA00000004000CEAD1206880
:103EC000406901E02068806925EA00000004000CD8
:103ED000AFD1ECE72DE9F041002590460E460446AF
:103EE000202728E04069C043C0060CD454F8301B9A
:103EF0006FF01000486144F810596777A577206A81
:103F00002062257714E0FDF745FCA0EB0800B042E5
:103F100000D886B920684069C04340060BD544F8F4
:103F2000305F6773A573206940F02000206125731E
:103F30000120BDE8F08120684169C9434906D1D418
:103F40000020F6E770B516460D4604461EE02046F2
:103F5000FFF740FA08B1012070BD681C16D0FDF7CC
:103F600019FC801BA84200D885B920684069C0436D
:103F700000060BD5002044F8300F20216173A07398
:103F8000216941F0200121612073E4E72068406944
:103F9000C0430006DBD4002070BD000010B5002037
:103FA0002DED028B82B00090684600F03FF89DF83E
:103FB00000409FED138BE0090ED19DF80110E00049
:103FC00000EB51102AF05BFC53EC182B2AF06EFC2E
:103FD00041EC100BE0090ED0E0009DF80110A0F5B7
:103FE000806000EB51102AF04AFC53EC182B2AF0A9
:103FF0005DFC41EC100B02B0BDEC028B10BD00006B
:10400000000000000000C03F1FB500208DF80C002C
:10401000012103A864228DE807000B460A4690217F
:104020000148FDF701FF1FBD040700200EB5022265
:10403000CDE900026421029101230022902102486F
:10404000FDF7F0FD0EBD0000040700207FB5002441
:1040500015480094019402941249039401604FF4AE
:104060000031C0E901140461047680F820400F4952
:10407000C0E90A140125C561C46080F8305045616B
:10408000FDF788F808B1FCF7D0FFCDE90045694697
:1040900005480295FCF7CCFF002801D0FCF7C5FFCE
:1040A0007FBD0000002001405C0600200100000FE1
:1040B0000D4808B5016841F48001016000680022E4
:1040C00000F48000009005213820FEF725F8382004
:1040D000FEF714F8002205213A20FEF71DF8BDE88E
:1040E00008403A20FEF70AB83038024010B5B4B0A4
:1040F00000203190329031A822F042FD274C1C2242
:104100002749E0616846FCF76DFB0021684622F014
:1041100099FD234920601C221C3107A8FCF762FB93
:10412000002107A822F08EFD1D4960601C22383155
:104130000EA8FCF757FB00210EA822F083FD1849BA
:10414000A0601C22543115A8FCF74CFB002115A8D7
:1041500022F078FD1249E0601C2270311CA8FCF7A7
:1041600041FB00211CA822F06DFD0D4920611C229D
:104170008C3123A8FCF736FB002123A822F062FD36
:10418000074960611C22A8312AA8FCF72BFB0021FB
:104190002AA822F057FDA06134B010BD1000002005
:1041A000B4EA02082DE9F04387B014216846FCF711
:1041B0006DFB33480024016841F00401016001688F
:1041C00001F004010591016841F08001016001687E
:1041D00001F080010591016841F001010160016871
:1041E00001F001010591016841F0020101600068E0
:1041F000244F00F002000590002283213846FDF78D
:10420000C4FADFF88490002212214846FDF7BDFA77
:10421000DFF8788044F24106002231464046FDF73F
:10422000B4FA832000900125CDE90154694638464F
:104230000394FDF7ADF912200090CDE901546946D1
:1042400048460394FDF7A4F90096CDE90154694668
:1042500040460394FDF79CF94FF48760CDE90004D4
:10426000694640460294FDF793F92802CDE900041F
:10427000694648460294FDF78BF907B0BDE8F08324
:1042800030380240000802400000024000040240B2
:104290000D4810B50B4901600C49416000214FF4F5
:1042A00080428160C0E9031241618161C1610162A4
:1042B000FDF7EEFB002803D0BDE81040FCF7B5BECB
:1042C00010BD00000054004004070020A08601003B
:1042D00010B586B014216846FCF7D8FA1D480024B2
:1042E0001B490594C0E900147F218160FF21C0E9CA
:1042F000031444618461FEF79BFA08B1FCF795FE54
:1043000010208DF800008DF801408DF802400394D4
:10431000012269460F480494FEF742FB08B1FCF7FE
:1043200084FE03208DF814008DF8150005208DF80B
:10433000160025208DF81700012205A90548FEF773
:10434000E3FA002801D0FCF770FE06B010BD0000B3
:104350000028004058070020114810B50F4901609F
:104360004FF4827141604FF40041816000210222CC
:10437000C0E90312012242615202C0E90621016232
:10438000416281620A21C162FEF706FC002803D067
:10439000BDE81040FCF749BE10BD000000300140F0
:1043A000780700200B4810B50949016031214160B0
:1043B000002142F20F72C0E9021201618161FEF731
:1043C000C1FD002803D0BDE81040FCF72EBE10BD93
:1043D0000044014030080020FEE7FEE7002102E033
:1043E0000A38C0B2491C0A28FAD2090740EA11600B
:1043F000704700002DE9F041044600680025C168BF
:10440000490618D4C16841F08001C160FDF7C2F9C6
:1044100006464FF47A78042707E000BFFDF7BAF9A3
:10442000801B404501D9677701252068C068400698
:1044300001D4002DF2D02846BDE8F08170B50446C5
:1044400000680025C16821F08001C1602068806893
:10445000800606D42046FEF703FB10B104206077E7
:104460000125284670BD00000148FEF717BB00007B
:104470007807002010B5806B0021C187C186FEF748
:104480000BFB10BD10B5806B01684A6822F0030277
:104490004A60416D41F010014165012180F85110E1
:1044A000FEF7FAFA10BD10B5806BFEF748FD10BD9F
:1044B00038B50546846BFDF76DF90246286800683B
:1044C000C00523D42068416821F0200141602068A4
:1044D000416821F0020141606421204600F01AF891
:1044E00018B1606D40F020006065A068002118B927
:1044F0002068C26880680090E186012084F851003D
:10450000606D18B12046FEF7C7FA38BD2046FEF7A9
:1045100015FD38BDF8B515460E460B46009204460B
:104520000122022100F02CF8A0B9134813490068B9
:10453000B0FBF1F04FF47A71484300906068B0F539
:10454000827F0DD13346002280212046009500F065
:1045500017F870B1606D40F0200060650320F8BD71
:10456000009830B1401E009020688068C04300066B
:10457000F6D50020F8BD00003C00002000366E019A
:104580002DE9F8431E46914688460446089DFDF7EE
:1045900001F9401B351AFDF7FDF80746254800686C
:1045A000C0F3CB30684338E0701C37D0FDF7F2F829
:1045B000C01BA84203D215B1009860B32CE020685C
:1045C000416821F0E00141606068B0F5827F0BD165
:1045D000A068B0F5004F02D0B0F5806F04D120681C
:1045E000016821F040010160A06AB0F5005F09D1C7
:1045F0002068016821F4005101602068016841F4DD
:1046000000510160012084F85100002084F850001E
:104610000320BDE8F8830025401E009020688168D3
:1046200038EA010004D000214945BDD10020F0E75F
:104630000121F9E73C0000202DE9F047141A641C21
:10464000A6B25C1A641CDDF82080A4B2F0283AD22D
:10465000B1F58C7F37D200F013F9DFF870900022AB
:1046600010214846FDF791F8012280211848FDF7F6
:104670008CF866434FF49667002517E0741BBC4224
:1046800001D200200BE03C4600202A1838F8121016
:104690000A0A42EA01210F4A22F81010401CA042E7
:1046A000F3D321460B4800F0C9F92544B542E5D3C0
:1046B0000949C88E0028FCD14846BDE8F0470122D0
:1046C0001021FDF762B8BDE8F0870000000002404D
:1046D00000080240B0450020780700202DE9F04195
:1046E0000746002140F21713EF22084600F0C8F8F1
:1046F0000E4E002210213046FDF747F800244FF4FB
:1047000096652A4639460A4822F034F82946084870
:1047100000F094F9641CA4B2382CF2D33046BDE802
:10472000F04101221021FDF730B8000000000240E6
:10473000B04500201FB54FF416614548FCF784F8DA
:104740000A2022F011FA434C002240212046FDF7B6
:104750001CF80A2022F008FA012240212046FDF729
:1047600014F8142022F000FA3A2000F0DFF8552067
:1047700000F044F9B22000F0D9F837A1D1E90001E6
:10478000CDE900010521684600F0F0F8022000F0B4
:10479000B5F8B72000F0CAF8352000F02FF9BB209B
:1047A00000F0C4F8322000F029F9C02000F0BEF873
:1047B0002C2000F023F9C22000F0B8F8012000F00E
:1047C0001DF9C32000F0B2F8152000F017F9C4203D
:1047D00000F0ACF8202000F011F9C62000F0A6F897
:1047E0000F2000F00BF9D02000F0A0F8A42000F07A
:1047F00005F9A12000F002F9E02000F097F818A0D8
:104800000FC88DE80F000E21684600F0AFF8E120D8
:1048100000F08CF816A10FC98DE80F000E21684634
:1048200000F0A4F8212000F081F8112000F07EF8BB
:10483000132000F07BF8292000F078F8962022F071
:1048400093F904B00020BDE81040FFF747BF000017
:10485000B0450020000402400C0C0033330000007F
:10486000D0080E09090531334817141531340000FA
:10487000D0080E09091531334817141531340000DA
:104880002DE9F843DFF8708016460D4607461C46B2
:10489000002210214046FCF778FF2A2014341435FA
:1048A00000F044F8380A8DF800008DF80170300AE5
:1048B0008DF802008DF803600421684600F056F878
:1048C0002B2000F033F8280A8DF800008DF80150F5
:1048D000200A8DF802008DF803400421684600F09C
:1048E00045F82C2000F022F84046BDE8F8430122AC
:1048F0001021FCF74ABF00000000024010B504463A
:10490000362000F013F854B1012C0AD0022C0AD042
:10491000032C0AD16020BDE8104000F06FB8C02021
:10492000F9E7A020F7E70020F5E710BD31B50C4C02
:10493000002210212046FCF728FF00228021094890
:10494000FCF723FF4FF0FF33012269460648FEF7CC
:10495000DBF9012210212046FCF717FF38BD0000CB
:104960000000024000080240780700202DE9F05FB7
:10497000DFF878B00C460646002210215846FCF7B6
:1049800004FF012280211A48FCF7FFFE4FF4803813
:104990004FF6FF7A174FDFF860901DE0444501D3D2
:1049A000504600E0204685B23888A0420BD82A46FF
:1049B00031461148FEF75CFAD9F8480090F83510F6
:1049C0000129FBD106E04FF0FF332A4631460A4861
:1049D000FEF79AF92E44641B002CDFD15846BDE83F
:1049E000F05F01221021FCF7D0BE00000000024061
:1049F00000080240AC0000207807002031B50C4CC4
:104A0000002210212046FCF7C0FE01228021094827
:104A1000FCF7BBFE4FF0FF33012269460648FEF764
:104A200073F9012210212046FCF7AFFE38BD0000CB
:104A30000000024000080240780700204900FFF70C
:104A400095BF642022F090F8FBE710B5012022F01A
:104A50008BF8FBE770B5054C40F6B83501212046D0
:104A6000FCF78BFE284622F07FF8F7E700040240AF
:104A700017F0ECFC1DF054FF1DF078FF0C4825F0FA
:104A8000B1FF0B480BF097FA094803F06FFF094C90
:104A90004FF0FF352946206822F0A2F820F0D0FE22
:104AA000206822F075F80A2022F05EF8F2E7000094
:104AB000340300202C00002010B5012022F054F80F
:104AC000FBE70000FFF7A0FA054C4FF4FA7500BFB2
:104AD000FFF764FA84ED020B284622F045F8F7E769
:104AE00000000020FCF7CEF902F042FE052022F083
:104AF0003BF8F9E710B5502080F31188BFF34F8FD2
:104B0000BFF36F8F29F0C0FC18B104494FF08050FB
:104B10000860002080F3118810BD000004ED00E063
:104B200030B593B030216846FBF7B0FE14210CA8D5
:104B3000FBF7ACFE1D480024016841F08051016084
:104B4000006800F0805011901948016841F440411C
:104B500001600068102100F4404011900A2000908C
:104B60000120CDE903010225CDE905050820CDE9A5
:104B700007406420CDE9090504200B906846FDF745
:104B8000A1FC08B172B6FEE70F20CDE90C054FF489
:104B90008050CDE90E4003210CA81094FDF798FB3E
:104BA000002801D072B6FEE713B030BD4038024095
:104BB000007000400248016841F4700101607047D4
:104BC00088ED00E00148FEF740BA00003008002000
:104BD0000148FEF73ABA000078080020F0B50268F4
:104BE000204B214C9F03214D214E984207D0B842C3
:104BF00005D0A04203D0A84201D0B04204D122F097
:104C0000700C4A6842EA0C02984210D0B8420ED0AA
:104C1000A0420CD0A8420AD0B04208D0154CA04205
:104C200005D0154CA04202D0144CA04203D122F46E
:104C30004074CA6822434C6922F080022243026019
:104C40008A68C2620A688262984201D10969016376
:104C5000012141610169C90703D0016921F0010106
:104C60000161F0BD00000140000400400008004068
:104C7000000C004000400140004401400048014059
:104C8000FEE70907090E002804DB00F1E02080F8A8
:104C90000014704700F00F0000F1E02080F8141DB0
:104CA000704770B5044600256FF02F0608E02068B5
:104CB000411C2160007805EB850106EB4101451898
:104CC0002068007800F004F80028F0D1284670BD74
:104CD0003038092801D8012070470020704730384B
:104CE0000A2801D2012070470020704710B54421E6
:104CF000074800F027FF00221E21064820F068FD2B
:104D0000054CA06002F014F80020207010BD0000D7
:104D100058560020E56D00081C0200202DE9F047E0
:104D20000E46814617461146304600F01CF94FF0FA
:104D3000FF3A00287DD000223946304600F0BFF807
:104D400000284FF0000075D1B6F90480B6F90030A4
:104D50005246A8EB0301491C0AFA81F10FFA81FAC5
:104D6000B6F906C0B6F90210ACEB010C0CF1010C5F
:104D700002FA8CF2B7F802C012B2ACEB010C0FFAD7
:104D80008CFCBCF1000F0EDD63F30F0468F30F051C
:104D900001EB0C0061F31F4460F31F45C9F80040AC
:104DA0000120C9F80450B7F906107388CB1AD21A3B
:104DB00012B2002A13DDB6F9063099420FDA3388B1
:104DC00063F30F04B38861F31F4463F30F051144C9
:104DD00061F31F4509EBC001401C0C604D60B7F941
:104DE0000220B6F902108A4200DD1146B7F90630FA
:104DF000B6F90620934200DA1A463B88B6F900C09D
:104E0000521AA3EB0C031BB212B2002B10DD002AC6
:104E10000EDD634463F30F058B1863F31F456CF3DA
:104E20000F0409EBC00361F31F441C605D60401C6C
:104E300001E01AE017E0B7F9043036889F1BAAEBAF
:104E4000070636B2002E0EDD63F30F0461F31F4434
:104E5000334463F30F05114461F31F4509EBC001AF
:104E6000401C0C604D60BDE8F0875046FBE770B514
:104E7000B1F90030B2F90040A34200DC23460380C0
:104E8000B1F90250B2F90240A54200DD2C4644803F
:104E9000B1F90460B2F90450AE4200DA35468580BB
:104EA000B1F90610B2F90620914200DB1146C1802B
:104EB0000120AB4201DC8C4200DD002070BDF8B562
:104EC0000D460446B0F90000B1F9001016468842BC
:104ED00047DBB4F90210B5F90220914241DBB4F985
:104EE0000410B5F9042091423BDCB4F90610B5F981
:104EF0000620914235DC96B3ADF800006088ADF82D
:104F0000020032466946284600F099F8002827D06A
:104F1000A088ADF800006088ADF80200324669460E
:104F2000284600F08CF800281AD02088ADF8000040
:104F3000E088ADF8020032466946284600F07FF866
:104F400000280DD0A088ADF80000E088ADF8020080
:104F500032466946284600F072F8002800D0012049
:104F6000F8BD0020F8BDB0F90020B1F904309A4234
:104F700013DCB0F90420B1F900309A420DDBB0F92E
:104F80000220B1F906309A4207DCB0F90600B1F907
:104F90000210884201DB0120704700207047F8B5FD
:104FA0000D460446B0F90400B1F9001016468842D7
:104FB00043DBB4F90600B5F9021088423DDBB4F9D1
:104FC0000000B5F90410884237DCB4F90210B5F9D5
:104FD0000620914231DC76B3ADF800006088ADF870
:104FE000020032466946284600F029F818BBA0881E
:104FF000ADF800006088ADF80200324669462846E8
:1050000000F01DF8B8B92088ADF80000E088ADF8D0
:10501000020032466946284600F011F858B9A088C7
:10502000ADF80000E088ADF8020032466946284637
:1050300000F005F808B10020F8BD0120F8BD2DE909
:10504000FC4114460E46B1F90020B0F900100546A7
:105050008A423ADBB5F90400824236DCB6F90270C6
:10506000B5F90220974230DBB5F906309F422CDCBF
:10507000002C75DD401A9A1A401C521C00B212B264
:1050800000EBD07002EBD27240105210904200DB65
:105090001046844200DD0446ADF800102888002246
:1050A0002044ADF804006888ADF8020068883146F5
:1050B0002044ADF806006846FFF7C1FF40B1BDF8D7
:1050C00004002044ADF804003FE00020BDE8FC816E
:1050D000E8880022001BADF80200E888ADF8060061
:1050E00031466846FFF7ABFF28B1BDF80400204405
:1050F000ADF8040011E0A8880022001BADF8000004
:10510000A888ADF8040031466846FFF798FF50B113
:10511000BDF80000001BADF80000BDF80200001B48
:10512000ADF8020016E06888ADF802006888002239
:105130002044ADF8060031466846FFF780FF70B1A5
:10514000BDF80000001BADF80000BDF806002044CB
:10515000ADF80600314668461DF0C6FBB6E7FFE72E
:105160000120B3E710B5B1F90040B2F900309C421C
:1051700000DA23460380B1F90240B2F902309C42C2
:1051800000DA23464380B1F90440B2F904309C426E
:1051900000DD23468380B1F90610B2F90620914262
:1051A00000DC1146C18010BD2DE9FC41054620F010
:1051B000ABFA00267D4C074600960DB1E86801E089
:1051C00012F06EF8606000691DF08AFA606840694C
:1051D00008B11DF085FA6068C0691DF081FA606849
:1051E000006A1DF07DFA6068016991B11DF030FC24
:1051F00022F086FE22F0ACFB6068B0F85011E1B3FB
:105200000068017CC9071ED0C0684068D8B100257D
:1052100014E0A0F85061BDE8FC81411991F830110B
:1052200051B900F5AC7000F0E4FC616801EBC50118
:105230000A6B0260496B41606D1CADB26068B0F8EA
:105240005011A942E9D860684FF48071303018F0ED
:10525000E5FD6068202100F5987018F0DFFD6068BA
:10526000A0F85061384620F049FA00906068006864
:10527000436A13B122680099984718F04DFC00F07A
:10528000CFF800F0A1F84A4D6F69EFBB12F008F8B3
:1052900012F034F817F0ACFA074600227F211DF017
:1052A000B5F800221146104611F01DFB0190BDF823
:1052B0000410002238461DF093F8FF2211461046D4
:1052C00011F011FB0190BDF80410002238461DF0CA
:1052D00061F90022032138461DF048F9002203211C
:1052E00038461DF034F90022032138461DF034F908
:1052F0000022032138461DF034F9002203213846EC
:105300001DF043F92BA100E009E0384618F0F6F84B
:1053100000231A460621384619F06CF96F61286897
:1053200020F0ECF9B0F5967F0DD2206841F288317B
:1053300088427FF670AF6868009908446860A86882
:10534000401CA86067E720F0DFF9286060684068CB
:1053500028B100684FF47A71B1FBF0F000E0212031
:10536000696809B901216960A968E1B14FF47A72ED
:1053700051436A68B1FBF2F46E60AE60844200D9BA
:105380000446286920442861E868401CE86020F051
:1053900051FAC0F1640302B022463846BDE8F0413C
:1053A00005A118F0E2B80446E6E70000DC000020A2
:1053B000C04F00203F0000002575204650530A25AD
:1053C000752525204350550070B50A4D002400BFB7
:1053D000C4EBC40655F8260008B118F011FC05EB23
:1053E00086001C2118F01AFD641CE4B2042CEFD3D3
:1053F00070BD000034570020084949680AE04A6837
:10540000824202D00A68824203D10A7E42F001023F
:105410000A7649690029F2D170470000B0000020E7
:10542000704700000421014800F08CBB4C5600205E
:105430002021014800F086BB645600202DE9FF4181
:105440000446DDE90A671D004FF0000002D1B6F501
:10545000807F2BD0039001900290ADF80C1000904B
:10546000ADF80410ADF80A20ADF80E203B463246E8
:10547000294668461DF098F93B463246294601A860
:105480001DF092F93B463246294602A81DF08CF9E0
:105490003B463246294603A81DF086F9BDF90000B7
:1054A000BDF90430984209DA054608E02080491E1B
:1054B0006080A180521EE280BDE8FF811D46BDF9DB
:1054C0000820BDF90C108A4201DA164600E00E46AB
:1054D000B54203DA984206DB184604E08A4201DA54
:1054E000104600E00846801E2080BDF90030BDF95E
:1054F0000420934201DD1D4600E01546BDF9080079
:10550000BDF90C10884201DD064600E00E46B542AA
:1055100005DD934201DD194604E0114602E08842B0
:1055200000DD0146891CA180BDF90230BDF90620CD
:10553000934201DA1D4600E01546BDF90A00BDF9A7
:105540000E10884201DA064600E00E46B54205DA42
:10555000934201DA194604E0114602E0884200DA7B
:105560000146891E6180BDF90230BDF906209342D3
:1055700001DD1D4600E01546BDF90A00BDF90E101B
:10558000884201DD064600E00E46B54205DD934245
:1055900001DD194604E0114602E0884200DD0146C3
:1055A000891CE18088E700002DE9F04115460E4690
:1055B0000746114C20F0A8F880462B463246394663
:1055C000204616F04FFB20B10020A062E06950B1E8
:1055D00010E02C21204618F021FC4FF00040A06282
:1055E0000020BDE8F081404620F088F8E06108B96D
:1055F0000120E0612046F4E78856002010B5142110
:10560000074800F09FFA16F0F3FA40B1054901602F
:1056100005494160054981600549C16010BDFEE74B
:1056200070560020C5B5010841B9010811BB010839
:1056300091B5010870B50D4604461021284618F0B2
:10564000EDFB20680078012804D0022807D0042848
:1056500007D008E0A08A2880E08A688003E0E0683C
:1056600000E00A20686020684268002A03D02946CA
:10567000BDE87040104770BD2DE9FE430446808AA6
:1056800010B9E08A002874D0D4F82C805FEA0800B2
:1056900010D120460AF0F5FF5FEA000869D02046E5
:1056A0000DF08CFB00220921404615F0CDF9607801
:1056B00080075ED44FF4807900274E46454600218E
:1056C00028461BF041F8384407B2002128461BF059
:1056D00059F8C11700EB1160001210FB06F006B27A
:1056E00028461AF013F80500E9D10FB94E450CD041
:1056F000784201B24FF4803090FBF6F002B26B4674
:1057000004F1140000951DF04FF8ADF80450ADF809
:10571000085094F8400000F00F000328404616D0CF
:105720001AF046F90646404619F0FCFF03460C20E5
:105730000090B4F91610324640460AF0EBFAADF884
:10574000080040461AF040F8C10713D018E01AF0DC
:10575000C3F8064640461AF05FF802460320009060
:10576000B4F91410334640460AF0D4FAADF80400F8
:10577000E7E736E0BDF90410002901DDADF804507B
:10578000810705D4BDF90410002901DAADF80450F1
:10579000410705D4BDF90810002901DDADF8085016
:1057A000000705D4BDF90800002801DAADF808505B
:1057B00002AA01A9204623F0BDFABDF90820BDF9CF
:1057C0000410404600F08AFA6078800709D4208BE4
:1057D000BDF8041008442083608BBDF8081008440D
:1057E0006083BDE8FE832DE9FC5F0446C06A5FEA82
:1057F000000B71D094F8400000076DD016F0C4FC87
:10580000019000684021457E58461BF0EDF84FF0AE
:10581000000818B9A4F81E80A4F81C8058461AF095
:10582000B9F8824658461AF0BCF8064694F840008B
:105830004FF0640900F00F000C2802D003284CD070
:105840009AE0A4F81C8056B1B4F91E50002716F057
:105850009BFC00684946407EC0F1640022E0E08B7A
:10586000C5F1640110FB01F191FBF9F0E0835846AA
:1058700019F058FF054658461AF09AF802460C20CF
:105880000090B4F91E102B4658460AF043FAE08304
:10589000024600231EE07A1917B210FB05F292FBB4
:1058A000F1F215B2002DF6D1ADF80070A4F81E800B
:1058B0006A460021204623F03DFA41F6FF72BDF909
:1058C0000030514258460BF073F8BDF80010012328
:1058D000084402B200214CE09AE0A4F81E80BAF11C
:1058E000000F0AD0B4F91C50002716F04DFC0068D8
:1058F0004946407EC0F1640022E0A08BC5F16401FE
:1059000010FB01F191FBF9F0A083584619F084FFD8
:105910000546584619F0E0FF034603200090B4F90D
:105920001C102A4658460AF0F5F9A08301460023C8
:105930001EE07A1917B210FB05F292FBF1F215B2D4
:10594000002DF6D1ADF80070A4F81C800022694645
:10595000204623F0EFF941F6FF72BDF900305142C5
:1059600058460AF09DFFBDF800100123084401B21B
:10597000002258461CF090F9A08B002848D1E08BFB
:10598000002845D1C6B958461AF012F805465846BF
:1059900019F0C8FE002D06DC00280DDD002D02DA0E
:1059A00001232A4604E0002806DA0123404202B21D
:1059B000002158461CF070F9BAF1000F19D1584671
:1059C00019F02AFF0546584619F086FF002D07DC1E
:1059D00000280EDD002D03DA01230022294605E010
:1059E000002806DA01230022404201B258461CF08A
:1059F00053F90A215846019A15F026F86078800775
:105A000006D414F8400F20F00F00207044F8148CD6
:105A1000BDE8FC9F7FB50E46040003D111F040FCA9
:105A200004002CD011F0B0FC002828D094F82800F5
:105A3000400724D4002506B3ADF80050ADF802505D
:105A4000204611F045FC401EADF80400204611F040
:105A500085FC401EADF806006A46314602A8FFF7F5
:105A600006FA00280BD02068017C890708D5DDE9FB
:105A70000001C4E90C01012029E0A4F850517FBDC8
:105A800082690AB102A9904700260AE004EBC60128
:105A9000002202A83031FFF712FA0028EFD1761C5D
:105AA000B6B2B4F85001B042F0D880B2202804D287
:105AB00004EBC00002A9303004E0A4F8505104F116
:105AC000300069460FF0FDF8B4F85001401CA4F80E
:105AD000500160680028D2D01FF05AFF7FBD70B51A
