:020000040800F2
:10000000A84F002071020008AB300008B723000899
:10001000A9300008C9040008B5420008000000002B
:10002000000000000000000000000000B101000816
:1000300089050008000000000D02000829410008A1
:100040008B0200088B0200088B0200088B0200085C
:100050008B0200088B0200088B0200088B0200084C
:100060008B0200088B0200088B0200088B0200083C
:100070008B0200088B0200088B0200088B0200082C
:100080008B0200088B0200088B02000800000000B1
:100090000000000000000000000000008B020008CB
:1000A0008B020008F94100088B0200088B0200084F
:1000B0008B0200088B02000805420008C5230008D7
:1000C000B92300088B0200088B02000839310008B0
:1000D0008B0200088B0200088B0200080000000061
:1000E0008B0200088B0200088B0200080000000051
:1000F0000000000000000000000000008B0200086B
:10010000000000008B0200088B0200088B02000830
:1001100000000000000000000000000000000000DF
:10012000CD0400088B020008D90400088B020008E7
:100130008B0200080000000000000000000000002A
:100140000000000000000000000000008B0200081A
:100150008B0200088B0200088B0200088B0200084B
:100160008B0200088B020008000000000000000065
:10017000000000000000000000000000000000007F
:10018000000000008B0200080000000000000000DA
:100190008B0200088B020008DFF810D000F0EEF8A8
:1001A00000480047F5420008AFF30080A84F002048
:1001B0002C4B19680868B0E8F04F80F30988BFF34A
:1001C0006F8F4FF0000080F311887047000000002F
:1001D00008480068006880F308884FF0000080F34A
:1001E000148862B661B6BFF34F8FBFF36F8F00DF25
:1001F00000BF00BF08ED00E0DFF80C00016841F42B
:1002000070010160704700BF88ED00E0EFF30980E6
:10021000BFF36F8F134B1A681EF0100F08BF20ED4D
:10022000108A20E9F04F106009B44FF0500080F3BD
:100230001188BFF34F8FBFF36F8F04F011FC4FF0A5
:10024000000080F3118809BC19680868B0E8F04F15
:100250001EF0100F08BFB0EC108A80F30988BFF3BE
:100260006F8F70471C000020EFF30580704700007F
:100270000648804706480047FEE7FEE7FEE7FEE740
:10028000FEE7FEE7FEE7FEE7FEE7FEE7E9410008DE
:10029000990100082DE9F05F0546002092469B4633
:1002A00088460646814640241BE02846414647468C
:1002B000224600F053F853465A46C01A914110D3D3
:1002C00011461846224600F03AF82D1A67EB01084D
:1002D0004F4622460120002100F031F817EB0009BB
:1002E0004E41201EA4F10104DFDC484631462A4677
:1002F0004346BDE8F09F40EA01039B0703D009E0B5
:1003000008C9121F08C0042AFAD203E011F8013B01
:1003100000F8013B521EF9D27047D2B201E000F85A
:10032000012B491EFBD270470022F6E710B5134699
:100330000A4604461946FFF7F0FF204610BD202A62
:1003400004DB203A00FA02F1002070479140C2F12C
:10035000200320FA03F3194390407047202A04DB5E
:10036000203A21FA02F00021704721FA02F3D0402E
:10037000C2F120029140084319467047064C074DD0
:1003800006E0E06840F0010394E807009847103465
:10039000AC42F6D3FFF704FF98F60008B8F6000861
:1003A000464910B54A6822F440324A604A684368B8
:1003B0001A434A6001684A6822F480724A60016800
:1003C0004A68036942EA03224A6001684A6822F0E7
:1003D00040724A6001684A6883681A434A6001684B
:1003E0008A6822F400628A6001688A68C3681A43D6
:1003F0008A60816A6FF07062D14201688A6822F077
:1004000070628A6001688A680CD0836A1A438A60C5
:1004100001688A6822F040528A6001688A68C36A6B
:100420001A4301E022F040528A6001688A6822F093
:1004300002028A6001688A68037E42EA43028A6097
:1004400090F82010002901684A680FD042F4006239
:100450004A6001684A6822F460424A6001684A685A
:10046000174C436A04EB43331A4301E022F4006261
:100470004A600168CA6A22F47002CA620168CA6AE4
:10048000838B104C04EB03531A43CA6201688A68D9
:1004900022F400728A6001688A6890F8303042EA7B
:1004A00043228A6001688A6822F480628A60016857
:1004B0008A68406942EA8020886010BD00230140BC
:1004C00000E0FFFF0000F0FFFEE70000014800F041
:1004D0009DB900003C030020014800F097B90000DE
:1004E0006804002001681823CAB2103AB2FBF3F284
:1004F000054B6FF30901032A9B5CC36500D9091DF5
:100500008165084670470000444E000810B501465A
:1005100000208B698A6A4FF0C07453B1B3F5005F55
:1005200015D072B1012A0CD0022A0AD0032A09D1AF
:1005300004E01AB1012A06D0022A03D1C96AC9010E
:1005400000D5012010BDC96AA142FAD010BD002A11
:10055000F7D0012AF2D0022AF3D0032AF3D010BD3B
:1005600030B50468256825F480252560046863603B
:100570008368402B036803D099600068C26030BD77
:100580009A600068C16030BD704772B6FEE7000037
:1005900078B50024009490F83C20012A19D001225B
:1005A00080F83C200A6807230568092A13D9EE68F9
:1005B0000A3A02EB420293409E43EE600B788A684F
:1005C0000A3B03EB43039A400368DD682A43DA6081
:1005D00010E0022078BD2E6902EB420293409E4358
:1005E0002E610B788A6803EB43039A4003681D6908
:1005F0002A431A614A681F23072A13D205686E6BC3
:10060000521E02EB820293409E436E630A8893B2AD
:100610000A79521E02EB820293400268556B2B430B
:10062000536327E005680D2A12D22E6BD21F02EB0E
:10063000820293409E432E630B790A88DB1F92B29D
:1006400003EB83039A4003681D6B2A431A6311E08E
:10065000EE6A0D3A02EB820293409E43EE620B7902
:100660000A880D3B92B203EB83039A400368DD6A6C
:100670002A43DA621B4B0568194A9D420AD10D686C
:10068000122D07D1556825F400055560556845F4CD
:100690008005556005689D421DD1134D0B68AB4226
:1006A00001D0112B17D1536823F480035360536892
:1006B00043F4000353600968A9420CD10B490C4A6A
:1006C0000968B1FBF2F101EB8101490000E0491E2C
:1006D00000910029FBD180F83C40002078BD00004B
:1006E00000230140002001401200001018000020EB
:1006F00040420F0070B504004FF0000503D0206C9D
:10070000002610B107E0012070BD204600F01CF863
:10071000666484F83C60206CC00610D4206C20F421
:10072000885040F0020020642046FFF739FE6664DE
:10073000206C20F0020040F00100206400E0012560
:1007400084F83C60284670BD70B586B0064614211A
:100750006846FFF7E9FD1D493068884233D11C48DF
:100760000025016841F480710160006800F4807028
:10077000059017481438016841F0010101600068D4
:10078000694600F001000590012000900320CDE9AA
:100790000105104800F0ACF9104C0F48C4E9000501
:1007A0000015A560C4E90350400060618000C4E901
:1007B000060525622046656200F0F8F808B1FFF7EB
:1007C000E4FEB463A66306B070BD000000200140E3
:1007D0004438024000000240106402403C03002004
:1007E00090F83510022903D080214165012070471F
:1007F000052180F835100068016821F001010160D1
:100800000020704790F83500704700002DE9F8434C
:1008100004464FF00009CDF8009063484FF416519C
:10082000A56D0068B0FBF1F72E6894F85C10082005
:1008300000FA01F131420FD021680A6852070BD546
:100840000A6822F004020A6094F85C108840A860EC
:10085000606D40F00100606594F85C104FF0010895
:1008600008FA01F0304208D021684969090604D528
:10087000A860606D40F00200606594F85C10042090
:100880008840304208D021680968890704D5A860EB
:10089000606D40F00400606594F85C1010208840A2
:1008A000304218D021680968090714D5A86020686B
:1008B0000168490304D50068000308D5A16C07E06E
:1008C0000168C90503D4016821F008010160216CA9
:1008D00009B12046884794F85C10202088403042B7
:1008E00031D021680968C9062DD5A86094F8350073
:1008F00005282068016806D0490347D50068000331
:100900001DD4616C1CE021F0160101602068416972
:1009100021F080014161206C08B9A06C20B12068F1
:10092000016821F00801016094F85C103F208840C4
:10093000A86084F8358084F83490216D1FE0E16B65
:1009400009B120468847606D00282BD0606DC00734
:1009500014D0052084F835002068016821F00101D9
:1009600001600098401C0090B84203D820680068DD
:10097000C007F6D184F8358084F83490E16C002902
:1009800010D001B02046BDE8F04308470168C90512
:10099000D5D4016821F01001016084F8358084F815
:1009A0003490CCE7BDE8F883180000202DE9F04131
:1009B000044600F09BF906465CB1022084F835003D
:1009C000002584F834502068016821F0010101609D
:1009D0000DE00120BDE8F08100F088F9801B0528BA
:1009E00005D920206065032084F83500F2E72068EF
:1009F0000068C007F0D12268116820480140D4E99E
:100A000001031843D4E90336334318436369184399
:100A1000A3691843E3691843236A18430843616ACA
:100A2000042903D1D4E90B1319430843106020684B
:100A30004069666A20F0070130460E43012704280A
:100A40000CD1A06A0643E06A40B12046FFF75EFD84
:100A500020B14020606584F83570BAE720684661AF
:100A60002046FFF73FFD94F85C203F2191408160D4
:100A7000656584F835700020ACE700003F8010F019
:100A80002DE9F0410446866D90F8340000250128D8
:100A90000DD0012084F8340094F835700020012F27
:100AA00007D084F8340002252846BDE8F0810220F2
:100AB000FBE7022784F8357060652046FFF750FD9C
:100AC00094F85C103F208840B0602068016841F0D5
:100AD00016010160206C20B12068016841F0080116
:100AE00001602068016841F001010160DCE700005D
:100AF0002DE9F84FDFF8B8A10022012403254FF0BB
:100B00000F090AF1040BAAF1040E00BF0B6804FAE6
:100B100002F63340B34273D10F7907F00307012F78
:100B200001D0022F16D187684FEA420805FA08FC67
:100B300027EA0C07D1F80CC00CFA08FC4CEA070CA9
:100B4000C0F808C04768B7430E79C6F30016964050
:100B50003E4346600E79F643B6070DD0C76856008F
:100B600005FA06FC27EA0C07D1F808C00CFA06FCC7
:100B70004CEA070CC0F80CC00E7906F00306022EF2
:100B800010D1D60800EB8608D8F8206057074FEA46
:100B9000D76C09FA0CF7BE430F6907FA0CF7374315
:100BA000C8F8207006684FEA420C05FA0CF7BE43FD
:100BB0000F7907F0030707FA0CF7374307604E6811
:100BC00016F4403F6DD03B4E376847F4804737609E
:100BD000366822F0030706F480460096364E07EB8F
:100BE000060CDCF8086897073F0F09FA07F826EAB1
:100BF0000806DFF8C880404503D14FF000081EE02A
:100C00004FE0DFF8BC80404502D14FF0010816E00C
:100C1000DFF8B080404502D14FF002080FE0DFF866
:100C2000A880404502D14FF0030808E0DFF89C801F
:100C3000404502D14FF0040801E04FF0070808FAE0
:100C400007F848EA0608CCF80888DAF80060574642
:100C5000D1F804C09E435FEACC2C00D51E433E6011
:100C6000DBF800605F46D1F804C09E435FEA8C2C3D
:100C700000D51E433E60DEF800607746D1F804C020
:100C80009E435FEA8C3C00D51E433E60084F083F00
:100C90003E68D1F804C09E435FEACC3C00D51E43B9
:100CA0003E60521C102AFFF431AFBDE8F88F0000FF
:100CB000083C01404438024000300140000002403E
:100CC0000004024000080240000C024000100240F4
:100CD000426921EA02030A4043EA02418161704706
:100CE0000AB1816170470904FBE700000148806890
:100CF000704700000C000020704770472DE9F0415C
:100D0000016804464A694E6890F83E000025D743C2
:100D1000FA0506D4F243D20503D46FF4807201259C
:100D20004A61B90508D4F143C90505D422686FF4B6
:100D3000007145F002055161790525D4F143C905DB
:100D400022D4638D94F83D10226B202808D13BB942
:100D5000212910D029290ED0282901D1212A0AD0F1
:100D600022686FF48061516145F00405102806D0B7
:100D7000402804D008E0204601F00CFF04E0206881
:100D8000016841F400710160380508D4F043C005E2
:100D900005D421686FF4006045F008054861002D16
:100DA00007D0206C284320642046BDE8F04101F0C4
:100DB00075BBBDE8F0812DE9F0470268002153685A
:100DC000C66A90F83E4090F83D50102C12D0402C4E
:100DD00010D0046C002C7DD05469E443A6077AD46B
:100DE000DE43B60577D4036C03B19169BDE8F047E3
:100DF00001F0ACBE976951694FF42A0CC9435FEA10
:100E0000C1784FF02A4904D066452AD04E4528D0F3
:100E100010E0DE43B6050DD4C16A614501D1012160
:100E200003E0C16A494501D10821C162BDE8F0472C
:100E300001F0F2BD0E0716D4DE43B60513D4416CA3
:100E4000C9B21161416B09B1C96B29B9816B002924
:100E500007D0C96B002904D00068416841F40061E3
:100E60004160BDE8F0878E0706D4DE43B60503D4A3
:100E7000BDE8F04701F044BDFE43526876074FEAF3
:100E800002521DD4002AECDB0A0608D4DA435205CC
:100E900005D4490705D5BDE8F04701F0D5BC4907A1
:100EA000DFD4D9438905DCD4212D05D0402CD8D1FD
:100EB000BDE8F04701F0F6BDBDE8F04701F082BCA7
:100EC000002ACEDB4A060BD4DA43520508D4490780
:100ED00008D501E00DE00EE0BDE8F04701F0F8BBF9
:100EE0004907BED4D9438905BBD4BDE8F04701F01A
:100EF00081BB916970E7E10606D4D943890503D423
:100F0000BDE8F04701F08EBE2821212D27D0292DE4
:100F100025D0650655D4DD436D0552D4640752D5FE
:100F200090F83D30448D002C9BD01269446A2270A9
:100F3000426A521C4262428D521E4285428D002AF4
:100F40008FD12A2B8DD10268536823F480635360BC
:100F50002222026380F83D1000F056F981E7250651
:100F600023D4DD436D0520D4640720D590F83D30AF
:100F7000448D002CF2D0446A24781461426A521CD9
:100F80004262428D521E4285428D002AE6D1292BB3
:100F9000E4D10268536823F4806353602122026322
:100FA00080F83D1000F031F95BE76107D6D4D943F2
:100FB0008905D3D4418D0029D0D0416A09781161C7
:100FC0000AE06107CAD4D9438905C7D4418D0029F5
:100FD000C4D01169426A1170416A491C4162418D55
:100FE000491E41853DE7704770B5040025D094F84F
:100FF0003D00002520B984F83C50204600F0BEF8A2
:10100000242084F83D002068016821F0010101607E
:101010002068016841F4004101602068016821F402
:101020000041016000F020FB4D4A6168914201D807
:101030004C4900E04C49884201D2012070BD4B4927
:101040002368B0FBF1F15E6826F03F060E435E6058
:101050006368934206D94FF4967359434FF47A73F9
:10106000B1FBF3F12368491C1E6A26F03F063143A9
:1010700019626168914210D84900401EB0FBF1F23C
:10108000521CC2F30B02042A01D2042022E0B0FB5E
:10109000F1F0401CC0F30B001CE0A268F2B301EBBE
:1010A000C10303EB0116431EB3FBF6F35B1C43F4D1
:1010B00080431B0549D092B301EBC10202EB011141
:1010C000401EB0FBF1F0401CC0F30B0040F4804028
:1010D00040F400402168CA694CF6FF739A431043FC
:1010E000C861D4E9071001432068026822F0C002F9
:1010F00011430160D4E9030101432068826848F28A
:10110000FF339A4311438160D4E905010843216804
:10111000CA6822F0FF021043C86001E00EE016E04A
:101120002068016841F0010101602564202084F8F5
:101130003D00256384F83E50002070BD01EB410660
:10114000431EB3FBF6F35B1CB3E70120C2E701EBE0
:101150004101401EB0FBF1F0401CC0F30B00B7E7AB
:10116000A086010080841E0000093D0040420F005F
:1011700070477047704770477047000010B586B0E1
:10118000044614216846FFF7CFF81C4920688842BE
:1011900031D11B480021026842F00202026000685F
:1011A00000F0020005904FF4407000901220CDE94D
:1011B0000101032003900420049069461148FFF7C1
:1011C00097FC0F481030016841F40011016000687D
:1011D000002200F40010059005211F2000F0AEF859
:1011E0001F2000F09DF800220521202000F0A6F825
:1011F000202000F095F806B010BD0000005400401B
:10120000303802400004024070477047024881684D
:1012100002781144816070470C0000200B4810B523
:10122000016841F400710160016841F4806101606E
:10123000016841F480710160032000F09FF80F20E5
:1012400000F006F800F050F8002010BD003C02400D
:1012500030B505461F4887B00024016841F00401FD
:101260000160006806A900F00400009001A800F0E9
:10127000DBF90498A8B100F0F7F940001649174AC5
:10128000B0FBF1F11648491E026040F2E732C0E9B6
:101290000324C0E90114846100F064FF040003D05A
:1012A00015E000F0E1F9E9E70D4800F0A7FF0400C0
:1012B0000DD11E2000F034F8102D07D2002229464F
:1012C0001E2000F03BF80748056000E0012407B04D
:1012D000204630BD4038024040420F000008004028
:1012E00010050020100000200C4882B0016841F475
:1012F00080410160006800F4804000900748001FB2
:10130000016841F0805101600068002200F08050C7
:1013100000900F21901E02B000F010B84438024037
:10132000002809DB00F01F020121914040098000E4
:1013300000F1E020C0F8001170470000F0B40E4B3F
:101340001B680C46C3F30223C3F10705042D00D923
:101350000425191D072901D2002300E0DB1E012608
:1013600006FA05F1491E214099409E40761E16401E
:101370003143F0BC02F09FBF0CED00E0064900F0E5
:10138000070208684FF6FF03184040EA0220034AAC
:1013900010430860704700000CED00E00000FA0503
:1013A0002DE9F843044600684FF00109C1074FF0EA
:1013B000000601D1400729D5DFF82081C8F8686010
:1013C000FFF794FC0746464D05E000BFFFF78EFC93
:1013D000C01B022859D828680001F7D4A068217BD7
:1013E000800140EA0170616808433D49843108602A
:1013F000C8F86890FFF77AFC074604E0FFF776FC30
:10140000C01B022841D828680001F7D52078800742
:1014100052D533484030016841F080510160006886
:10142000304D00F080500090286840F480702860B3
:10143000FFF75CFC074604E0FFF758FCC01B0228DE
:1014400023D82868C005F7D5254D7035286810F4D5
:10145000407020D0218A01F4407181421BD028685D
:10146000214920F44070C1F800900E60286028687F
:10147000C00710D0FFF73AFC064641F2883707E074
:10148000FFF734FC801BB84202D90320BDE8F88383
:1014900028688007F4D521691148C1F3012208307A
:1014A000032A12D0016821F4F81101602868218A0A
:1014B000C1F30B01084328602078000703D50B49CE
:1014C000207DC1F8E0010020E0E70268084B22F42B
:1014D000F81219400A430260E8E7000000004742A2
:1014E0000038024000700040400E47420010474262
:1014F000FFFCFF0F2DE9F0470E46050065D0DFF831
:101500001481D8F80000F7B200F00700B04207D20B
:1015100088F80070D8F8000000F00700B04254D1FD
:1015200028683D4C810712D5400703D5206840F458
:10153000E05020602878000703D5206840F4604020
:1015400020602068A96820F0F00008432060287817
:10155000C0072DD0304968680839012812D0022808
:1015600013D0032811D00968890700292DDA2168D2
:1015700021F0030101432160FFF7B8FB814641F2EE
:10158000883A0EE009688903EFE709688901ECE70A
:10159000FFF7ACFBA0EB0901514502D90320BDE8E0
:1015A000F0872068696800F00C00B0EB810FEFD184
:1015B000D8F80010404601F00701B14207D9077082
:1015C000006800F00700B04201D00120E7E728786A
:1015D000400705D52068E96820F4E0500843206002
:1015E0002878000706D52068296920F4604040EA81
:1015F000C100206000F048F82168084AC1F30311D7
:10160000515CC8400649086006480068FFF720FEA4
:101610000020C4E7003C0240083802404C4E00085D
:1016200018000020100000200F2202600C4A1368EE
:1016300003F003034360136803F0F003836013684F
:1016400003F4E053C36012684FF4E05303EAD2029C
:1016500002610448006800F007000860704700005D
:1016600008380240003C0240044805490068096807
:10167000044AC1F38221515CC84070471800002021
:10168000083802405C4E0008154810B5006810F09C
:101690000C02144813D04110042A0FD0082A0ED18E
:1016A0000F4C241F2268236802F03F025B0207D51B
:1016B0002068C0F38810A0FB010106E0084610BDB9
:1016C0002168C1F38811A1FB00010023FEF7E2FDB0
:1016D0002168C1F30141491C4900B0FBF1F010BD84
:1016E000083802400024F4002DE9F84F04006ED0C1
:1016F0002078DFF84C93C007A9F104054AD009F11E
:1017000004000168C1F38101012908D00068C0F319
:10171000810002280AD1D9F80000400206D52868C5
:10172000800337D560680028E1D033E06068B0F509
:10173000803F10D0B0F5A02F286810D020F4803062
:101740002860286820F4802028606068A8B1FFF72E
:10175000CDFA06460DE0286840F48030F4E740F406
:1017600080202860F7E700BFFFF7C0FA801B6428DD
:1017700073D828688003F7D50CE0FFF7B7FA064660
:1017800005E000BFFFF7B2FA801B6428F0D8286894
:101790008003F7D42078DFF8AC8280074FF0000A8E
:1017A0003ED5A748001D016811F00C0F08D0006855
:1017B000C0F3810002280BD1D9F80000400207D401
:1017C0002868800716D5E068012800D112E033E1CF
:1017D000E068B8B10120C8F80000FFF787FA0646B4
:1017E00005E000BFFFF782FA801B0228C0D82868F6
:1017F0008007F7D52868216920F0F80040EAC10089
:1018000028600DE0C8F800A0FFF770FA064604E073
:10181000FFF76CFA801B02281FD828688007F7D4CE
:101820002078000722D5864F87486169703771B1EB
:1018300001210160FFF75AFA064604E0FFF756FA65
:10184000801B022809D838688007F7D50EE0C0F859
:1018500000A0FFF74BFA064605E082E0FFF746FAE4
:10186000801B02287DD838688007F7D4207840078D
:1018700068D5DFF8CCB100270BF13C0BDBF800009A
:10188000C0000BD4DBF8001041F08051CBF8001001
:10189000DBF80000012700F0805000906B4E3068AC
:1018A000C00510D4306840F480703060FFF71EFA35
:1018B000009005E0FFF71AFA0099401A022850D864
:1018C0003068C005F6D55E4EA0686C3601280FD092
:1018D0000528306810D020F001003060306820F01A
:1018E00004003060A068B8B1FFF700FA00900FE084
:1018F000306840F00100F4E740F004003060F7E7A2
:10190000FFF7F4F90099411A41F28830814266D814
:1019100030688007F4D50EE0FFF7E8F9009007E0A3
:10192000FFF7E4F90099411A41F28830814256D814
:1019300030688007F4D42FB1DBF8001021F080511B
:10194000CBF80010A069C8B33D49091D0968C1F36F
:10195000810102294AD00228504607D0C8F8600009
:1019600000E03CE0FFF7C2F904463BE04746C8F818
:101970006000FFF7BBF9064605E000BFFFF7B6F9C8
:10198000801B02282BD828688001F7D4D4E90701EE
:101990000843A16A2E4A490802EB0141626A41EA02
:1019A0008211084394F82C1040EA0161C9F8001034
:1019B00001203866FFF79AF9044606E03EE000BFD2
:1019C000FFF794F9001B022809D828688001F7D591
:1019D00034E000BFFFF78AF9001B022802D9032078
:1019E000BDE8F88F28688001F4D427E00128F7D0FB
:1019F000D9F80000E26900F4800191421CD1226A0A
:101A000000F03F01914217D147F6C071626A014070
:101A1000B1EB821F10D1A26A4FF0FF3300F44031C6
:101A200003EB5202B1EB024F06D194F82C1000F0F8
:101A30007060B0EB016F01D00120D1E70020CFE74B
:101A40000438024000004742800E474200700040C8
:101A50000000FFFF10B5040002D0607F10B106E067
:101A6000012010BD00202077204600F041F8022020
:101A700060772068C168C943C90632D5CA2141626E
:101A8000216853204862204601F01CFB20BB2068DF
:101A90008168164A11408160216888686268104335
:101AA000D4E904231A43104388602168E068086180
:101AB00020680169228941EA02410161204601F062
:101AC00025FB48B921680A6C22F480220A64216847
:101AD0000A6CA3691A430A642268FF21516208B1A3
:101AE00010BD00200121617710BD0000BFFF8FFFF6
:101AF00010B586B0044618216846FEF715FC094962
:101B0000206888420CD102200090000204906846B0
:101B1000FFF746FC08B1FEF738FD034901200860D5
:101B200006B010BD002800403C0E474270B5044688
:101B3000007F0B46012819D0012626770220607706
:101B4000B2B19878D97840EA0145587819780002FE
:101B500040EA413005432168CA2048622168532089
:101B60004862204601F0AEFAD0B122E0022070BDFA
:101B70005878C10603D500F0EF000A305870D878C5
:101B800001F094FA0204587801F090FA42EA002237
:101B9000987801F08BFA0243187842EA4035DAE788
:101BA0000748054020684560204601F0AFFA00B9BB
:101BB00066772268FF2151620021217770BD000005
:101BC0003FFFFF002DE9F0410446007F0D4601284C
:101BD00023D04FF0010884F81C8002206077206831
:101BE000002780684FEA4060D2B1002800DBEF7028
:101BF000A878297840EA01466878E978000240EA46
:101C0000815006432168CA204862216853204862F7
:101C1000204601F057FAB8B12CE00220BDE8F0816F
:101C2000002800DBEF70287801F040FA02046878A1
:101C300001F03CFA42EA0022A87801F037FA0243A8
:101C4000E87842EA8056DDE70D48064020680660E5
:101C50002068816821F480218160D5E9030108436F
:101C600021688A6810438860204601F04FFA08B95D
:101C700084F81D802268FF2151622777CEE700009B
:101C80007F7F7F0070B504460B482168C860FFF76E
:101C90002DF805464FF47A7607E000BFFFF726F8E7
:101CA000401BB04201D9032070BD2068C068800687
:101CB000F4D5002070BD00005F3F010070470000B8
:101CC00038B5016804464A688868C043430606D5AB
:101CD000C30704D1D3435B0601D4216C05E083071D
:101CE00008D4D3431B0605D4616C01B02046BDE87F
:101CF00030400847830603D5430601D5C30551D4B8
:101D0000D3439B064ED443060AD494F85130032B98
:101D100049D0636D43F004036365CB688B6800931F
:101D2000830609D4636D43F0010363658B680093F8
:101D30000B6823F040030B60C00506D4606D40F0D3
:101D400008006065206880680090606D002829D0D8
:101D50002068416821F0E0014160012084F85100D1
:101D6000900701D4D00722D02068416821F00301F8
:101D70004160114DE06C40B10565E06CFEF730FD4F
:101D800018B1606D40F040006065A06C002809D07B
:101D90000565A06CFEF724FD002803D0606D40F0BF
:101DA0004000606538BDC8688868009038BD20462E
:101DB000FFF784FF38BD00004531000870B504000E
:101DC00009D0606A002540B125616561A56294F87B
:101DD000510040B10CE0012070BD6068B0F5827F19
:101DE000F4D0E561F2E784F85050204600F044F862
:101DF000022084F851002068016821F04001016050
:101E0000A088218900F4827001F404410843A1896B
:101E100001F400610843217C01F002010843217DA7
:101E200001F001010843218B01F400710843217F77
:101E300001F03801084394F8201001F080010843B4
:101E4000218D01F40051084321680860A069042134
:101E500001EA104094F8241001F0100108432168B1
:101E600048602068C16921F40061C1616565012095
:101E700084F85100002070BD70B586B0064614216C
:101E80006846FEF751FA23493068884240D122481B
:101E90000025016841F480510160006800F4805021
:101EA00005901D481438016841F001010160006887
:101EB000694600F001000590A02000900220CDE9C5
:101EC000010503200390052004901448FEF710FE3E
:101ED000144C134820604FF0806060604020C4E9DB
:101EE00002050001C4E90405A561E56125622046FB
:101EF0006562FEF75BFD08B1FEF747FBB4640022A4
:101F000005212320A663FFF719FA2320FFF708FA1B
:101F100006B070BD0030014044380240000002406D
:101F200040640240680400202DE9F84F98461646A8
:101F30008A460446FEF7DAFE814694F851000128ED
:101F40001ED1BAF1000F73D0002E71D094F850005A
:101F5000012815D0012784F85070032084F851001F
:101F600000256565C4F830A0A686E686A563A5872A
:101F7000E58765642564A068B0F5004F03D00CE0E8
:101F80000220BDE8F88F2068016821F0400101605F
:101F90002068016841F480410160206801684906B9
:101FA00003D4016841F040010160E068B0F5006FC2
:101FB000606803D048B3012E27D047E008B1012E56
:101FC0001FD1206B21680088C86006E02068816806
:101FD000890709D5216B0988C160206B801C2063AB
:101FE000E08E401EE0860CE0FEF780FEA0EB0901CB
:101FF000414503D3B8F1FF3F03D035E0B8F1000FFE
:1020000032D0E08E0028E1D123E0206B21680078F7
:10201000087306E02068816889070AD5216B097872
:102020000173206B401C2063E08E401EE0860DE0B3
:102030002BE0FEF75BFEA0EB0901414503D3B8F1AD
:10204000FF3F03D010E0B8F1000F0DD0E08E002864
:10205000E0D14A464146204601F0C4F808B12020AC
:102060006065A06830B109E084F8517084F8505080
:10207000032086E72068C1688068009084F851706A
:1020800004F8505F60680028F3D0012079E7000071
:1020900070B5044690F8510001281CD1C9B1C2B1F5
:1020A00094F85000012816D0012084F85000032035
:1020B00084F85100002565652163A286E286A56348
:1020C00065642564A587E587A068B0F5004F04D056
:1020D0000DE0012070BD022070BD2068016821F074
:1020E000400101602068016841F480410160A16CF9
:1020F00017480864A16C1748C863A16C1648C864E7
:10210000A06C0565E38E2268216B0C32A06CFEF793
:10211000B7FC30B1606D40F01000606584F850503D
:10212000D7E720680168490603D4016841F04001FF
:10213000016084F850502068416841F020014160FE
:102140002068416841F002014160002070BD00003C
:102150007731000881310008553100087047704719
:102160007047704710B5040003D094F83D0010B1DB
:1021700007E0012010BD002084F83C00204600F05C
:102180001FF8022084F83D00211D206802F040F86D
:10219000012084F8460084F83E0084F83F0084F86B
:1021A000400084F8410084F8420084F8430084F839
:1021B000440084F8450084F83D00002010BD000074
:1021C00008B500680B49884212D10B48016841F4F8
:1021D000003101600068002200F400300090052109
:1021E0001920FFF7ABF8BDE808401920FFF798B8B1
:1021F00008BD0000004401404438024090F83D1002
:10220000012901D001207047022180F83D100168AA
:10221000CA6842F00102CA6000680E4988420ED0C6
:10222000B0F1804F0BD00C49884208D00B4988424E
:1022300005D00B49884202D00A49884204D18168FE
:1022400001F00701062903D0016841F00101016096
:1022500000207047000001400004004000080040DA
:10226000000C00400040014070472DE9F041044659
:102270000068C66805694FF00007A90713D5B107C4
:1022800011D5F91E0161012020772068806980073F
:10229000204602D0FFF7E8FF04E000F07EF8204679
:1022A00000F07CF82777680716D5700714D52168E9
:1022B0006FF004000861022020772068806910F424
:1022C000407F204602D0FFF7CFFF04E000F065F822
:1022D000204600F063F82777280715D5300713D577
:1022E00021686FF008000861042020772068C06929
:1022F0008007204602D0FFF7B7FF04E000F04DF85A
:10230000204600F04BF82777E80616D5F00614D5DE
:1023100021686FF010000861082020772068C069EC
:1023200010F4407F204602D0FFF79EFF04E000F04B
:1023300034F8204600F032F82777E80708D0F00795
:1023400006D021686FF001000861204600F028F8EF
:10235000280608D5300606D521686FF08000086190
:102360002046FFF7FDFE680608D5700606D52168F1
:102370006FF040000861204600F01CF8A8060AD55E
:10238000B00608D521686FF0200008612046BDE83E
:10239000F041FFF7E6BEBDE8F081704770470000EE
:1023A00000680349884201D1FEF730BF7047000042
:1023B000000800407047FEE70148FEF79FBC0000A0
:1023C0009C0300200148FEF7F6BC00009C0300209F
:1023D00038B5806B002190F83D202B4B46F2A814B5
:1023E0001B68B3FBF4F3C3EBC30303EB830300935A
:1023F0003BB15B1E009303681B689B0505D5009BE2
:10240000F6E7036C43F020030364436B03B1D96325
:10241000836B03B1D96303681C6824F480641C6077
:102420004185436B03B11965836B03B1196503687B
:102430001C6824F001041C6090F83D402023602CAF
:102440000BD0282434EA02020FD080F83D3080F807
:102450003E1000BFFEF7C7FD38BD80F83D3080F864
:102460003E100164FEF748FC38BD0268136843F073
:10247000010313600268136843F48063136001630F
:1024800080F83D40E6E70000180000200068416940
:10249000C943090601D400210161704770B50446A3
:1024A00090F83D0094F83E10102901D0402906D143
:1024B000222804D121680A6822F400620A602821D7
:1024C00031EA00024FF000054FF0200626D02168C7
:1024D0004968090505D4602803D084F83D6084F874
:1024E0003E50256320684168090537D5416821F4CD
:1024F00000614160606B90F835203C49012A11D0A1
:102500000165606BFEF76CF938B32068016821F053
:102510000101016084F83D60606B1CE0256384F874
:102520003D10DFE7A06B0165A06BFEF759F9A0B184
:1025300020684169C943490605D40069616A087089
:10254000606A401C60622068016821F0010101603E
:1025500084F83D60A06B016D884710E094F83D1051
:10256000602910D04169C943490605D40069616AF0
:102570000870606A401C60622046FEF734FD206CE3
:10258000C1071CD115E084F83D6025644169C94349
:10259000490605D40069616A0870606A401C60627F
:1025A0002068016821F0010101602046FEF7A4FBCC
:1025B000E5E7810703D4410701D4000704D520686B
:1025C000416821F4E061416094F83D00216C4907C5
:1025D0000BD5282809D10648E062256384F83D60C0
:1025E00084F83E502046FEF7C3FD70BDD12300089D
:1025F0000000FFFF10B5C26A438D0168042B06D0AE
:10260000438D032B08D0438D022B1DD012E04A6866
:1026100022F480624A600CE04B6823F480634B60D4
:10262000042A06D0022A04D001680A6822F48062D3
:102630000A6001680969426A1170416A491C416275
:10264000418D491E418510BD012A34D0102A32D057
:10265000042A34D0022A32D00B6843F400730B6092
:1026600001680969436A1970416A491C4162438DD6
:102670005B1E438503681B690B70416A491C4162FC
:10268000418D491E418501684B6823F440734B60BE
:10269000202180F83D1090F83E300021402B80F83A
:1026A0003E1010D0082A02D0202A00D01221016347
:1026B000FEF75FFD10BD0B6823F48063CFE70B6866
:1026C00043F48063CBE70163FEF755FD10BD0000C6
:1026D00038B590F83D10222910D1C36A418D0329E5
:1026E0000DD901680969426A1170416A491C416249
:1026F000418D491E4185418D032906D038BDC26AEE
:10270000022A02D0012906D029B10068416821F4CB
:102710008061416038BD2A4A46F2A814002112683F
:10272000B2FBF4F202EB8202009202682024009DC8
:102730006D1E009526D01568AD05F8D4156825F4F2
:10274000806515600268556825F4E065556002688B
:102750001269456A2A70426A521C4262428D521EB8
:10276000428580F83D4090F83E2080F83E10402A97
:1027700021D0082B02D0202B00D012210163FEF7BC
:10278000F8FC38BD036C43F020030364536823F462
:10279000E063536002681269436A1A70426A521C0D
:1027A0004262428D521E428580F83D4080F83E10C4
:1027B000FEF719FC38BD0163FEF7DDFC38BD0000F3
:1027C0001800002010B5C26A90F83D1021290BD1E5
:1027D000418D51B1416A026809781161416A491C11
:1027E0004162418D491E418510BD20230021082AE8
:1027F00013D0202A11D012F5803F0ED00268546801
:1028000024F4E06454601122026380F83E1080F8E2
:102810003D3000BFFEF7AEFC10BD0268546824F4E2
:10282000E06454600268146844F400741460016346
:1028300080F83D3090F83E2080F83E10402AE9D1E3
:10284000FEF79AFC10BD000010B590F83D1090F80E
:102850003E30C26A048DB4B1212903D0402B11D17E
:1028600022290FD1418DE1B390F83E10402942D08A
:10287000416A026809781161416A491C4162418DCF
:10288000491E418510BD2129E8D120230021082AB5
:1028900013D0202A11D012F5803F0ED00268546860
:1028A00024F4E06454601122026380F83E1080F842
:1028B0003D3000BFFEF75EFC10BD0268546824F492
:1028C000E06454600268146844F4007414600163A6
:1028D00080F83D3090F83E2080F83E10402AE9D143
:1028E00000E002E0FEF748FC10BD0068416821F4FA
:1028F0008061416010BDBDE8104000F0D3B8000019
:1029000078B590F83E50C26A036B90F83D600024A1
:102910000168222E7AD1066D0EB9402D76D0056D54
:102920001DB90569B5F5404F09D0458D05B3468DF4
:10293000384D012E0ED0438D022B3AD05DE04A690E
:102940008A6900920A6842F480720A60016D491C2B
:10295000016578BDAA4213D10A6822F480620A6038
:1029600001684A68120503D50A6822F4806216E0FD
:102970004A698A6900920A6842F400720A6039E082
:10298000082A10D0202A0ED0122B0AD0042A03D0F5
:10299000022A01D0102AE7D10A6842F480620A6054
:1029A00024E0012AE0D00A6822F480620A6001680B
:1029B000DEE7042A21D0022A1FD0102A1DD00B687E
:1029C00023F480630B6001680B6843F400630B60C1
:1029D00001684B681B0509D5AA4212D0012A10D004
:1029E000082A0ED0102A0CD0202A0AD001684A6981
:1029F00089690091046578BD08E00B6843F4806341
:102A0000E5E74A6842F480524A60EFE7486988691E
:102A10000090F0E70000FFFF90F83E10402910D032
:102A20000169B1F5804F19D0016DA9B3016D01297C
:102A300010D1416C5FF0F10201F4407142EAD11112
:102A400006E0016D0029416C05D0C9B241F00101D9
:102A500000680161704701F0FE01F9E790F83D1050
:102A60002129416C09D0C9B241F00101026811610C
:102A7000416B29B1C96B49B902E001F0FE01F5E7EC
:102A8000816B0029E6D0C96B0029E3D0006841685A
:102A900041F4006141607047FFE7416CF02201F4AE
:102AA0004071CBE710B590F83D10026D4AB1026D50
:102AB000012A14D0026D022A16D0BDE81040FFF79B
:102AC000E5BCC16C0129816C02D0C1F3072108E08B
:102AD0000268C9B21161016D891C016510BD816C6C
:102AE000C9B20268116123E022291CD0428D0AB1CB
:102AF000212920D0428D002AF0D12129EED1016870
:102B00004A6822F4E0624A6001680A6842F400728E
:102B10000A6000210163202280F83D2080F83E10E9
:102B2000FEF72AFB10BD01680A6842F480720A6051
:102B3000016D491CD1E7416A026809781161416A57
:102B4000491C4162418D491E418510BD38B50C4676
:102B500090F83D2000212825954302680B4605D0BA
:102B600051699169009180F83C3038BD556825F471
:102B700080655560E243540700D50121120601D556
:102B8000828900E0028B80F83C3092B2FEF7B5F803
:102B900038BD00002DE9F04190F83D300446C26A8E
:102BA000002120261E4F00686FF48065082A01D09E
:102BB000202A01D1282B04D0212B17D04561BDE854
:102BC000F081E762426822F4E06242602068456179
:102BD0002068026822F480620260216384F83D600C
:102BE00084F83E102046FEF7C3FAE8E7E7622122A8
:102BF000226384F83D6084F83E10416821F4E0616E
:102C00004160206845612068016821F480610160AD
:102C10002046FFF73BFC2046FEF7F7FACFE700001F
:102C20000000FFFFF8B590F83D6004460068416879
:102C300021F4E0614160206800254169009101684C
:102C400041F0010101602068016821F480610160A8
:102C500020684168090520D5474F222E48D02A2EEA
:102C600046D0616B096849686185618D19B1216C35
:102C700041F004012164416821F400614160606B0E
:102C8000FDF7C0FD012808D0606B0765606BFDF79C
:102C9000A7FD10B1606B016D8847608D08B3206897
:102CA0004169C943490708D40069616A0870606ACC
:102CB000401C6062608D401E608520684169C94388
:102CC000490608D40069616A0870606A401C606245
:102CD000608D401E6085608D18B1206C40F004004E
:102CE0002064206C00B32046BDE8F840FFF7D6BB57
:102CF000A16B096849686185618D19B1216C41F04A
:102D000004012164416821F400614160A06BFDF77A
:102D100079FD0128C1D0A06B0765A06BFDF760FDB0
:102D20000028BAD0A06BB6E72A2E06D1256328204A
:102D300084F83D002046FEF767FA94F83D10202005
:102D400028290DD0216B222901D0222E07D12563FD
:102D500084F83D0084F83E502046FEF755FAF8BD51
:102D60000649E162256384F83D0084F83E50204620
:102D7000FEF7FEF9F8BD0000D12300080000FFFFB8
:102D80007FB50024154800940194029412490394DD
:102D900001604FF48031C0E901140461047680F8C9
:102DA00020400F49C0E90A140125C561C46080F8BC
:102DB00030404561FDF79EFC08B1FDF7E6FBCDE92B
:102DC0000045694605480294FDF7E2FB002801D062
:102DD000FDF7DBFB7FBD000000200140F402002076
:102DE0000100000F0D4808B5016841F48001016041
:102DF0000068002200F48000009005213820FEF7D2
:102E00009DFA3820FEF78CFA002205213A20FEF7C1
:102E100095FABDE808403A20FEF782BA3038024001
:102E200010B596B01C2211496846FDF764FA0021DE
:102E3000684601F095FA0E4C0C491C2220601C31AA
:102E400007A8FDF758FA002107A801F089FA0749F9
:102E500060601C2238310EA8FDF74DFA00210EA843
:102E600001F07EFAA06016B010BD0000F04D000821
:102E7000000000202DE9F04387B014216846FDF7DB
:102E800053FA33480024016841F0040101600168ED
:102E900001F004010591016841F0800101600168C1
:102EA00001F080010591016841F0010101600168B4
:102EB00001F001010591016841F002010160006823
:102EC000244F00F002000590002283213846FDF7D0
:102ED00007FFDFF88490002212214846FDF700FF2B
:102EE000DFF8788044F24106002231464046FDF783
:102EF000F7FE832000900125CDE90154694638464C
:102F00000394FDF7F5FD12200090CDE901546946C8
:102F100048460394FDF7ECFD0096CDE9015469465F
:102F200040460394FDF7E4FD4FF48760CDE90004CB
:102F3000694640460294FDF7DBFD2802CDE9000416
:102F4000694648460294FDF7D3FD07B0BDE8F0831B
:102F500030380240000802400000024000040240F5
:102F60000D4810B50B4901600C49416000214FF438
:102F700080428160C0E9031241618161C1610162E7
:102F8000FEF732F8002803D0BDE81040FDF7FDBA87
:102F900010BD0000005400409C030020A0860100EA
:102FA00010B586B014216846FDF7BEF91D4800240F
:102FB0001B490594C0E900147F218160FF21C0E90D
:102FC000031444618461FEF745FD08B1FDF7DDFAA5
:102FD00010208DF800008DF801408DF80240039418
:102FE000012269460F480494FEF7ECFD08B1FDF795
:102FF000CCFA03208DF814008DF8150005208DF80B
:10300000160025208DF81700012205A90548FEF7B6
:103010008DFD002801D0FDF7B8FA06B010BD000004
:1030200000280040F0030020114810B50F4901604E
:103030004FF4827141604FF400418160002102220F
:10304000C0E9031201224261520282611022C0E9EA
:103050000721416281620A21C162FEF7AFFE0028AA
:1030600003D0BDE81040FDF790BA10BD003001401C
:10307000100400200B4810B509490160312141605E
:10308000002142F20F72C0E9021201618161FFF773
:1030900069F8002803D0BDE81040FDF776BA10BDEE
:1030A00000440140C8040020FEE7FEE7002102E0E2
:1030B0000A38C0B2491C0A28FAD2090740EA11604E
:1030C000704700002DE9F041044600680025C16802
:1030D000490618D4C16841F08001C160FDF706FEC1
:1030E00006464FF47A78042707E000BFFDF7FEFD9F
:1030F000801B404501D9677701252068C0684006DC
:1031000001D4002DF2D02846BDE8F08170B5044608
:1031100000680025C16821F08001C16020688068D6
:10312000800606D42046FEF7ADFD10B1042060777E
:103130000125284670BD00000148FEF7C1BD000012
:103140001004002010B5806B0021C187C186FEF7F6
:10315000B5FD10BD10B5806B01684A6822F003020E
:103160004A60416D41F010014165012180F8511024
:10317000FEF7A4FD10BD10B5806BFEF7F0FF10BD8B
:1031800038B50546846BFDF7B1FD02462868006836
:10319000C00523D42068416821F0200141602068E7
:1031A000416821F0020141606421204600F01AF8D4
:1031B00018B1606D40F020006065A068002118B96A
:1031C0002068C26880680090E186012084F8510080
:1031D000606D18B12046FEF771FD38BD2046FEF740
:1031E000BDFF38BDF8B515460E460B4600920446A5
:1031F0000122022100F02CF8A0B9134813490068FD
:10320000B0FBF1F04FF47A71484300906068B0F57C
:10321000827F0DD13346002280212046009500F0A8
:1032200017F870B1606D40F0200060650320F8BDB4
:10323000009830B1401E009020688068C0430006AE
:10324000F6D50020F8BD00001800002000366E0101
:103250002DE9F8431E46914688460446089DFDF731
:1032600045FD401B351AFDF741FD0746254800681E
:10327000C0F3CB30684338E0701C37D0FDF736FD23
:10328000C01BA84203D215B1009860B32CE020689F
:10329000416821F0E00141606068B0F5827F0BD1A8
:1032A000A068B0F5004F02D0B0F5806F04D120685F
:1032B000016821F040010160A06AB0F5005F09D10A
:1032C0002068016821F4005101602068016841F420
:1032D00000510160012084F85100002084F8500062
:1032E0000320BDE8F8830025401E00902068816817
:1032F00038EA010004D000214945BDD10020F0E7A3
:103300000121F9E7180000202DE9FF4F0746500082
:1033100014460E46C2F10108C0F1000A002583B030
:103320004FF001092A4610213F48FDF7D9FC30191A
:1033300081B23846069A00F03BFA301B81B238461B
:10334000069A00F035FA381980B23146069A00F034
:103350002FFA381B80B23146069A58E0B8F1000FB8
:1033600009DB0AF102000FFA80FA641E08EB0A007A
:1033700024B20FFA80F809F102000FFA80F96D1CEF
:1033800008EB09002DB20FFA80F87819019006EBCE
:10339000040B1FFA8BF180B2069A00F009FA781B31
:1033A00000901FFA8BF180B2069A00F001FA0198A2
:1033B000A6EB040B1FFA8BF180B2069A00F0F8F925
:1033C00000981FFA8BF180B2069A00F0F1F93819D3
:1033D000019006EB050B1FFA8BF180B2069A00F004
:1033E000E7F9381B00901FFA8BF180B2069A00F0C3
:1033F000DFF90198A6EB050B1FFA8BF180B2069A54
:1034000000F0D6F900981FFA8BF180B2069A00F00E
:10341000CFF9A542A2DB07B00122BDE8F04F102191
:103420000148FDF75DBC0000000002402DE9FE4FA1
:1034300014460D4607469846002210213F48FDF7E6
:103440004FFCC4F101000FFA80F9C4EBC430400016
:103450000FFA80FB281981B24FF0010A0026B8B29A
:10346000424600F0A5F9281B81B2B8B2424600F0EE
:103470009FF938190290A9B280B2424600F098F93B
:10348000381B0190A9B280B2424600F091F902982F
:10349000ABB2CDF8008082B2A9B240E0B9F1000F22
:1034A00009DB0BF102000FFA80FB641E09EB0B0035
:1034B00024B20FFA80F90AF102000FFA80FA761CA2
:1034C00009EB0A0036B20FFA80F9B81982B20290FD
:1034D000B81BCDE9008029198BB289B280B200F007
:1034E00015F90198291B82B202988BB2CDF80080A1
:1034F00089B280B200F00AF9391BA8198AB2029188
:1035000083B281B23819CDE9008080B200F0FEF8B4
:103510000299A81B8AB283B2CDF8008081B20198CB
:1035200080B200F0F3F8A642B8DB03B00122BDE898
:10353000F04F10210148FDF7D3BB0000000002400E
:103540002DE9F84FDFF874A090460D4606461F4659
:10355000002210215046DDF82890FDF7C1FBF02E27
:1035600029D24FF48C718D4225D206EB0800F02849
:1035700003D3C6F1F0001FFA80F8E819884202D39D
:10358000C5F58C7087B20024B0440BE0281983B2D3
:1035900081B21FFA88F23046CDF8009000F0B6F8FC
:1035A000641CE4B2BC42F1D95046BDE8F84F012298
:1035B0001021FDF795BBBDE8F88F00000000024028
:1035C0002DE9FE4F9146884604469A460022102176
:1035D0003148FDF785FB0027A9EB0400002801DC3A
:1035E000A4EB090001B2AAEB0800002801DCA8EB5B
:1035F0000A0000B226B20FFA88F54FF0FF32A1455B
:1036000003D34FF0010BD94601E09346D946C2459A
:1036100002D30122019200E00192924681424FF0D2
:10362000000207DB9346924601EBD17254108846A4
:10363000029026E091460022019200EBD0725410D5
:10364000804602911DE00E98DDE90C230090A9B29E
:10365000B0B200F05BF80298204404B2444508DBA5
:10366000A4EB080004B206EB0B0006B20198284454
:1036700005B206EB090006B205EB0A007F1C05B295
:103680003FB24745DFDD03B00122BDE8F04F102116
:103690000148FDF725BB0000000002402DE9F05F66
:1036A0009846DDF828B091460C460546F02828D209
:1036B0004FF48C718C4224D205EB09077F1EF02F4A
:1036C0001FDA04EB0806761E8E421ADADFF838A0FD
:1036D000002210215046FDF703FBB3B2BAB22146D7
:1036E000284600F0B9F94FEA490101FB08F15846B4
:1036F00000F048FC5046BDE8F05F01221021FDF7C4
:10370000EFBABDE8F09F0000000002402DE9F05F35
:103710000C460646181B1546002800DCE01AA91BBB
:10372000002900DC711B884207DD304626461D4615
:103730004FF001080446134601E04FF00008AE4286
:1037400005D930462E46054620461C460346A81B92
:103750000FFA80F9181B002800DCE01A0FFA80FB32
:1037600009EBD97047109C4201D2012001E04FF0D3
:10377000FF30824618E000BF0A9AB8F1000F02D06D
:103780003146204601E02146304600F011F8A7EB13
:103790000B0007B2002F05DA04EB0A0084B207EB36
:1037A000090007B2761CB6B2AE42E5D9BDE8F09F7B
:1037B00038B51446F0281AD2B1F58C7F17D20B46D3
:1037C000024600F049F9200A8DF800008DF801400A
:1037D000074C002210212046FDF782FA022168469C
:1037E00000F0D0FB012210212046FDF779FA38BD08
:1037F000000002402DE9F843164F164689468046E0
:103800001D46002210213846089CFDF769FA4B46F8
:103810003246194640460094FFF778FF42462B4651
:10382000494610460094FFF771FF2B463246194671
:1038300040460094FFF76AFF32462B464946104641
:103840000094FFF763FF3846BDE8F84301221021DA
:10385000FDF746BA000002402DE9F84F144FDDE9AC
:103860000B549346884681469A46002210213846DA
:103870000A9EFDF735FA53465A464146484600949B
:10388000FFF744FF2B463246514658460094FFF757
:103890003DFF43464A46294630460094FFF736FF2F
:1038A0003846BDE8F84F01221021FDF719BA000093
:1038B000000002402DE9F0410746002140F21713B5
:1038C000EF22084600F0C8F80E4E002210213046C4
:1038D000FDF706FA00244FF496652A4639460A4851
:1038E00000F026FD2946084800F0EEFB641CA4B257
:1038F000382CF2D33046BDE8F04101221021FDF70B
:10390000EFB9000000000240484200201FB54FF40C
:1039100016614548FCF708FD0A2000F015FD434CF0
:10392000002240212046FDF7DBF90A2000F00CFDC3
:10393000012240212046FDF7D3F9142000F004FDB8
:103940003A2000F0FFFA552000F064FBB22000F0AE
:10395000F9FA37A1D1E90001CDE900010521684656
:1039600000F010FB022000F0B5F8B72000F0EAFAF2
:10397000352000F04FFBBB2000F0E4FA322000F0CD
:1039800049FBC02000F0DEFA2C2000F043FBC220EF
:1039900000F0D8FA012000F03DFBC32000F0D2FA7D
:1039A000152000F037FBC42000F0CCFA202000F0F6
:1039B00031FBC62000F0C6FA0F2000F02BFBD02010
:1039C00000F0C0FAA42000F025FBA12000F022FBAB
:1039D000E02000F0B7FA18A00FC88DE80F000E2104
:1039E000684600F0CFFAE12000F0ACFA16A10FC94A
:1039F0008DE80F000E21684600F0C4FA212000F087
:103A0000A1FA112000F09EFA132000F09BFA292061
:103A100000F098FA962000F097FC04B00020BDE872
:103A20001040FFF747BF000048420020000402405A
:103A30000C0C003333000000D0080E0909053133A7
:103A40004817141531340000D0080E090915313318
:103A500048171415313400002DE9F843DFF8708061
:103A600016460D4607461C46002210214046FDF72B
:103A700037F92A201434143500F064FA380A8DF826
:103A800000008DF80170300A8DF802008DF8036097
:103A90000421684600F076FA2B2000F053FA280A39
:103AA0008DF800008DF80150200A8DF802008DF885
:103AB00003400421684600F065FA2C2000F042FA29
:103AC0004046BDE8F84301221021FDF709B9000086
:103AD0000000024010B50446362000F033FA54B11D
:103AE000012C0AD0022C0AD0032C0AD16020BDE898
:103AF000104000F08FBAC020F9E7A020F7E70020BF
:103B0000F5E710BD2DE9FE4F4FF6FF752846FFF78C
:103B1000D1FE4FF47A7B584600F016FC4FF47848FB
:103B2000994CCDE901856068009098A214210A2083
:103B3000236800F08FFA584600F006FC6810FFF783
:103B4000B9FE4FF4FA77384600F0FEFB4046FFF727
:103B5000B1FE384600F0F8FB1F20FFF7ABFE3846F9
:103B600000F0F2FB4FF4FC60FFF7A4FE384600F0D3
:103B7000EBFB4FF6E0763046FFF79CFE384600F050
:103B8000E3FB4BF64040FFF795FE384600F0DCFBC8
:103B900040F2CF10FFF78EFE384600F0D5FB4FF60F
:103BA0001F094846FFF786FE384600F0CDFB48F275
:103BB0001F40FFF77FFE384600F0C6FB4CF218604E
:103BC000FFF778FE384600F0BFFB42F61230FFF7F1
:103BD00071FE384600F0B8FB2846FFF76BFE38460A
:103BE00000F0B2FB68116C4FCDE9010578680090D8
:103BF0000A216AA208463B6800F02CFA6A48CDE91F
:103C0000018541680091036868A232210A2000F012
:103C100021FACDE901656068009064A24B210A2079
:103C2000236800F017FACDE90195786800905FA24B
:103C300064210A203B6800F00DFA584600F084FB2E
:103C40004046FFF737FE0027CDE901676068009026
:103C50000A215AA20846236800F0FCF964231E21B9
:103C60001A4608460095FFF7C5FD584600F06CFB64
:103C70004046FFF71FFECDE90167606800900A210A
:103C800051A20846236800F0E5F932231E211A46A6
:103C900008460095FFF754FC584600F055FB404697
:103CA000FFF708FECDE90167606800900A214AA28B
:103CB0000846236800F0CEF93C212B46192208461D
:103CC000FFF722FB584600F03FFB4046FFF7F2FDAE
:103CD000CDE90167606800900A2141A20846236887
:103CE00000F0B8F93C212B4619220846FFF79EFB4D
:103CF000584600F029FB4046FFF7DCFDCDE901679F
:103D0000606800900A2139A20846236800F0A2F9F1
:103D10004FF03C0A4FF02809CDF800A01E22CDE953
:103D20000195462311461046FFF796FD584600F0D0
:103D30000BFB4046FFF7BEFDCDE9016760680090D0
:103D40000A212DA20846236800F084F9CDF800A0CE
:103D50001E22CDE90195462311461046FFF730FC9F
:103D6000584600F0F1FA2846FFF7A4FD25488023C5
:103D7000002100901A460846FFF790FCBDE8FE4F70
:103D800040F6B83000F0E0BA90000020537065654E
:103D9000642054657374000098000020466F6E74B0
:103DA00020746573742E00008800002048656C6CD8
:103DB0006F205374657665210000000052656374BE
:103DC0002E2F4C696E652E0046696C6C656420521E
:103DD0006563742E00000000436972636C652E00F9
:103DE00046696C6C6564204369722E005472696187
:103DF0006E676C650000000046696C6C6564205459
:103E00007269000078760008FEB54FF47840FFF73D
:103E100051FD00254FF6FF76194CCDE9016560682C
:103E20000090642117A20846236800F013F94FF4AC
:103E30007A77384600F088FA4FF4FC60FFF73AFDD5
:103E4000CDE90165606800900FA2642155202368C8
:103E500000F000F9384600F077FA1F20FFF72AFD3E
:103E6000CDE901656068009009A264215A202368A9
:103E700000F0F0F83846BDE8FE4000F065BA0000FA
:103E80009800002052454400475245454E0000002E
:103E9000424C5545000000000FB42DE9FF5F0C4671
:103EA000DDE913A905461F46002210212448FCF72E
:103EB00017FFC7F30726601E304483B2FFB2681EA7
:103EC000384482B221462846FFF7C6FD00252BE084
:103ED0001098203810FB06501299002409F0FF0BAF
:103EE00031F810804FEA1A2002900AF0FF0001908A
:103EF0004FEA1920009014E008FA04F0000406D5F7
:103F000002988DF80C0001988DF80D0004E00098DF
:103F10008DF80C008DF80DB0022103A800F032F8E6
:103F2000641CA742E8D86D1CAE42D1D804B001226F
:103F3000BDE8F01F102102485DF814EBFCF7D0BE7D
:103F40000000024031B50C4C002210212046FCF745
:103F5000C7FE002280210948FCF7C2FE4FF0FF3364
:103F6000012269460648FDF7DFFF012210212046A5
:103F7000FCF7B6FE38BD0000000002400008024019
:103F8000100400202DE9F05FDFF878B00C460646FB
:103F9000002210215846FCF7A3FE012280211A4876
:103FA000FCF79EFE4FF480384FF6FF7A174FDFF88C
:103FB00060901DE0444501D3504600E0204685B2A4
:103FC0003888A0420BD82A4631461148FEF760F8DF
:103FD000D9F8480090F835100129FBD106E04FF0E0
:103FE000FF332A4631460A48FDF79EFF2E44641BE4
:103FF000002CDFD15846BDE8F05F01221021FCF70C
:104000006FBE000000000240000802408400002053
:104010001004002031B50C4C002210212046FCF782
:104020005FFE012280210948FCF75AFE4FF0FF3362
:10403000012269460648FDF777FF0122102120463C
:10404000FCF74EFE38BD00000000024000080240B0
:10405000100400202DE9FE4FDFF86890DDE90DBA6D
:1040600014460E4605469846002210214846FCF7A5
:1040700037FE08F0FF0719E07819F0280AD3C8F3D3
:10408000072081198EB200253044B0F58C7F10D204
:10409000202A0AD0CDE901BA0C9800904346314657
:1040A0002846FFF7F9FE781985B2641C2278002AA9
:1040B000E2D103B04846BDE8F04F01221021FCF7E1
:1040C0000FBE0000000002404900FFF75BBF000088
:1040D00070B5054C40F6B83501212046FCF7F8FDD7
:1040E000284600F031F9F7E700040240642000F0B0
:1040F0002BF9FFF70BFC4FF47A7400BFFFF702FDBA
:10410000204600F021F9FFF77FFEF7E770B5054C78
:104110004FF47A7502212046FCF7DAFD284600F0BC
:1041200013F9F7E70008024010B5502080F311881A
:10413000BFF34F8FBFF36F8F00F092FD18B10449AA
:104140004FF080500860002080F3118810BD0000FF
:1041500004ED00E030B593B030216846FCF7E4F898
:1041600014210CA8FCF7E0F81D480024016841F078
:1041700080510160006800F080501190194801687A
:1041800041F4404101600068102100F4404011906A
:104190000A2000900120CDE903010225CDE90505A3
:1041A0000820CDE907406420CDE9090504200B90E3
:1041B0006846FDF799FA08B172B6FEE70F20CDE91F
:1041C0000C054FF48050CDE90E4003210CA810944B
:1041D000FDF790F9002801D072B6FEE713B030BDAC
:1041E00040380240007000400248016841F470010C
:1041F0000160704788ED00E00148FEF736B8000026
:10420000C80400200148FEF730B800001005002067
:10421000F0B50268204B214C9F03214D214E98425E
:1042200007D0B84205D0A04203D0A84201D0B04286
:1042300004D122F0700C4A6842EA0C02984210D075
:10424000B8420ED0A0420CD0A8420AD0B04208D04A
:10425000154CA04205D0154CA04202D0144CA042EF
:1042600003D122F44074CA6822434C6922F08002D0
:10427000224302608A68C2620A688262984201D15F
:1042800009690163012141610169C90703D001691D
:1042900021F001010161F0BD000001400004004077
:1042A00000080040000C0040004001400044014074
:1042B00000480140FEE70907090E002804DB00F171
:1042C000E02080F80014704700F00F0000F1E020BB
:1042D00080F8141D704702E008C8121F08C1002AA8
:1042E000FAD170477047002001E001C1121F002A77
:1042F000FBD17047FCF792FFFFF72CFFFEF7BAFDEA
:10430000FEF770FDFEF74CFEFEF73AFDFEF728FEC5
:10431000FEF78AFEFEF7AEFEFEF782FD00F01BF808
:10432000FEE701460020842900D0C81C7047000029
:104330000B0A43EA012189B203E000BF20F8021B07
:10434000521E002AFAD1704710B500B9012000F0C2
:1043500023FB002010BD10B500F044FB002010BD71
:104360007FB50D4604464169B0F9080081B1A169E5
:1043700071B1FFF7D6FFD4E905128DE80700D4E943
:1043800000102B46226900F040FC039004B070BD81
:10439000FFF7C7FF03A9CDE90001208A2B4682B2AF
:1043A000D4E9001000F004FC012801D00020EDE762
:1043B0000398EBE72DE9F041184C0F460546E668F7
:1043C0002068001D00F020FA38B9206890F82C1001
:1043D00001208840216981432161681C07D137B1E0
:1043E0002168BDE8F0410E48091D00F051BA20686F
:1043F0003544B5424560216805D2A06BBDE8F04167
:10440000091D00F02DBA606B091D00F029FAA06AA1
:10441000854200D2A562BDE8F08100001C000020AA
:10442000340600202DE9F041054600F03DFA2E4CFF
:10443000A068401CA06020682C4F10B1606940B398
:104440002DE02560A068012829D1002606EB860012
:1044500007EB800000F0F6F9761C072EF6D3234810
:104460008C3000F0EFF92148A03000F0EBF91F4844
:10447000B43000F0E7F91D48C83000F0E3F91B48FC
:10448000DC3000F0DFF919488C3060631430A06331
:1044900005E02068E96AC06A884200D82560606A41
:1044A000401C6062E96A0120226988401043206153
:1044B00001EB810007EB8000291D00F0E9F900F015
:1044C00013FA606900280CD02068E96AC06A884243
:1044D00007D207494FF080500860BFF34F8FBFF3FA
:1044E0006F8FBDE8F08100001C00002058050020FF
:1044F00004ED00E010B5044690F8510058B10128D1
:104500000CD002280FD0502080F31188BFF34F8FBA
:10451000BFF36F8FFEE7206B00F0FAF92046BDE88D
:10452000104000F0F5B910BD10484FF4705142072B
:1045300006D0C01D0D4920F00700411AC1F5705189
:104540000B4A00230144C2E900030839183A21F05C
:10455000070111604B600B600B1AC0E900139360F8
:104560004FF0004053605061704700004806002043
:1045700070000020144E154CA6F1C8074FF080586B
:10458000DFF84C9012E000BF00F08EF9F068C568CB
:10459000281D00F039F9A068401EA0606068401E28
:1045A000606000F0A1F92846FFF7A4FF60680028CA
:1045B000EAD138680128F9D9C9F80080BFF34F8FD4
:1045C000BFF36F8FF2E70000200600201C000020E0
:1045D00004ED00E02DE9F0479A46DDE909848146C3
:1045E0006FF00303206B03EB82021044089E20F05F
:1045F0000707780707D0502080F31188BFF34F8F4B
:10460000BFF36F8FFEE7002561B1002023180A5C1D
:1046100083F834200A5C12B1401C1028F6D384F8C9
:10462000435001E084F83450072E00D30626E6629A
:10463000C4E91165201D00F010F904F1180000F024
:104640000CF92461C6F107006462A061E56484F896
:10465000505052464946384600F0C0F82060B8F144
:10466000000F01D0C8F80040BDE8F08730B511490F
:1046700000E011460A688242FBD34B685C18844212
:1046800003D1406818444860084643681C189442A7
:1046900009D1084C183C2468A24209D052681A4437
:1046A00042600A6812680260814200D0086030BD32
:1046B0000460F9E7700000200648416B096829B1E1
:1046C000416BC968C9684968816270474FF0FF3122
:1046D000FAE700001C00002008484068401C4FF02A
:1046E000500080F3118804D0BFF34F8FBFF36F8F5A
:1046F000FEE7BFF34F8FBFF36F8FFEE77800002018
:104700002DE9F0410546002700F0A2F9324E30684D
:1047100008B9FFF709FF706905424ED1C5B30835E6
:1047200068070ED005F00700C0F1080005446807CF
:1047300007D0502080F31188BFF34F8FBFF36F8FE6
:10474000FEE72DB37068854237D8234818300146FC
:104750000C6801E020460C466168A94202D221683B
:104760000029F7D131688C4227D0076821680160A1
:1047700060680837411B10290FD96019420708D01B
:10478000502080F31188BFF34F8FBFF36F8FFEE788
:1047900013E041606560FFF769FF61687068401A67
:1047A0007060B268904200D2B0607069014300202E
:1047B000C4E90001F068401CF06000F0B7FA780727
:1047C00007D0502080F31188BFF34F8FBFF36F8F56
:1047D000FEE73846BDE8F0815800002010B5031F01
:1047E0004FF080741C601B1F21F001011960191F1C
:1047F000044B0B6014390A60091F6FF00202443841
:104800000A6010BDD9460008D0E9013201699A60FA
:10481000D0E901235A604A68824201D182684A6025
:10482000002202610868401E0860086870470000A6
:10483000034B036003F15400086080201060704750
:10484000A000002000F108014FF0FF32C0E9011282
:10485000C160016100210160704700210161704762
:1048600030B50B685A1C02D000F1080202E0026960
:1048700004E02246546825689D42FAD953684B608B
:1048800099608A60516008610168491C016030BD0F
:1048900042684A6093688B609368596091600861D0
:1048A0000168491C01607047502080F31188BFF3F4
:1048B0004F8FBFF36F8F0A494868401C486001283A
:1048C0000CD10848006810F0FF0F07D0502080F38B
:1048D0001188BFF34F8FBFF36F8FFEE77047000063
:1048E0007800002004ED00E00849486828B1401E27
:1048F000486001D180F311887047502080F31188FF
:10490000BFF34F8FBFF36F8FFEE7000078000020EA
:1049100070B500282AD0164DA0F1080460686969B6
:10492000084207D1502080F31188BFF34F8FBFF3A7
:104930006F8FFEE722683AB1502080F31188BFF3F1
:104940004F8FBFF36F8FFEE78843606000F080F801
:1049500060686968084468602046FFF787FE286938
:10496000401C2861BDE8704000F0E0B970BD000057
:10497000580000204FF0E0200021016181610549CD
:104980004FF47A720968B1FBF2F1491E41610721C7
:10499000016170471800002010B5020014D00F48C4
:1049A000006B38B1502080F31188BFF34F8FBFF3F5
:1049B0006F8FFEE700F04CF800211046FFF7FAFC7D
:1049C00000F0B4F9002807D105494FF08050086085
:1049D000BFF34F8FBFF36F8F10BD00001C0000208E
:1049E00004ED00E010B586B00024039405AA04A9E4
:1049F00003A80494FFF71CFFDDE903010094CDE94F
:104A0000011000230EA11048059A00F0FEF80F498E
:104A10000028C86211D0502080F31188BFF34F8F57
:104A2000BFF36F8F4FF0FF30886201204861CC6088
:104A300006B0BDE8104000F041B806B010BD00005F
:104A400049444C4500000000754500081C0000204A
:104A50000248016B491C0163704700001C000020E4
:104A60001448016B11B10121C16170470021C1617E
:104A70000169B1FA81F1C1F11F0101EB81020E4917
:104A800051F822306BB101EB820101F108034A6851
:104A900052684A609A4201D152684A60D168016006
:104AA0007047502080F31188BFF34F8FBFF36F8F93
:104AB000FEE700001C000020580500201CB5374808
:104AC0000168374A914207D1502080F31188BFF323
:104AD0004F8FBFF36F8FFEE700683149491E884250
:104AE00007D1502080F31188BFF34F8FBFF36F8F32
:104AF000FEE72C4908780190FF20087008788DF8AF
:104B000000009DF800009DF8002000F0F0009042A9
:104B100007D0502080F31188BFF34F8FBFF36F8F02
:104B2000FEE79DF80000204C00F0500020700720A8
:104B3000A06005E09DF8002052008DF80020401E86
:104B40009DF800201206F5D4A060032807D050205D
:104B500080F31188BFF34F8FBFF36F8FFEE74FF4E1
:104B60004070A060019808700C482030016841F442
:104B700070010160016841F070410160FFF7FAFEC9
:104B800000206060FBF738FB0848016841F04041B5
:104B90000160FBF71DFB00201CBD000000ED00E0E4
:104BA00071C20F4100E400E07800002034EF00E023
:104BB0002DE9FF5F8346DDE90E87994616468A4652
:104BC0009000FFF79DFD05001CD05420FFF798FDD5
:104BD000040014D00020256384F85100CDE9024080
:104BE000CDE900874B46324651465846FFF7F2FC66
:104BF0002046FFF717FC012004B0BDE8F09F2846CF
:104C0000FFF786FE4FF0FF30F6E7F0B585B0DDE93F
:104C10000B640A9DA6B1DCB15427009726630226D7
:104C200084F85160002604AFCDE90246CDE9005773
:104C3000FFF7D0FC2046FFF7F5FB049805B0F0BD68
:104C4000502080F31188BFF34F8FBFF36F8FFEE7C3
:104C5000502080F31188BFF34F8FBFF36F8FFEE7B3
:104C60002DE9F0412F4C0026206B28B1A069401C93
:104C7000A0613046BDE8F081E5686D1CE56013D1A8
:104C8000606B006838B1502080F31188BFF34F8FFC
:104C9000BFF36F8FFEE7606BA16B6163A063206A57
:104CA000401C2062FFF708FDA06ADFF87C80854287
:104CB00009D3606B0068A0B1606BC068C768786892
:104CC000854211D2A0622068C06A00EB800158F8CA
:104CD0002100012800D90126E0690028C9D0012659
:104CE000C7E74FF0FF30EDE7381DFFF78DFDB86ADD
:104CF00018B107F11800FFF787FDF96A0120226952
:104D000088401043206101EB810108EB8100391DCF
:104D1000FFF7BEFDF86A2168C96A8842C9D3012637
:104D2000C7E700001C000020580500202DE9F047CF
:104D30002C4D00242746286B38B1FFF7B5FD286BB2
:104D4000401E2863286B40B146E0502080F3118854
:104D5000BFF34F8FBFF36F8FFEE7A968224E01208C
:104D6000D1B3A6F1B40980463068E8B1F068C468F0
:104D700004F11800FFF748FD201DFFF745FDE06A2C
:104D80002A6908FA00F11143296100EB800109EB5F
:104D90008100211DFFF77CFDE06A2968C96A88420D
:104DA000E2D3C5F81C80DFE70CB1FFF785FCAC69E6
:104DB00044B14646FFF754FF00B1EE61641EF9D1DD
:104DC0000020A861E86938B1084901273807086060
:104DD000BFF34F8FBFF36F8FFFF786FD3846BDE8F7
:104DE000F08700001C0000200C06002004ED00E00D
:104DF0008CF60008D1400008000000000000000010
:104E000080000000000000000000000084F60008A0
:104E1000ED400008FDFF00000000000080000000E1
:104E2000000000000000000078F600080D410008B6
:104E3000FDFF0000000000008000000000000000F6
:104E4000000000000006101600061016000000000A
:104E5000000000000102030406070809000000002A
:104E60000102030400000000000000000000000038
:104E700000000000000000000010001000100010F2
:104E800000100010000000100000000000280028A2
:104E900000280000000000000000000000000000EA
:104EA00000240024007C00240048007C00480048C6
:104EB0000000000000380054005000380014005476
:104EC000005400380010000000200054005800304A
:104ED0000028005400140008000000000010002802
:104EE0000028001000340048004800340000000092
:104EF0000010001000100000000000000000000082
:104F00000000000000080010002000200020002009
:104F100000200020001000080020001000080008F9
:104F200000080008000800080010002000100038E9
:104F30000010002800000000000000000000000039
:104F40000000000000100010007C001000100000A5
:104F50000000000000000000000000000000000051
:104F60000000001000100010000000000000000011
:104F700000000038000000000000000000000000F9
:104F80000000000000000000000000100000000011
:104F90000008000800100010001000100020002081
:104FA0000000000000380044004400540044004465
:104FB00000440038000000000010003000500010D5
:104FC0000010001000100010000000000038004425
:104FD00000440004000800100020007C00000000D5
:104FE00000380044000400180004000400440038A5
:104FF0000000000000080018002800280048007C7D
:105000000008000800000000007C0040004000781C
:105010000004000400440038000000000038004490
:1050200000400078004400440044003800000000C4
:10503000007C000400080010001000200020002068
:1050400000000000003800440044003800440044E0
:1050500000440038000000000038004400440044D0
:10506000003C000400440038000000000000000084
:105070000010000000000000000000100000000010
:105080000000000000000010000000000000001000
:105090000010001000000000000C00300040003044
:1050A000000C000000000000000000000000007C78
:1050B0000000007C00000000000000000000000074
:1050C00000600018000400180060000000000000EC
:1050D0000038004400040008001000100000001018
:1050E0000000000000380044004C0054005C004008
:1050F00000400038000000000010002800280028B0
:105100000028007C004400440000000000780044B7
:10511000004400780044004400440078000000008F
:105120000038004400400040004000400044003887
:1051300000000000007000480044004400440044A7
:105140000048007000000000007C00400040007C2F
:10515000004000400040007C00000000007C004057
:105160000040007800400040004000400000000087
:105170000038004400400040005C00440044003817
:1051800000000000004400440044007C004400444F
:10519000004400440000000000380010001000101F
:1051A000001000100010003800000000000400048F
:1051B0000004000400040004004400380000000063
:1051C000004400480050006000500048004800447F
:1051D000000000000040004000400040004000404F
:1051E0000040007C000000000044006C006C005493
:1051F00000440044004400440000000000440064F7
:10520000006400540054004C004C004400000000B6
:105210000038004400440044004400440044003886
:105220000000000000780044004400440078004082
:1052300000400040000000000038004400440044EA
:10524000004400440054003800040000007800448A
:10525000004400440078004800480044000000007A
:1052600000380044004000300008000400440038CA
:1052700000000000007C0010001000100010001062
:1052800000100010000000000044004400440044EE
:105290000044004400440038000000000044004482
:1052A0000044002800280028001000100000000022
:1052B00000440044005400540054006C00280028AE
:1052C0000000000000440028002800100010002802
:1052D000002800440000000000440044002800288A
:1052E000001000100010001000000000007C0004FE
:1052F00000080010001000200040007C00000000AA
:105300000018001000100010001000100010001015
:1053100000100018002000200010001000100010E5
:10532000000800080000000000300010001000100D
:1053300000100010001000100010003000100028B5
:1053400000280044000000000000000000000000F1
:10535000000000000000000000000000000000004D
:10536000000000FE0020001000000000000000000F
:1053700000000000000000000000000000380044B1
:10538000003C0044004C003400000000004000409D
:10539000005800640044004400640058000000000D
:1053A0000000000000380044004000400044003885
:1053B00000000000000400040034004C00440044DD
:1053C000004C0034000000000000000000380044E1
:1053D000007C00400044003800000000000C001079
:1053E000007C0010001000100010001000000000F1
:1053F000000000000034004C00440044004C003425
:10540000000400780040004000580064004400445C
:105410000044004400000000001000000070001074
:10542000001000100010001000000000001000002C
:10543000007000100010001000100010001000E0BC
:105440000040004000480050006000500048004408
:10545000000000000070001000100010001000108C
:105460000010001000000000000000000078005450
:1054700000540054005400540000000000000000DC
:105480000058006400440044004400440000000050
:10549000000000000038004400440044004400388C
:1054A00000000000000000000058006400440044B8
:1054B0000064005800400040000000000034004C30
:1054C00000440044004C00340004000400000000CC
:1054D0000058006400400040004000400000000010
:1054E000000000000038004400300008004400388C
:1054F0000000000000200020007800200020002094
:1055000000200018000000000000000000440044DB
:1055100000440044004C0034000000000000000083
:10552000004400440028002800280010000000006B
:1055300000000000005400540054006C00280028B3
:1055400000000000000000000044002800100010CF
:105550000028004400000000000000000044004457
:10556000002800280010001000100060000000005B
:10557000007C0008001000200040007C00000000BB
:105580000018001000100010002000200010001073
:105590000010001800100010001000100010001083
:1055A000001000100010001000300010001000105B
:1055B000000800080010001000100030000000007B
:1055C00000000074004C000000000000000000001B
:1055D00000000000000000000000000000000000CB
:1055E00000000000000000000000000000000000BB
:1055F000000000000000000C000C000C000C000C6F
:10560000000C000C000C000C000C000C0000000C46
:10561000000C0000000000000000001B001B001B2D
:10562000001B001B00000000000000000000000044
:1056300000000000000000000000000000008019D1
:10564000801980198019C07FC07F80190033C07F06
:10565000C07F00330033003300330000000000003F
:105660000000001E003F807580650074003C001E35
:1056700000078005806580658075003F001E00047E
:10568000000400000000007000D840D8C0D880D9C5
:1056900000730006000C801BC036C066C046C00602
:1056A00080030000000000000000001E003F0033E7
:1056B00000330033001E000CC03CC0668063806174
:1056C0008063C03E801C0000000000000000000C51
:1056D000000C000C000C000C00000000000000009A
:1056E00000000000000000000000000000000000BA
:1056F000800000010003000600060004000C000CFE
:10570000000C000C000C000C000400060006000356
:1057100000018000002000100018000C000C0004A4
:105720000006000600060006000600060004000C45
:10573000000C0018001000200000000C002D003F9D
:10574000001E003300000000000000000000000008
:105750000000000000000000000000000000000049
:105760000000000C000C000C000CC0FFC0FF000C7F
:10577000000C000C000C0000000000000000000005
:105780000000000000000000000000000000000019
:1057900000000000000000000000000C000C0004ED
:1057A00000040008000000000000000000000000ED
:1057B000000000000000001E001E000000000000AD
:1057C00000000000000000000000000000000000D9
:1057D00000000000000000000000000000000000C9
:1057E0000000000C000C000000000000000000039E
:1057F000000300030006000600060006000C000C73
:10580000000C000C00180018001800000000000038
:105810000000001E003F0033806180618061806D68
:10582000806D8061806180610033003F001E000058
:105830000000000000000006000E001E00360026DA
:105840000006000600060006000600060006000628
:1058500000060000000000000000001E003F8073F2
:1058600080618061800100030006000C0018003098
:105870000060807F807F0000000000000000001CAE
:10588000003E006300630003000E000E0003800171
:10589000800180618073003F001E00000000000056
:1058A00000000006000E000E001E001E001600364E
:1058B00000360066807F807F00060006000600003C
:1058C000000000000000007F007F006000600060BA
:1058D000006E007F80638001800180618073003FE3
:1058E000001E0000000000000000001E003F80338A
:1058F00080610060006E007F8073806180618061E4
:105900008033003F001E0000000000000000807F88
:10591000807F80010003000300060006000C000CDD
:10592000000C00080018001800180000000000001B
:105930000000001E003F8063806180610021001E26
:10594000003F8061806180618061003F001E000037
:10595000000000000000001E003F007380618061B5
:1059600080618073803F801D800180610073003FF3
:10597000001E000000000000000000000000000009
:105980000000000C000C00000000000000000000FF
:105990000000000C000C00000000000000000000EF
:1059A0000000000000000000000C000C00000000DF
:1059B000000000000000000C000C000400040008BF
:1059C000000000000000000080008003000E00388E
:1059D00000600038000E800380000000000000001E
:1059E0000000000000000000000000000000807FB8
:1059F000807F00000000807F807F000000000000AA
:105A00000000000000000000000000000000000096
:105A100000400070001C000780010007001C00709F
:105A20000040000000000000000000000000001F17
:105A3000803FC071C060C000C00180030007000E3D
:105A4000000C000C0000000C000C00000000000026
:105A50000000001E003F803180718063806F806D88
:105A6000806D806F806700600032003E001C000087
:105A7000000000000000000E000E001B001B001BB9
:105A8000001B80318031803F803F8031C060C0602A
:105A9000C0600000000000000000007C007E006389
:105AA000006300630063007E007E006380618061AC
:105AB0008063007F007E0000000000000000001EE8
:105AC000003F803180610060006000600060006025
:105AD000006080618031003F001E00000000000077
