:020000040800F2
:1000000098AB0120650300085154000867410008BF
:10001000B9530008751D0008C35F00080000000008
:10002000000000000000000000000000A502000821
:10003000691E00080000000001030008655C00085C
:100040007F0300087F0300087F0300087F03000888
:100050007F0300087F0300087F0300087F03000878
:100060007F0300087F0300087F0300087F03000868
:100070007F0300087F0300087F0300087F03000858
:100080007F0300087F0300087F03000800000000D2
:100090000000000000000000000000007F030008D6
:1000A0007F030008315D00087F0300087F0300081C
:1000B0003D5D00087F030008495D000875410008A8
:1000C000694100087F0300087F03000855540008B9
:1000D0007F0300087F0300087F0300080000000082
:1000E0007F0300087F0300087F0300080000000072
:1000F0000000000000000000000000007F03000876
:10010000000000007F0300087F0300087F03000851
:1001100000000000000000000000000000000000DF
:10012000AD1D00087F030008B91D00087F0300080B
:100130007F03000800000000000000000000000035
:100140000000000000000000000000007F03000825
:100150007F0300087F0300087F0300087F03000877
:100160007F0300087F03000800000000000000007B
:10017000000000000000000000000000000000007F
:10018000000000007F0300080000000000000000E5
:100190007F0300087F03000800F002F800F072F807
:1001A0000AA090E8000C82448344AAF10107DA45D2
:1001B00001D100F067F8AFF2090EBAE80F0013F0B2
:1001C000010F18BFFB1A43F00103184764660400CF
:1001D000846604000A444FF0000C10F8013B13F051
:1001E000070408BF10F8014B1D1108BF10F8015B90
:1001F000641E05D010F8016B641E01F8016BF9D183
:1002000013F0080F1EBF10F8014BAD1C0C1B09D1D9
:100210006D1E58BF01F801CBFAD505E014F8016B4B
:1002200001F8016B6D1EF9D59142D6D370470000DD
:100230000023002400250026103A28BF78C1FBD8EF
:10024000520728BF30C148BF0B607047662930F0A5
:100250003D85642900F05A81002070471FB530F0B9
:1002600030FD00F077FE04000020002130F05EFB3E
:10027000401C60600020002130F042FBE0601FBDA8
:1002800010B510BD00F0D1FF1146FFF7E7FF27F0D2
:10029000A7FA00F0FDFF03B4FFF7F2FF03BC01F083
:1002A00001F800002C4B19680868B0E8F04F80F3A3
:1002B0000988BFF36F8F4FF0000080F311887047FB
:1002C0000000000008480068006880F308884FF0CC
:1002D000000080F3148862B661B6BFF34F8FBFF39E
:1002E0006F8F00DF00BF00BF08ED00E0DFF80C00FB
:1002F000016841F470010160704700BF88ED00E0C3
:10030000EFF30980BFF36F8F134B1A681EF0100FC5
:1003100008BF20ED108A20E9F04F106009B44FF0BB
:10032000500080F31188BFF34F8FBFF36F8F2FF012
:1003300089FC4FF0000080F3118809BC1968086837
:10034000B0E8F04F1EF0100F08BFB0EC108A80F339
:100350000988BFF36F8F704748000020EFF30580D6
:10036000704700000948804709480047FEE7FEE75C
:10037000FEE7FEE7FEE7FEE7FEE7FEE7FEE7FEE755
:1003800004480549054A064B70470000215D0008F6
:10039000990100089889012098AB0120988B0120D1
:1003A000988B012053EA020C00F069802DE9F04B94
:1003B0004FF00006002B1FBFB3FA83F503FA05F4D4
:1003C00024FA05F65E4012BF1643B2FA82F502FA2D
:1003D00005F4C5F120051EBF22FA05FC44EA0C0411
:1003E000203556EA044C4FEA144418BF641C4FF001
:1003F00000084FF00009904271EB030C39D300293B
:1004000019BFB1FA81F701FA07F6B0FA80F700FADE
:1004100007F6C7F120071EBF20FA07FC46EA0C06C4
:100420002037B6FBF4FCA7EB0507103F07F01F0BC6
:10043000CBF120060CFA0BFB2CFA06F644BFB346B0
:100440000026202FA4BF5E464FF0000B5BEA060C8F
:1004500008BF4FF0010B19EB0B09ABFB027C48EB1B
:100460000608C01B06FB02CC0BFB03CC71EB0C0196
:10047000C1E70B46024641464846BDE8F08B13B53E
:100480004FF000004FF00001AFF30080BDE81C40CA
:10049000704700000FB41CB5074B06AA7B446946A1
:1004A0000090059800F0D7FC0020694600F0E6FCBB
:1004B0001CBC5DF814FB0000DD09000070B50446AB
:1004C00085690068C10601D5302600E02026C007F6
:1004D00007D070BDD4E9012130469047206A401C06
:1004E00020626D1EF6D570BD70B504468569007832
:1004F000C00707D170BDD4E9012120209047206AB0
:10050000401C20626D1EF6D570BD00002DE9F04143
:100510000646002410687529314616A510D0AFF3A1
:100520000080002802DA404213A507E031688A07FC
:1005300001D512A502E0490704D511A5012401E067
:10054000AFF3008000210A2206F1240709E0B0FB86
:10055000F2FCB0FBF2F302FB1C003030785418467A
:10056000491C0028F3D123462A463046BDE8F04115
:1005700000F004BA000000002D0000002B00000075
:10058000200000002DE9F05F894604464FF0000A84
:10059000DFF824B1FB44C0F820A02046E16888477A
:1005A00000287DD0252806D0D4E901219047206A73
:1005B000401C2062F1E700255F462046E16888473D
:1005C0002028064607DB312E05D2B81910F8200C7A
:1005D00008B10543F1E7A80701D525F00405C4F8E3
:1005E0001CA00027C4F818A02A2E09D0304605F018
:1005F0002FFD38B304EB8708303EC8F8186019E0C7
:1006000059F8041B204604EB87029161E168884792
:10061000012F064618D1E069002820DA25F02005D0
:100620001DE0D8F8180000EB800006EB40003038E1
:10063000C8F818002046E1688847064605F008FD1E
:100640000028EED1012F0AD02E2E08D12046E168D5
:1006500088477F1C0646022F45F02005C4DBA069B1
:10066000002803DA404245F00105A061E80701D007
:1006700025F01005A6B1A6F14100192802D82036B0
:1006800045F400654A463146204625604D46FFF751
:10069000DDFD60B1012807D0ED1D25F0070000E069
:1006A00007E000F1080978E705F1040975E730462D
:1006B0007AE7206ABDE8F09F305C040070B506461A
:1006C00000F058F90468054630460A22002100F07F
:1006D000DAFB2C6070BD0000014A00F00DBC000088
:1006E0007006002040EA0103024630B59B0710D196
:1006F0004FF0013400E008C208C91D1B9D4315EAF4
:10070000C41FF8D013F0FF0102F8011B0DD01B0A23
:10071000F8E711F8013B002B02F8013B05D011F876
:10072000013B002B02F8013BF3D130BD10B5431C57
:1007300002E010F8011B71B18107FAD14FF00132CC
:1007400002C88C1A8C4314EAC211F9D0C01A0A06E6
:1007500003D0C01E10BDC01A10BD0A0401D0801EF7
:1007600010BD0902FCD0401E10BD032A40F23080AB
:1007700010F0030C00F0158011F8013BBCF1020FE2
:10078000624498BF11F801CB00F8013B38BF11F863
:10079000013BA2F1040298BF00F801CB38BF00F87A
:1007A000013B11F0030300F02580083AC0F00880F7
:1007B00051F8043B083A51F804CBA0E80810F5E7DB
:1007C000121D5CBF51F8043B40F8043BAFF30080BE
:1007D000D20724BF11F8013B11F801CB48BF11F833
:1007E000012B24BF00F8013B00F801CB48BF00F803
:1007F000012B704710B5203AC0F00B80B1E81850BB
:10080000203AA0E81850B1E81850A0E81850BFF4FA
:10081000F5AF5FEA027C24BFB1E81850A0E8185099
:1008200044BF18C918C0BDE810405FEA827C24BFED
:1008300051F8043B40F8043B08BF7047D20728BF7B
:1008400031F8023B48BF11F8012B28BF20F8023BCA
:1008500048BF00F8012B70474FF000020429C0F098
:10086000128010F0030C00F01B80CCF1040CBCF1E2
:10087000020F18BF00F8012BA8BF20F8022BA1EB34
:100880000C0100F00DB85FEAC17C24BF00F8012B19
:1008900000F8012B48BF00F8012B70474FF0000211
:1008A00000B5134694469646203922BFA0E80C5066
:1008B000A0E80C50B1F12001BFF4F7AF090728BF41
:1008C000A0E80C5048BF0CC05DF804EB890028BFBD
:1008D00040F8042B08BF704748BF20F8022B11F0E6
:1008E000804F18BF00F8012B704700004FF0013C0B
:1008F00050F8042B51F8043B9A4221D1A2EB0C038F
:10090000934313EACC1317D150F8042B51F8043B4E
:100910009A4215D1A2EB0C03934313EACC130BD1EB
:1009200050F8042B51F8043B9A4209D1A2EB0C0376
:10093000934313EACC13DBD04FF00000704700BFA5
:10094000D01A01BAB1FA81F101F0180122FA01F0CE
:10095000CB40C1F12001DBB2C0B2C01A2CFA01F3C6
:10096000D11A914311EAC311E6D17047704770471D
:100970007047000000487047388901202DE9F04792
:100980000D4699469246044600F1240801688806FF
:1009900004D5E06921F01001216000E00120A842A7
:1009A00001DD471B00E00027A1697A1902EB09006D
:1009B000081AA0612078C00602D42046FFF77EFD09
:1009C000002608E0D4E901211AF806009047206AC1
:1009D000401C761C20624E45F4DB2078C0060AD508
:1009E0002046FFF76BFD06E0D4E901213020904757
:1009F000206A401C2062381EA7F10107F4DC07E0E2
:100A0000D4E9012118F805009047206A401C2062B3
:100A1000281EA5F10105F3DC2046FFF765FD2078CF
:100A2000000602D50220BDE8F0870120FBE77047F1
:100A30002DE9FF4F0C461E464FF0FF378BB0D2E931
:100A40000001DDF860800A908A46C1F30A5505B9B5
:100A50003D46002108464FF00000BAF1000F00F4B7
:100A6000400005DA00EB80004FF4400101EA50003D
:100A70004FEA9059B9F1010F00DDB9460A9850EAE2
:100A80004A000ED044F61050A5F2FF3545432F140E
:100A9000B8F1000F1ED07542291E1EDDC9F10002FB
:100AA0001CE0B8F1010F4FF0000001D0302103E04D
:100AB000F24305E02154401CB042FBDB30460022EB
:100AC000002121540B99C1F80880C1E900200FB022
:100AD000BDE8F08FBD1B6D1CDEE74A4600DA6942B7
:100AE00006A800F011FB06AB93E8070003AB83E810
:100AF000070050460A9900F0DBFB8DE80700A0F5DF
:100B000000501F3800900398002D0ADD42F21F01AB
:100B10004A460844002303A90390684600F044FEB7
:100B200009E0A0F500504A461F38002303A90390AE
:100B3000684600F04EFE8DE807000004000C03D06C
:100B40004FF0FF30410800E01046B8F1000F03D02D
:100B50000022009215461EE0751E05D400F0FEF935
:100B6000303262556D1EF9D5B3460122084302D0DA
:100B700000227F1C04E02078302801D100227F1E53
:100B8000002A099784D01DE0112D07DA00F0E6F95C
:100B9000303262556D1C50EA0102F5D1084302D093
:100BA0000098C8B10EE00021681E05E0235C625C7D
:100BB00063542254401E491C8142F7DBAB46A81BFC
:100BC000401E0990002004F80B000B98099AC0F809
:100BD0000880C0E9002B7AE711264FF0000857E79C
:100BE0002DE9F04F88460446D21D22F0070191B04E
:100BF000D1E90001CDE90A0105F0E4F902460B98BC
:100C0000C00F01D02D2007E02068810701D52B20DF
:100C100002E0202101EAC000032A099001D0072A3E
:100C200005DB03464146204600F0DEF90BE1207863
:100C3000800601D5E06900E00620B8F1650F814625
:100C400006D0B8F1660F18D0B8F1670F70D131E057
:100C50000020B9F1110F009001DB112301E009F12F
:100C600001030AAA01A90CA8FFF7E2FEDDE90C7056
:100C7000002609F10105834647E001204B4600901C
:100C80004FF000470AAA01A90CA8FFF7D1FEDDE941
:100C90000DB00C995D46002610B909F101000D1840
:100CA000B9EB050003D4C0F1FF3609F10105A5EB4E
:100CB00009002BE0B9F1010F01DA4FF00109002022
:100CC000B9F1110F0090484601DD112300E0034601
:100CD0000AAA01A90CA8FFF7ABFEDDE90C704D468E
:100CE00000268346207800070AD4AB4500DA5D462B
:100CF00001A8012D04DD411911F8011C302907D08C
:100D00004F4502DA17F1040F04DA012082460FE0A2
:100D10006D1EEEE7002F02DCED1B3E4403E0781C65
:100D2000A84200DD7D1CB81B00F1010A4FF000470E
:100D30002078000703D4AA4501DB4FF0FF3A0021D9
:100D4000B7F1004F0DF143088DF8431024D0022075
:100D50002B23002F01DA7F422D230A21021EA0F14E
:100D6000010000DC5FB197FBF1FC97FBF1F201FBA6
:100D70001C7C17460CF1300C08F801CDEEE7A8F109
:100D8000010003702188090501D5452100E0652196
:100D9000A0F1010800F8011C09980FA9A1EB0807B0
:100DA000FF1D00B10120411901EBEA70A16938442F
:100DB000081A401EA0612078C00602D42046FFF722
:100DC0007DFB099828B1D4E901219047206A401C95
:100DD00020622078C00622D52046FFF76FFB1EE078
:100DE000002E04DBB34502DD01A8805D00E0302069
:100DF000D4E901219047206A401C2062761CAAF1A8
:100E000001005FEA000A0AD100F0A4F8C068016896
:100E1000405CD4E901219047206A401C2062281ED2
:100E2000A5F10105DCDC07E0D4E9012118F8010B8C
:100E30009047206A401C2062381EA7F10107F3DCAE
:100E40002046FFF751FB032011B041E601694A1C1F
:100E500002610878704700B58FB0CDE901310021FB
:100E6000059105497944CDE9031011466846FFF71D
:100E700089FB0FB000BD0000E5FFFFFF0A6802F824
:100E8000010B0A6070472DE9F04791460F468046F6
:100E90000446002614F8015B2DB100F053F80068F9
:100EA000405DC007F6D12B2D02D02D2D18D0641E29
:100EB0004A463946204600F0D7F827B13968A142A2
:100EC00001D1C7F800804FF0020471050BD54042F4
:100ED000002803DDFFF74EFD0460A007BDE8F087A2
:100EE00046F48066E4E70028F8DAFFF743FD046083
:100EF0006FF00040F2E700002DE9F04115460E4684
:100F0000040002D12C6804B90BA4204600F07EF93D
:100F10000444207870B127463146384600F066F91F
:100F20000444207810B1002004F8010B38462C60EE
:100F3000BDE8F0810027F9E7000000000048704795
:100F40003889012010B500F005F8001D10BD00BF64
:100F5000DDF90200004870475889012030B5B0F132
:100F60000A024FEA900E71F100034EEA817EB0EB67
:100F70000E0061EB91014FEA101E4EEA017E10EB6C
:100F80000E0041EB11114FEA102E4EEA016E10EBEC
:100F90000E0041EB11214FEA104E4EEA014E10EBCC
:100FA0000E0041EB1141401841F100014FEAD00021
:100FB00040EA41704FEAD10110EB80054FEA81040D
:100FC00044EA907444EB01046D1944EB0404521B91
:100FD000A3414FF0000348BF0A3200D530BD401C8A
:100FE00041F1000130BD00002DE9F0411F460446EB
:100FF00003260168072A01F4006004DB08B116A586
:1010000005E016A503E008B115A500E015A521F03F
:1010100010002060A069C01EA0610FB1401EA06139
:101020002046FFF74BFA4FB1D4E9012138469047EB
:10103000206A401C2062C01C206206E0206AFAE799
:10104000D4E9012115F8010B9047761EF8D220460D
:10105000FFF74AFABDE8F0814E414E006E616E0026
:10106000494E4600696E66002DE9F05F82461546DE
:101070008B4600270AF10104B9460078302801D0D8
:101080009DB113E014F8010B0127782803D05828EC
:1010900001D045B10AE00DB1102D07D1002714F899
:1010A000010B102502E0082500E00A250026B046C5
:1010B0000EE005FB080005FB06F101271FFA80F88A
:1010C00001EB1046B6F5803F00D3B94614F8010B8A
:1010D000294600F0CFF80028EBDABBF1000F05D06D
:1010E0000FB1641E00E05446CBF80040B9F1000F88
:1010F00006D0FFF73FFC02210160C81EBDE8F09F4B
:1011000048EA0640FAE700002DE9F0478146164616
:101110008AB0354878440DC88DE80D0032487844CF
:10112000801C03AC0DC884E80D0041F69B300844D8
:10113000372190FBF1F290FBF1F5A5F1800501FB61
:1011400012041B3C02D56442012000E00020DFF8BD
:1011500098A080460027FA44AAF1BE0A0EE0E007F4
:101160000AD03246684607EB470101230AEB8101AA
:1011700000F02FFB8DE8070064107F1C002CEED1DF
:10118000194F7F44AE3F19E0E80715D007EB041074
:101190000DF1180A90E80E008AE80E00C068F042CF
:1011A00001D1981908903246012306A903A800F03E
:1011B00010FB03AB83E807006D10641C002DE3D126
:1011C0004FF0010332466946B8F1000F03A802D080
:1011D00000F0EAFA01E000F0FCFAC9E90001C9F800
:1011E00008200AB0BDE8F0874051040030B503463E
:1011F0001D781DB10A4603E0AC4201D1181A30BD7A
:1012000012F8014B002CF7D15B1CF1E730B5034617
:101210001D783DB10A4612F8014B1CB1AC42FAD11F
:101220005B1CF5E7181A30BD70477546FFF786FE60
:10123000AE4605006946534620F00700854618B0C3
:1012400020B5FFF79DF8BDE820404FF000064FF0B5
:1012500000074FF000084FF0000B21F00701AC46EB
:10126000ACE8C009ACE8C009ACE8C009ACE8C0090A
:101270008D4670473A2800D2303820F02002412AAB
:1012800001D3A2F13700884201D34FF0FF307047FD
:1012900010B50446AFF300802046BDE81040FEF7CD
:1012A000FABF000001491820ABBEFEE7260002008D
:1012B0005FEA400C08BF91F0000F4FEA8C234FEA21
:1012C000C12243EA51514FEA1C5018BF00F5F040CB
:1012D0004FEA300018BF41F000415FEA6C5C00F05B
:1012E0002980BCF1FF3F08BF40F080407047130CDD
:1012F00006BF12044FF0100C4FF0000C130E04BF89
:1013000012020CF1080C130F04BF12010CF1040CB3
:10131000930F04BF92000CF1020CD30F04BF5200D4
:101320000CF1010C11464FF00002A0F11F00A0EBE0
:101330000C00704711F0004F08BF704731F00041BA
:101340003FF4D5AF0B0C06BF09044FF0100C4FF063
:10135000000C0B0E04BF09020CF1080C0B0F04BFAC
:1013600009010CF1040C8B0F04BF89000CF1020C75
:10137000CB0F04BF49000CF1010CCCF12003A0EB12
:101380000C0022FA03F302FA0CF241EA030100F125
:101390000100704720F07F4C80EA030023F07F4774
:1013A000ACEB070303F57C5300F0004003F1FF03AF
:1013B0002DE980494FEA154B09B44FEA144325EA59
:1013C0000B4E24EA03480FF2042606EB13274908C4
:1013D0003E785FEA320203FB0667C7F5000707FBAA
:1013E00006F64FEA54374FEAD64606F1020607FBE7
:1013F000066CCCF1005C4FEA1C472CEA074C07FB5B
:1014000006F40CFB06F504EB15464FEA961634BFBE
:1014100000204FF000404FEAD13706FB07FC4FEAAF
:101420001C4C0CFB0BF7D21B03FB0CF761EB070109
:101430000CFB0EF7B0EB074072EB17420CFB08F702
:1014400034BFA2EB0742B2EB074261EB17414FEA10
:101450000C444FEA910706FB07FC4FEA1C4C0CFBBF
:101460000BF7B0EBC74072EB573203FB0CF734BFFE
:10147000A2EBC742B2EBC74261EB57310CFB0EF750
:10148000B0EBC70072EB57720CFB08F734BFA2EB4E
:10149000C702B2EBC70261EB5771039F4FEA81614C
:1014A00041EA921104EBCC044FEAD1374FEA826251
:1014B00006FB07FC42EA90124FEA80604FEA1C4CA0
:1014C0000CFB0BF7D21B03FB0CF761EB07010CFBCA
:1014D0000EF7B0EB074072EB17420CFB08F734BF76
:1014E000A2EB0742B2EB074261EB17414FEA8C5582
:1014F0004FEA910704EB9C2406FB07FC4FEA1C4CC7
:101500000CFB0BF7B0EBC74072EB573203FB0CF749
:1015100034BFA2EBC742B2EBC74261EB57310CFBC1
:101520000EF7B0EBC70072EB57720CFB08F734BF35
:10153000A2EBC702B2EBC70261EB577115EB4C256A
:101540004FEA816141EA92114FEA82624FEAD13754
:1015500042EA901206FB07FC44F100044FEA806067
:101560004FEA1C4C0CFB0BF7D21B03FB0CF761EB97
:1015700007010CFB0EF7B0EB074072EB17420CFBB8
:1015800008F734BFA2EB0742B2EB074261EB174109
:1015900015EB1C154FEA813141EA92414FEA823244
:1015A00042EA90424FEA80304FEA0C7644F1000460
:1015B00048EA03434EEA0B484FF0000EB2EB080C2A
:1015C00071EB030724BF624639464EEB0E0E4FF017
:1015D000000B0018524149414BEB0B0BB2EB080CCE
:1015E00071EB03077BF1000B24BF624639464EEBDB
:1015F0000E0E4FF0000B0018524149414BEB0B0B04
:10160000B2EB080C71EB03077BF1000B24BF6246C1
:1016100039464EEB0E0E51EA020718BF46F001069E
:1016200016EB0E7655F1000254F1000103D5BDE82A
:101630008901BDE80088BDE88901BDE80048B61908
:10164000524141EB0101A3F10103704780807F7E8D
:101650007D7C7B7A79787776767574737271717028
:101660006F6E6E6D6C6C6B6A6A69686867666665DA
:101670006464636362616160605F5F5E5E5D5D5C68
:101680005C5B5B5A5A5959585857575656555555D9
:101690005454535352525251515050504F4F4F4E39
:1016A0004E4D4D4D4C4C4C4B4B4B4A4A4A49494987
:1016B00048484847474747464646454545444444C9
:1016C000444343434342424242414141002B9C46F2
:1016D00030D477002BD01CB54FEA370703B44FF056
:1016E00010004FF01001BAF1000F06D0BCF1000F4E
:1016F000DCBF40F0080040F008014FF000000FBCD4
:10170000BDE810400BF1010BBBF1010F08BF5FEA10
:10171000170722BF12F1010211F101014FF0004140
:1017200043F1000300F0004043EA00007047F9D3A2
:101730005708D0E746EA064613F1400F4FEA16462F
:101740001FDD13F1200FDFBF16430A4600212033AF
:101750005B42BED0C3F1200746EA064602FA07F70D
:101760004FEA164646EA0706C3F1200722FA03F2BB
:1017700001FA07F721FA03F14FF0000342EA0702EA
:10178000A7E746EA020646EA06464FEA164646EA52
:101790000106BCBF46EA0646360C4FF000034FF088
:1017A00000024FF0000194E72DE9804C9A469346E1
:1017B00070B491E8380007C831EA400C48BF34EAF9
:1017C000430C03D5FFF7E6FDFFF780FFF0BCBDE853
:1017D000008C2DE9804C9A46934670B491E838000D
:1017E00007C810F0804F08BF13F0804F03D100F0FE
:1017F00005F8FFF76BFFF0BCBDE8008C20F07F47D9
:1018000080EA030023F07F4C07EB0C03A3F57C5325
:1018100000F00040A3F1FE0392F0000F00F0B3804F
:1018200095F0000F00F077802DE901494FEA114053
:101830004FEA144621EA004800FB06FC24EA06476A
:1018400008FB06F607FB08F800FB07F718EB06484D
:101850004CEB164C4FEA124B18EB07484FEA154673
:101860004CEB174022EA0B4E0BFB06FC25EA064721
:101870000EFB06F607FB0EFE0BFB07F71EEB064EF4
:101880004CEB164C4FF000061EEB074E4CEB174B83
:1018900018EB0B0840F1000018EB0E0B58EB00089A
:1018A00040F100008F1A4FF000013CBFC943661B96
:1018B00014BFB5EB040C00213CBFC943F61B4FEA33
:1018C00017444EEA8E0E27EA04454FEA1C4704FBF4
:1018D00007622CEA074C05FB07F70CFB05F604FB37
:1018E0000CFC16EB074642EB174216EB0C4642EB9C
:1018F0001C421BEB060658EB0202414146EA9E06DB
:1019000001D5BDE80189B619524141EB0101A3F1AE
:101910000103BDE801894FEA14454FEA114724EA63
:10192000054621EA074C05FB07F406FB07F70CFB0D
:1019300006F105FB0CFC11EB074144EB17444FEAA1
:10194000124711EB0C4144EB1C4422EA074C05FB07
:1019500007F206FB07F70CFB06F605FB0CFC16EB83
:10196000074642EB174216EB0C4642EB1C456A1841
:1019700054F1000148BF7047B619524141EB0101D3
:10198000A3F10103704795F0000F37D04FEA1142E1
:101990004FEA144721EA024624EA074C02FB07F10A
:1019A00006FB07F70CFB06F402FB0CFC14EB0744E8
:1019B00041EB17414FEA154714EB0C4441EB1C4136
:1019C00025EA074C02FB07F506FB07F70CFB06F6BA
:1019D00002FB0CFC16EB074645EB174516EB0C46D5
:1019E00045EB1C42121951F1000148BF7047B6196E
:1019F000524141EB0101A3F1010370474FEA144545
:101A00004FEA114724EA054621EA074C05FB07F196
:101A100006FB07F70CFB06F24FF0000605FB0CFC7B
:101A200012EB074241EB174112EB0C4251EB1C4108
:101A300048BF7047921841EB0101A3F101037047C1
:101A4000464910B54A6822F440324A604A68436801
:101A50001A434A6001684A6822F480724A60016849
:101A60004A68036942EA03224A6001684A6822F030
:101A700040724A6001684A6883681A434A60016894
:101A80008A6822F400628A6001688A68C3681A431F
:101A90008A60816A6FF07062D14201688A6822F0C0
:101AA00070628A6001688A680CD0836A1A438A600F
:101AB00001688A6822F040528A6001688A68C36AB5
:101AC0001A4301E022F040528A6001688A6822F0DD
:101AD00002028A6001688A68037E42EA43028A60E1
:101AE00090F82010002901684A680FD042F4006283
:101AF0004A6001684A6822F460424A6001684A68A4
:101B0000174C436A04EB43331A4301E022F40062AA
:101B10004A600168CA6A22F47002CA620168CA6A2D
:101B2000838B104C04EB03531A43CA6201688A6822
:101B300022F400728A6001688A6890F8303042EAC4
:101B400043228A6001688A6822F480628A600168A0
:101B50008A68406942EA8020886010BD0023014005
:101B600000E0FFFF0000F0FF074810B50268002109
:101B7000916202684821D162C160042102F090FAAA
:101B8000BDE8104003F01ABC700B002070B50E4683
:101B90000E49C0EB0010002401EB001535F81400CD
:101BA00070B105EB4401B1F87820314600F010F82F
:101BB0005FF0640026F014FB641C3C2CEEDB70BD6F
:101BC00005EB4400B0F87800F4E70000485300202B
:101BD00010B5084B084C53F820002368401E98624B
:101BE00020688163104600F0B5FC216800208863FE
:101BF00010BD0000B8000020700B002010B50821B7
:101C0000064800F0AEFD064C0121204600F0A9FD7B
:101C10002046BDE81040022100F0A3BD00040240B0
:101C20000008024010B50821064800F09AFD064C55
:101C30000121204600F095FD2046BDE8104002211C
:101C400000F08FBD000402400008024010B50821DA
:101C5000064800F086FD064C0121204600F081FD7B
:101C60002046BDE81040022100F07BBD0004024088
:101C70000008024010B50821064800F072FD064C2D
:101C80000121204600F06DFD2046BDE810400221F4
:101C900000F067BD000402400008024010B50821B2
:101CA000064800F05EFD064C0121204600F059FD7B
:101CB0002046BDE81040022100F053BD0004024060
:101CC0000008024010B500231A462349234800F0BB
:101CD00052F82248012300221F492C3000F04BF813
:101CE0001E48022300221C49583000F044F81B48CB
:101CF000032300221849843000F03DF8184A0321DC
:101D0000164806F042FE1548164A03212C3006F00C
:101D10003CFE1248144A0321583006F036FE0F48A4
:101D2000124A0521583006F030FE0C48104A0321B3
:101D3000843006F02AFE094806F024FF07482C30BC
:101D400006F020FF0548583006F01CFF0348BDE8A8
:101D50001040843006F016BFAD8A02089852002069
:101D6000FD1B0008251C0008751C00084D1C000800
:101D70009D1C0008FEE72DE9F0410D461E46174662
:101D800004462C21FEF78AFDA07820F0F000803078
:101D9000A0703046A560A8470146E07861F3C710FF
:101DA00067F38610E0702671BDE8F081014800F00D
:101DB0005FBA0000040A0020014800F059BA000090
:101DC000100B002001681823CAB2103AB2FBF3F2DC
:101DD000054B6FF30901032A9B5CC36500D9091DFC
:101DE0008165084670470000940D030810B5014650
:101DF00000208B698A6A4FF0C07453B1B3F5005F5D
:101E000015D072B1012A0CD0022A0AD0032A09D1B6
:101E100004E01AB1012A06D0022A03D1C96AC90115
:101E200000D5012010BDC96AA142FAD010BD002A18
:101E3000F7D0012AF2D0022AF3D0032AF3D010BD42
:101E400030B50468256825F4802525600468636042
:101E50008368402B036803D099600068C26030BD7E
:101E60009A600068C16030BD704772B6FEE700003E
:101E700078B50024009490F83C20012A19D0012262
:101E800080F83C200A6807230568092A13D9EE6800
:101E90000A3A02EB420293409E43EE600B788A6856
:101EA0000A3B03EB43039A400368DD682A43DA6088
:101EB00010E0022078BD2E6902EB420293409E435F
:101EC0002E610B788A6803EB43039A4003681D690F
:101ED0002A431A614A681F23072A13D205686E6BCA
:101EE000521E02EB820293409E436E630A8893B2B5
:101EF0000A79521E02EB820293400268556B2B4313
:101F0000536327E005680D2A12D22E6BD21F02EB15
:101F1000820293409E432E630B790A88DB1F92B2A4
:101F200003EB83039A4003681D6B2A431A6311E095
:101F3000EE6A0D3A02EB820293409E43EE620B7909
:101F40000A880D3B92B203EB83039A400368DD6A73
:101F50002A43DA621B4B0568194A9D420AD10D6873
:101F6000122D07D1556825F400055560556845F4D4
:101F70008005556005689D421DD1134D0B68AB422D
:101F800001D0112B17D1536823F480035360536899
:101F900043F4000353600968A9420CD10B490C4A71
:101FA0000968B1FBF2F101EB8101490000E0491E33
:101FB00000910029FBD180F83C40002078BD000052
:101FC00000230140002001401200001044000020C6
:101FD00040420F00006C70470068C06C704770B5DD
:101FE00004004FF0000503D0206C002610B107E07C
:101FF000012070BD204600F01DF8666484F83C6046
:10200000206CC00610D4206C20F4885040F00200F0
:1020100020642046FFF714FD6664206C20F0020067
:1020200040F00100206400E0012584F83C6028466F
:1020300070BD000070B586B0064614216846FEF7F4
:102040002DFC1D493068884234D11C4800250168A8
:1020500041F480710160006800F4807005901748B9
:102060001438016841F0010101600068694600F020
:1020700001000590012000900320CDE901051048E2
:1020800000F07AFA104C0F48C4E900050015A5606D
:10209000C4E90350400060618000A0614011C4E9C0
:1020A00007052046656200F0B3F908B1FFF7DDFED1
:1020B000B463A66306B070BD0020014044380240FE
:1020C0000000024010640240040A00202DE9F041A3
:1020D000044600680D4681684FF0000749050BD59E
:1020E0008068C00508D5206C40F02000206484F88A
:1020F0003C700120BDE8F08100F040FB064613E093
:10210000681C11D025B100F039FB801BA8420BD907
:1021100020680068800707D4206C40F00400206429
:1021200084F83C700320E5E7206800688007E7D565
:1021300021686FF012000860206C40F40070206489
:102140002068816811F0405F13D1217E89B9C16A8E
:1021500011F4700F02D0806840050AD4206C20F47E
:1021600080702064206CC00403D4206C40F0010017
:1021700020640020BEE7000018B50021009190F80F
:102180003C20012A07D0012280F83C200268936895
:10219000DB0702D011E0022018BD936843F0010371
:1021A0009360244A244B1268B2FBF3F202EB420222
:1021B00000E0521E0092002AFBD102689368DB0700
:1021C0002ED0036C40F20164A34343F48073036494
:1021D00053685B0505D5036C23F4005343F4805327
:1021E0000364036CDB0404D5436C23F006034364EF
:1021F00000E0416480F83C1010496FF02203136046
:1022000049680068C90602D00D49884210D181682A
:1022100011F0405F0CD1816841F08041816007E09E
:10222000016C41F010010164416C41F00101416415
:10223000002018BD4400002040420F000023014050
:102240000020014090F83510022903D0802141651B
:1022500001207047052180F835100068016821F0E1
:10226000010101600020704790F8350070470000C0
:102270002DE9F84304464FF00009CDF8009063487B
:102280004FF41651A56D0068B0FBF1F72E6894F875
:102290005C10082000FA01F131420FD021680A6871
:1022A00052070BD50A6822F004020A6094F85C1009
:1022B0008840A860606D40F00100606594F85C1093
:1022C0004FF0010808FA01F0304208D0216849694E
:1022D000090604D5A860606D40F00200606594F8BE
:1022E0005C1004208840304208D0216809688907C2
:1022F00004D5A860606D40F00400606594F85C103F
:1023000010208840304218D021680968090714D588
:10231000A86020680168490304D50068000308D557
:10232000A16C07E00168C90503D4016821F0080128
:102330000160216C09B12046884794F85C10202088
:102340008840304231D021680968C9062DD5A8607F
:1023500094F8350005282068016806D0490347D560
:10236000006800031DD4616C1CE021F016010160BF
:102370002068416921F080014161206C08B9A06C9E
:1023800020B12068016821F00801016094F85C1018
:102390003F208840A86084F8358084F83490216D0F
:1023A0001FE0E16B09B120468847606D00282BD003
:1023B000606DC00714D0052084F8350020680168DE
:1023C00021F0010101600098401C0090B84203D840
:1023D00020680068C007F6D184F8358084F834900E
:1023E000E16C002910D001B02046BDE8F043084759
:1023F0000168C905D5D4016821F01001016084F895
:10240000358084F83490CCE7BDE8F88344000020A0
:102410002DE9F041044600F0B1F906465CB1022016
:1024200084F83500002584F834502068016821F0D4
:10243000010101600DE00120BDE8F08100F09EF98E
:10244000801B052805D920206065032084F835000D
:10245000F2E720680068C007F0D1226811682048C0
:102460000140D4E901031843D4E903363343184348
:1024700063691843A3691843E3691843236A18433F
:102480000843616A042903D1D4E90B1319430843B3
:10249000106020684069666A20F0070130460E43EC
:1024A000012704280CD1A06A0643E06A40B1204607
:1024B000FFF79CFC20B14020606584F83570BAE7D6
:1024C000206846612046FFF77DFC94F85C203F21A0
:1024D00091408160656584F835700020ACE70000AC
:1024E0003F8010F02DE9F0410446866D90F83400ED
:1024F000002501280DD0012084F8340094F83570AF
:102500000020012F07D084F8340002252846BDE8BA
:10251000F0810220FBE7022784F8357060652046D1
:10252000FFF78EFC94F85C103F208840B060206874
:10253000016841F016010160206C20B1206801683B
:1025400041F0080101602068016841F0010101606B
:10255000DCE7000070B5044600F010F90546601C89
:1025600002D004480078044400F008F9401BA0425F
:10257000FAD370BD380000202DE9F84FDFF8B8A17C
:102580000022012403254FF00F090AF1040BAAF1E0
:10259000040E00BF0B6804FA02F63340B34273D155
:1025A0000F7907F00307012F01D0022F16D187689A
:1025B0004FEA420805FA08FC27EA0C07D1F80CC0DC
:1025C0000CFA08FC4CEA070CC0F808C04768B7438F
:1025D0000E79C6F3001696403E4346600E79F643E8
:1025E000B6070DD0C768560005FA06FC27EA0C07A7
:1025F000D1F808C00CFA06FC4CEA070CC0F80CC075
:102600000E7906F00306022E10D1D60800EB8608DC
:10261000D8F8206057074FEAD76C09FA0CF7BE4389
:102620000F6907FA0CF73743C8F8207006684FEABD
:10263000420C05FA0CF7BE430F7907F0030707FABF
:102640000CF7374307604E6816F4403F6DD03B4EA1
:10265000376847F480473760366822F0030706F48E
:1026600080460096364E07EB060CDCF808689707A4
:102670003F0F09FA07F826EA0806DFF8C880404548
:1026800003D14FF000081EE04FE0DFF8BC8040456A
:1026900002D14FF0010816E0DFF8B080404502D1CA
:1026A0004FF002080FE0DFF8A880404502D14FF05C
:1026B000030808E0DFF89C80404502D14FF0040891
:1026C00001E04FF0070808FA07F848EA0608CCF8D6
:1026D0000888DAF800605746D1F804C09E435FEAE4
:1026E000CC2C00D51E433E60DBF800605F46D1F87D
:1026F00004C09E435FEA8C2C00D51E433E60DEF88A
:1027000000607746D1F804C09E435FEA8C3C00D558
:102710001E433E60084F083F3E68D1F804C09E4308
:102720005FEACC3C00D51E433E60521C102AFFF4E9
:1027300031AFBDE8F88F0000083C0140443802404A
:102740000030014000000240000402400008024046
:10275000000C0240001002400069084000D0012037
:102760007047426921EA02030A4043EA024181615B
:1027700070470AB1816170470904FBE7014880682E
:102780007047000038000020704770472DE9F04185
:10279000016804464A694E6890F83E000025D74318
:1027A000FA0506D4F243D20503D46FF480720125F2
:1027B0004A61B90508D4F143C90505D422686FF40C
:1027C000007145F002055161790525D4F143C90531
:1027D00022D4638D94F83D10226B202808D13BB998
:1027E000212910D029290ED0282901D1212A0AD047
:1027F00022686FF48061516145F00405102806D00D
:10280000402804D008E0204602F084F904E0206863
:10281000016841F400710160380508D4F043C00537
:1028200005D421686FF4006045F008054861002D6B
:1028300007D0206C284320642046BDE8F04101F019
:1028400005BDBDE8F0812DE9F0470268002153681D
:10285000C66A90F83E4090F83D50102C12D0402CA3
:1028600010D0046C002C7DD05469E443A6077AD4C0
:10287000DE43B60577D4036C03B19169BDE8F04738
:1028800002F024B9976951694FF42A0CC9435FEAF1
:10289000C1784FF02A4904D066452AD04E4528D049
:1028A00010E0DE43B6050DD4C16A614501D10121B6
:1028B00003E0C16A494501D10821C162BDE8F04782
:1028C00001F098BF0E0716D4DE43B60513D4416C51
:1028D000C9B21161416B09B1C96B29B9816B00297A
:1028E00007D0C96B002904D00068416841F4006139
:1028F0004160BDE8F0878E0706D4DE43B60503D4F9
:10290000BDE8F04701F0EABEFE43526876074FEAA1
:1029100002521DD4002AECDB0A0608D4DA43520521
:1029200005D4490705D5BDE8F04701F07BBE49074E
:10293000DFD4D9438905DCD4212D05D0402CD8D152
:10294000BDE8F04701F09CBFBDE8F04701F028BEAC
:10295000002ACEDB4A060BD4DA43520508D44907D5
:1029600008D501E00DE00EE0BDE8F04701F09EBDA6
:102970004907BED4D9438905BBD4BDE8F04701F06F
:1029800028BD916970E7E10606D4D943890503D4CF
:10299000BDE8F04702F006B92821212D27D0292DC6
:1029A00025D0650655D4DD436D0552D4640752D554
:1029B00090F83D30448D002C9BD01269446A2270FF
:1029C000426A521C4262428D521E4285428D002A4A
:1029D0008FD12A2B8DD10268536823F48063536012
:1029E0002222026380F83D1000F0F0FA81E725060C
:1029F00023D4DD436D0520D4640720D590F83D3005
:102A0000448D002CF2D0446A24781461426A521C2E
:102A10004262428D521E4285428D002AE6D1292B08
:102A2000E4D10268536823F4806353602122026377
:102A300080F83D1000F0CBFA5BE76107D6D4D943AC
:102A40008905D3D4418D0029D0D0416A097811611C
:102A50000AE06107CAD4D9438905C7D4418D00294A
:102A6000C4D01169426A1170416A491C4162418DAA
:102A7000491E41853DE7704770B5040025D094F8A4
:102A80003D00002520B984F83C50204600F058FA5B
:102A9000242084F83D002068016821F001010160D4
:102AA0002068016841F4004101602068016821F458
:102AB0000041016000F010FC4D4A6168914201D86C
:102AC0004C4900E04C49884201D2012070BD4B497D
:102AD0002368B0FBF1F15E6826F03F060E435E60AE
:102AE0006368934206D94FF4967359434FF47A734F
:102AF000B1FBF3F12368491C1E6A26F03F063143FF
:102B000019626168914210D84900401EB0FBF1F291
:102B1000521CC2F30B02042A01D2042022E0B0FBB3
:102B2000F1F0401CC0F30B001CE0A268F2B301EB13
:102B3000C10303EB0116431EB3FBF6F35B1C43F426
:102B400080431B0549D092B301EBC10202EB011196
:102B5000401EB0FBF1F0401CC0F30B0040F480407D
:102B600040F400402168CA694CF6FF739A43104351
:102B7000C861D4E9071001432068026822F0C0024E
:102B800011430160D4E9030101432068826848F2DF
:102B9000FF339A4311438160D4E90501084321685A
:102BA000CA6822F0FF021043C86001E00EE016E0A0
:102BB0002068016841F0010101602564202084F84B
:102BC0003D00256384F83E50002070BD01EB4106B6
:102BD000431EB3FBF6F35B1CB3E70120C2E701EB36
:102BE0004101401EB0FBF1F0401CC0F30B00B7E701
:102BF000A086010080841E0000093D0040420F00B5
:102C00007047704770477047704700002DE9FF4FCD
:102C100083B09A46DDE9118793460446DDF840907B
:102C2000FFF7ACFD054694F83D00202870D119232C
:102C3000012274492046009502F08EF80028F5D153
:102C400094F83C00012863D0012084F83C002068FF
:102C50000168C90703D1016841F0010101602068E2
:102C6000016821F400610160222084F83D004020C9
:102C700084F83E0000262664C4F82490A4F82A8034
:102C8000608D20856048E062CDE9007553465A4664
:102C90002046049901F048FE002879D1208DD0B15A
:102CA000012821D00228206824D041698069009041
:102CB000208D032866D801282BD0544902283B4692
:102CC0004FF00002009557D08846204602F044F8A5
:102CD00000285DD13AE0206841698169009101686E
:102CE00041F4007101607DE02068016821F4806199
:102CF0000160F0E7016821F48061016020680168EB
:102D000041F400610160206841698069009069E0D8
:102D100075E02A463946204602F0C4F888BB54E0E4
:102D20002068016841F40071016020680069616AEF
:102D30000870606A401C6062218D491E2185618D8A
:102D4000491E618521680969017042E020680168B7
:102D500021F48061016020680069616A0870606A1E
:102D6000401C6062208D401E2085608D401E608565
:102D70003B46002241460095204601F0EDFF00B998
:102D8000CEE705E02A463946204602F08BF818B116
:102D9000012007B0BDE8F08F20680069616A087003
:102DA000606A401C6062208D401E81B22185608D6A
:102DB000401E608520684269D243520712D403291D
:102DC00003D1016821F48061016020680069616AB3
:102DD0000870606A401C6062208D401E2085608DF6
:102DE000401E6085208D00287FF462AF202084F88B
:102DF0003D0084F83E6084F83C600020C9E7022072
:102E0000C7E70000020010000000FFFF04000100FF
:102E10002DE9FF4F83B09A46DDE9119793460446AA
:102E2000DDF84080FFF7AAFC054694F83D00202815
:102E30007FD11923012240492046009501F08CFFE3
:102E4000002876D194F83C00012872D0012084F843
:102E50003C0020680168C90703D1016841F0010105
:102E600001602068016821F400610160212084F87C
:102E70003D00402084F83E0000262664C4F82480EB
:102E8000A4F82A90608D20852C48E062CDE9007579
:102E900053465A462046049901F0C4FD70B930E00B
:102EA0002A463946204602F035F858B1206C0428ED
:102EB00004D12068016841F400710160012007B06D
:102EC000BDE8F08F606A216800780861606A401C84
:102ED0006062218D491E89B22185628D521E6285F4
:102EE00022685369DB435B070BD469B1007810613A
:102EF000606A401C6062208D401E2085608D401EEF
:102F00006085208D0028CBD12A463946204601F025
:102F1000F7FE0028CAD154F83D0B016841F4007156
:102F20000160202004F81E09E67766770020C6E7D6
:102F3000FFE70220C3E70000020010000000FFFFCF
:102F400010B586B0044614216846FDF7A7FC1C495D
:102F50002068884231D11B480021026842F00202F9
:102F60000260006800F0020005904FF4407000908D
:102F70001220CDE90101032003900420049069464A
:102F80001148FFF7F9FA0F481030016841F40011B9
:102F900001600068002200F40010059005211F2048
:102FA00000F0AEF81F2000F09DF80022052120203F
:102FB00000F0A6F8202000F095F806B010BD000043
:102FC000005400403038024000040240704770470F
:102FD00002488168027811448160704738000020FF
:102FE0000B4810B5016841F400710160016841F4BB
:102FF00080610160016841F480710160032000F08C
:103000009FF80F2000F006F800F050F8002010BDE7
:10301000003C024030B505461F4887B000240168D7
:1030200041F004010160006806A900F0040000906E
:1030300001A800F031F90498A8B100F04DF9400062
:103040001649174AB0FBF1F11648491E026040F2DA
:10305000E732C0E90324C0E90114846100F0C6FD31
:10306000040003D015E000F037F9E9E70D4800F05F
:103070001DFE04000DD11E2000F034F8102D07D2E3
:10308000002229461E2000F03BF80748056000E0BA
:10309000012407B0204630BD4038024040420F00B6
:1030A00000080040000C00203C0000200C4882B0CA
:1030B000016841F480410160006800F480400090A4
:1030C0000748001F016841F080510160006800223C
:1030D00000F0805000900F21901E02B000F010B858
:1030E00044380240002809DB00F01F020121914012
:1030F0004009800000F1E020C0F800117047000096
:10310000F0B40E4B1B680C46C3F30223C3F1070552
:10311000042D00D90425191D072901D2002300E040
:10312000DB1E012606FA05F1491E214099409E400A
:10313000761E16403143F0BC02F05CBF0CED00E09F
:10314000064900F0070208684FF6FF03184040EAFE
:103150000220034A10430860704700000CED00E0B5
:103160000000FA052DE9F0470E46050065D0DFF8AE
:103170001481D8F80000F7B200F00700B04207D27F
:1031800088F80070D8F8000000F00700B04254D171
:1031900028683D4C810712D5400703D5206840F4CC
:1031A000E05020602878000703D5206840F4604094
:1031B00020602068A96820F0F0000843206028788B
:1031C000C0072DD0304968680839012812D002287C
:1031D00013D0032811D00968890700292DDA216846
:1031E00021F0030101432160FFF7C8FA814641F253
:1031F000883A0EE009688903EFE709688901ECE77E
:10320000FFF7BCFAA0EB0901514502D90320BDE844
:10321000F0872068696800F00C00B0EB810FEFD1F7
:10322000D8F80010404601F00701B14207D90770F5
:10323000006800F00700B04201D00120E7E72878DD
:10324000400705D52068E96820F4E0500843206075
:103250002878000706D52068296920F4604040EAF4
:10326000C100206000F048F82168084AC1F303114A
:10327000515CC8400649086006480068FFF7CAFE6E
:103280000020C4E7003C0240083802409C0D0308BF
:10329000440000203C0000200F2202600C4A13680A
:1032A00003F003034360136803F0F00383601368C3
:1032B00003F4E053C36012684FF4E05303EAD20210
:1032C00002610448006800F00700086070470000D1
:1032D00008380240003C024004480549006809687B
:1032E000044AC1F38221515CC84070474400002069
:1032F00008380240AC0D0308154810B5006810F0FE
:103300000C02144813D04110042A0FD0082A0ED101
:103310000F4C241F2268236802F03F025B0207D58E
:103320002068C0F38810A0FB010106E0084610BD2C
:103330002168C1F38811A1FB00010023FDF732F8D9
:103340002168C1F30141491C4900B0FBF1F010BDF7
:10335000083802400024F4002DE9F84F04006ED034
:103360002078DFF84C93C007A9F104054AD009F191
:1033700004000168C1F38101012908D00068C0F38D
:10338000810002280AD1D9F80000400206D5286839
:10339000800337D560680028E1D033E06068B0F57D
:1033A000803F10D0B0F5A02F286810D020F48030D6
:1033B0002860286820F4802028606068A8B1FFF7A2
:1033C000DDF906460DE0286840F48030F4E740F46B
:1033D00080202860F7E700BFFFF7D0F9801B642842
:1033E00073D828688003F7D50CE0FFF7C7F90646C5
:1033F00005E000BFFFF7C2F9801B6428F0D82868F9
:103400008003F7D42078DFF8AC8280074FF0000A01
:103410003ED5A748001D016811F00C0F08D00068C8
:10342000C0F3810002280BD1D9F80000400207D474
:103430002868800716D5E068012800D112E033E142
:10344000E068B8B10120C8F80000FFF797F9064618
:1034500005E000BFFFF792F9801B0228C0D828685A
:103460008007F7D52868216920F0F80040EAC100FC
:1034700028600DE0C8F800A0FFF780F9064604E0D8
:10348000FFF77CF9801B02281FD828688007F7D433
:103490002078000722D5864F87486169703771B15F
:1034A00001210160FFF76AF9064604E0FFF766F9BB
:1034B000801B022809D838688007F7D50EE0C0F8CD
:1034C00000A0FFF75BF9064605E082E0FFF756F93A
:1034D000801B02287DD838688007F7D42078400701
:1034E00068D5DFF8CCB100270BF13C0BDBF800000E
:1034F000C0000BD4DBF8001041F08051CBF8001075
:10350000DBF80000012700F0805000906B4E30681F
:10351000C00510D4306840F480703060FFF72EF999
:10352000009005E0FFF72AF90099401A022850D8C8
:103530003068C005F6D55E4EA0686C3601280FD005
:103540000528306810D020F001003060306820F08D
:1035500004003060A068B8B1FFF710F900900FE0E8
:10356000306840F00100F4E740F004003060F7E715
:10357000FFF704F90099411A41F28830814266D878
:1035800030688007F4D50EE0FFF7F8F8009007E008
:10359000FFF7F4F80099411A41F28830814256D879
:1035A00030688007F4D42FB1DBF8001021F080518F
:1035B000CBF80010A069C8B33D49091D0968C1F3E3
:1035C000810102294AD00228504607D0C8F860007D
:1035D00000E03CE0FFF7D2F804463BE04746C8F87D
:1035E0006000FFF7CBF8064605E000BFFFF7C6F81E
:1035F000801B02282BD828688001F7D4D4E9070162
:103600000843A16A2E4A490802EB0141626A41EA75
:103610008211084394F82C1040EA0161C9F80010A7
:1036200001203866FFF7AAF8044606E03EE000BF36
:10363000FFF7A4F8001B022809D828688001F7D5F5
:1036400034E000BFFFF79AF8001B022802D90320DC
:10365000BDE8F88F28688001F4D427E00128F7D06E
:10366000D9F80000E26900F4800191421CD1226A7D
:1036700000F03F01914217D147F6C071626A0140E4
:10368000B1EB821F10D1A26A4FF0FF3300F440313A
:1036900003EB5202B1EB024F06D194F82C1000F06C
:1036A0007060B0EB016F01D00120D1E70020CFE7BF
:1036B0000438024000004742800E4742007000403C
:1036C0000000FFFF7047000038B5016804464A68F3
:1036D0008868C043430606D5C30704D1D3435B06BD
:1036E00001D4216C05E0830708D4D3431B0605D41D
:1036F000616C01B02046BDE830400847830603D521
:10370000430601D5C30551D4D3439B064ED443068B
:103710000AD494F85130032B49D0636D43F004036D
:103720006365CB688B680093830609D4636D43F0AF
:10373000010363658B6800930B6823F040030B6003
:10374000C00506D4606D40F00800606520688068A0
:103750000090606D002829D02068416821F0E001C8
:103760004160012084F85100900701D4D00722D095
:103770002068416821F003014160114DE06C40B1C7
:103780000565E06CFEF75EFD18B1606D40F040002D
:103790006065A06C002809D00565A06CFEF752FD9D
:1037A000002803D0606D40F04000606538BDC868F7
:1037B0008868009038BD2046FFF784FF38BD0000C0
:1037C0006154000870B5040009D0606A002540B15A
:1037D00025616561A56294F8510040B10CE00120BB
:1037E00070BD6068B0F5827FF4D0E561F2E784F8DF
:1037F0005050204600F044F8022084F85100206820
:10380000016821F040010160A088218900F48270E4
:1038100001F404410843A18901F400610843217CBB
:1038200001F002010843217D01F001010843218BD1
:1038300001F400710843217F01F03801084394F836
:10384000201001F080010843218D01F4005108434C
:1038500021680860A069042101EA104094F824104E
:1038600001F010010843216848602068C16921F413
:103870000061C1616565012084F85100002070BDC0
:1038800070B586B0064614216846FDF707F824494E
:103890003068884241D123480025016841F48051B5
:1038A0000160006800F4805005901E4814380168DB
:1038B00041F0010101600068694600F001000590D7
:1038C000A02000900220CDE90105032003900520EF
:1038D00004901548FEF750FE154C144820604FF038
:1038E000806060604020C4E902050001C4E904056D
:1038F000C001A561C4E9075020466562FEF788FD56
:1039000008B1FEF7B2FAB464002205212320A663B1
:10391000FFF7F6FB2320FFF7E5FB06B070BD0000C4
:103920000030014044380240000002404064024040
:10393000100B00202DE9F84F984616468A4604469B
:10394000FEF71CFF814694F8510001281ED1BAF100
:10395000000F73D0002E71D094F85000012815D0BC
:10396000012784F85070032084F851000025656514
:10397000C4F830A0A686E686A563A587E5876564BA
:103980002564A068B0F5004F03D00CE00220BDE82C
:10399000F88F2068016821F040010160206801680B
:1039A00041F48041016020680168490603D4016840
:1039B00041F040010160E068B0F5006F606803D03D
:1039C00048B3012E27D047E008B1012E1FD1206B4C
:1039D00021680088C86006E020688168890709D5E9
:1039E000216B0988C160206B801C2063E08E401E23
:1039F000E0860CE0FEF7C2FEA0EB0901414503D3CF
:103A0000B8F1FF3F03D035E0B8F1000F32D0E08EBF
:103A10000028E1D123E0206B21680078087306E0DC
:103A20002068816889070AD5216B09780173206BAA
:103A3000401C2063E08E401EE0860DE02BE0FEF788
:103A40009DFEA0EB0901414503D3B8F1FF3F03D030
:103A500010E0B8F1000F0DD0E08E0028E0D14A460A
:103A60004146204601F04CFD08B120206065A06869
:103A700030B109E084F8517084F85050032086E793
:103A80002068C1688068009084F8517004F8505F25
:103A900060680028F3D0012079E7000070B5044683
:103AA00090F8510001281CD1C9B1C2B194F850005E
:103AB000012816D0012084F85000032084F851001A
:103AC000002565652163A286E286A5636564256499
:103AD000A587E587A068B0F5004F04D00DE0012070
:103AE00070BD022070BD2068016821F040010160B6
:103AF0002068016841F480410160A16C17480864A6
:103B0000A16C1748C863A16C1648C864A06C056511
:103B1000E38E2268216B0C32A06CFEF7E3FC30B11F
:103B2000606D40F01000606584F85050D7E7206861
:103B30000168490603D4016841F04001016084F83E
:103B400050502068416841F0200141602068416880
:103B500041F002014160002070BD00009354000854
:103B60009D540008715400087047704770477047B3
:103B700070B590F83C20012A2CD0012480F83C40FC
:103B8000022280F83D2003685A689D6822F0700682
:103B90000A6832435A60104B02689A420ED0B2F162
:103BA000804F0BD00D4B9A4208D00D4B9A4205D056
:103BB0000C4B9A4202D00C4B9A4204D1496825F032
:103BC00080031943916080F83D40002180F83C104B
:103BD000084670BD022070BD000001400004004096
:103BE00000080040000C00400040014010B50400F7
:103BF00003D094F83D0010B107E0012010BD002073
:103C000084F83C00204600F01FF8022084F83D00B4
:103C1000211D206802F09EF8012084F8460084F8F7
:103C20003E0084F83F0084F8400084F8410084F8A6
:103C3000420084F8430084F8440084F8450084F886
:103C40003D00002010BD000008B50068B0F1804FB5
:103C500015D01449884223D11348016841F400313A
:103C600001600068002200F4003000900521192056
:103C7000FFF746FA1920BDE80840FFF733BA0A48B3
:103C8000001F016841F0010101600068002200F09E
:103C90000100009005211C20FFF732FA1C20EAE702
:103CA00008BD0000004401404438024090F83D1037
:103CB000012901D001207047022180F83D100168E0
:103CC000CA6842F00102CA6000680E4988420ED0FC
:103CD000B0F1804F0BD00C49884208D00B49884284
:103CE00005D00B49884202D00A49884204D1816834
:103CF00001F00701062903D0016841F001010160CC
:103D0000002070470000014000040040000800400F
:103D1000000C00400040014070B5044690F83C00A3
:103D20000025012817D0012684F83C60022084F881
:103D30003D002068826822F0770222F47F42826090
:103D40000868502838D00DDC20284FD005DC90B30F
:103D5000102811D14AE0022070BD302846D04028FA
:103D60000AD13BE060282FD070280DD0B0F5805FDD
:103D700003D0B0F5005F12D0012584F83D6000202B
:103D800084F83C00284670BDCB68D1E90121206849
:103D900002F03FF82068816841F0770109E0CB68C4
:103DA000D1E90121206802F034F82068816841F4EB
:103DB00080418160E1E719E0CA684968206802F043
:103DC000DDF85021206806E0CA684968206802F0E2
:103DD000E6F86021206802F026F8CEE7CA68496854
:103DE000206802F0CBF840212068F4E72268014601
:103DF0001046F0E770472DE9F04104460068C668B8
:103E000005694FF00007A90713D5B10711D5F91EB1
:103E1000016101202077206880698007204602D058
:103E2000FFF7E8FF04E000F0A5F8204600F037F9BE
:103E30002777680716D5700714D521686FF004003E
:103E40000861022020772068806910F4407F2046B6
:103E500002D0FFF7CFFF04E000F08CF8204600F01E
:103E60001EF92777280715D5300713D521686FF07D
:103E700008000861042020772068C0698007204678
:103E800002D0FFF7B7FF04E000F074F8204600F01E
:103E900006F92777E80616D5F00614D521686FF0E5
:103EA00010000861082020772068C06910F4407F66
:103EB000204602D0FFF79EFF04E000F05BF82046AA
:103EC00000F0EDF82777E80708D0F00706D0216862
:103ED0006FF001000861204600F03AF9280608D585
:103EE000300606D521686FF0800008612046FFF794
:103EF0003DFE680608D5700606D521686FF04000C3
:103F00000861204600F02EF9A8060AD5B00608D5AB
:103F100021686FF0200008612046BDE8F041FFF7FE
:103F200026BEBDE8F081000010B586B0044614211D
:103F30006846FCF7B3FC2068B0F1804F14D10B4801
:103F40000021026842F001020260006800F00100F6
:103F5000059002200090CDE901010120CDE9031078
:103F600069460348FEF708FB06B010BD3038024032
:103F700000000240704770B5044690F83C000026EF
:103F80000D4601280FD0012084F83C006AB1042AB4
:103F90001DD0082A2FD00C2A3FD00126002084F8FB
:103FA0003C00304670BD022070BD206801F044FF27
:103FB0002068816941F0080181612068816921F0F0
:103FC00004018161206881692A69114311E0206838
:103FD00001F05AFF2068816941F400618161206825
:103FE000816921F480618161206881692A6941EADF
:103FF00002218161D2E7206801F072FF2068C16967
:1040000041F00801C1612068C16921F00401C1616A
:104010002068C1692A69114311E0206801F08CFF12
:104020002068C16941F40061C1612068C16921F45F
:104030008061C1612068C1692A6941EA0221C161C8
:10404000ACE710B5040003D094F83D0010B107E0D0
:10405000012010BD002084F83C00204600F01EF82E
:10406000022084F83D00211D206801F073FE01202C
:1040700084F8460084F83E0084F83F0084F840004D
:1040800084F8410084F8420084F8430084F8440036
:1040900084F8450084F83D00002010BD704770474B
:1040A00010B50446022249B104290ED0082913D0C4
:1040B00094F84100012816D0012010BD94F83E006C
:1040C0000128F9D184F83E200FE094F83F00012840
:1040D000F2D184F83F2008E094F840000128EBD1A9
:1040E00084F8402001E084F841200122206801F09A
:1040F00083FE12492068884203D1426C42F4004298
:104100004264206888420ED0B0F1804F0BD00C4939
:10411000884208D00B49884205D00B49884202D01A
:104120000A49884204D1816801F00701062903D0B9
:10413000016841F001010160002010BD0000014054
:104140000004004000080040000C00400040014016
:1041500000680349884201D1FEF73ABF704700006A
:10416000000800407047FEE70148FEF70FBB000063
:10417000640A00200148FEF766BB0000640A0020C4
:1041800038B5806B002190F83D202B4B46F2A814E7
:104190001B68B3FBF4F3C3EBC30303EB830300938C
:1041A0003BB15B1E009303681B689B0505D5009B14
:1041B000F6E7036C43F020030364436B03B1D96358
:1041C000836B03B1D96303681C6824F480641C60AA
:1041D0004185436B03B11965836B03B119650368AE
:1041E0001C6824F001041C6090F83D402023602CE2
:1041F0000BD0282434EA02020FD080F83D3080F83A
:104200003E1000BFFEF737FC38BD80F83D3080F827
:104210003E100164FEF7B8FA38BD0268136843F037
:10422000010313600268136843F480631360016341
:1042300080F83D40E6E70000440000200068416946
:10424000C943090601D400210161704770B50446D5
:1042500090F83D0094F83E10102901D0402906D175
:10426000222804D121680A6822F400620A60282109
:1042700031EA00024FF000054FF0200626D02168F9
:104280004968090505D4602803D084F83D6084F8A6
:104290003E50256320684168090537D5416821F4FF
:1042A00000614160606B90F835203C49012A11D0D3
:1042B0000165606BFDF7C6FF38B32068016821F027
:1042C0000101016084F83D60606B1CE0256384F8A7
:1042D0003D10DFE7A06B0165A06BFDF7B3FFA0B158
:1042E00020684169C943490605D40069616A0870BC
:1042F000606A401C60622068016821F00101016071
:1043000084F83D60A06B016D884710E094F83D1083
:10431000602910D04169C943490605D40069616A22
:104320000870606A401C60622046FEF7A4FB206CA7
:10433000C1071CD115E084F83D6025644169C9437B
:10434000490605D40069616A0870606A401C6062B1
:104350002068016821F0010101602046FEF714FA8F
:10436000E5E7810703D4410701D4000704D520689D
:10437000416821F4E061416094F83D00216C4907F7
:104380000BD5282809D10648E062256384F83D60F2
:1043900084F83E502046FEF733FC70BD8141000892
:1043A0000000FFFF01684A69D24352050FD46FF441
:1043B00080624A61002140F8301F202242738173DD
:1043C000026942F00402026101730120704700207B
:1043D000704710B5C26A438D0168042B06D0438D27
:1043E000032B08D0438D022B1DD012E04A6822F423
:1043F00080624A600CE04B6823F480634B60042ABF
:1044000006D0022A04D001680A6822F480620A6099
:1044100001680969426A1170416A491C4162418D13
:10442000491E418510BD012A34D0102A32D0042AF9
:1044300034D0022A32D00B6843F400730B60016859
:104440000969436A1970416A491C4162438D5B1EC8
:10445000438503681B690B70416A491C4162418DA9
:10446000491E418501684B6823F440734B6020214D
:1044700080F83D1090F83E300021402B80F83E102F
:1044800010D0082A02D0202A00D012210163FEF7A2
:10449000B8FB10BD0B6823F48063CFE70B6843F4CF
:1044A0008063CBE70163FEF7AEFB10BD38B590F833
:1044B0003D10222910D1C36A418D03290DD901680D
:1044C0000969426A1170416A491C4162418D491E65
:1044D0004185418D032906D038BDC26A022A02D027
:1044E000012906D029B10068416821F4806141604A
:1044F00038BD2A4A46F2A81400211268B2FBF4F231
:1045000002EB8202009202682024009D6D1E00953D
:1045100026D01568AD05F8D4156825F480651560BA
:104520000268556825F4E065556002681269456ABD
:104530002A70426A521C4262428D521E428580F8A5
:104540003D4090F83E2080F83E10402A21D0082BB4
:1045500002D0202B00D012210163FEF752FB38BDA0
:10456000036C43F020030364536823F4E063536057
:1045700002681269436A1A70426A521C4262428D92
:10458000521E428580F83D4080F83E10FEF773FAD7
:1045900038BD0163FEF737FB38BD00004400002042
:1045A00010B5C26A90F83D1021290BD1418D51B14F
:1045B000416A026809781161416A491C4162418D72
:1045C000491E418510BD20230021082A13D0202A2E
:1045D00011D012F5803F0ED00268546824F4E064D4
:1045E00054601122026380F83E1080F83D3000BF15
:1045F000FEF708FB10BD0268546824F4E0645460C0
:104600000268146844F400741460016380F83D305B
:1046100090F83E2080F83E10402AE9D1FEF7F4FAE7
:1046200010BD000010B590F83D1090F83E30C26A01
:10463000048DB4B1212903D0402B11D122290FD1EF
:10464000418DE1B390F83E10402942D0416A0268A2
:1046500009781161416A491C4162418D491E4185B9
:1046600010BD2129E8D120230021082A13D0202AB7
:1046700011D012F5803F0ED00268546824F4E06433
:1046800054601122026380F83E1080F83D3000BF74
:10469000FEF7B8FA10BD0268546824F4E064546070
:1046A0000268146844F400741460016380F83D30BB
:1046B00090F83E2080F83E10402AE9D100E002E068
:1046C000FEF7A2FA10BD0068416821F480614160E4
:1046D00010BDBDE8104000F0D3B8000078B590F8E8
:1046E0003E50C26A036B90F83D6000240168222EA0
:1046F0007AD1066D0EB9402D76D0056D1DB90569CC
:10470000B5F5404F09D0458D05B3468D384D012E86
:104710000ED0438D022B3AD05DE04A698A6900923F
:104720000A6842F480720A60016D491C016578BD17
:10473000AA4213D10A6822F480620A6001684A68BA
:10474000120503D50A6822F4806216E04A698A6974
:1047500000920A6842F400720A6039E0082A10D018
:10476000202A0ED0122B0AD0042A03D0022A01D00C
:10477000102AE7D10A6842F480620A6024E0012A24
:10478000E0D00A6822F480620A600168DEE7042A49
:1047900021D0022A1FD0102A1DD00B6823F4806379
:1047A0000B6001680B6843F400630B6001684B68A1
:1047B0001B0509D5AA4212D0012A10D0082A0ED012
:1047C000102A0CD0202A0AD001684A698969009110
:1047D000046578BD08E00B6843F48063E5E74A6848
:1047E00042F480524A60EFE7486988690090F0E738
:1047F0000000FFFF90F83E10402910D00169B1F58C
:10480000804F19D0016DA9B3016D012910D1416C00
:104810005FF0F10201F4407142EAD11106E0016D4E
:104820000029416C05D0C9B241F001010068016165
:10483000704701F0FE01F9E790F83D102129416C25
:1048400009D0C9B241F0010102681161416B29B17F
:10485000C96B49B902E001F0FE01F5E7816B00295F
:10486000E6D0C96B0029E3D00068416841F40061DB
:1048700041607047FFE7416CF02201F44071CBE7E3
:1048800010B590F83D10026D4AB1026D012A14D0A6
:10489000026D022A16D0BDE81040FFF7CFBCC16CF4
:1048A0000129816C02D0C1F3072108E00268C9B276
:1048B0001161016D891C016510BD816CC9B202686E
:1048C000116123E022291CD0428D0AB1212920D078
:1048D000428D002AF0D12129EED101684A6822F4E4
:1048E000E0624A6001680A6842F400720A600021CE
:1048F0000163202280F83D2080F83E10FEF784F905
:1049000010BD01680A6842F480720A60016D491C9A
:10491000D1E7416A026809781161416A491C416224
:10492000418D491E418510BD2DE9F84F04460068B0
:1049300089460B9D01689846174641F480610160E5
:104940002068016841F48071016000954FF0011BFF
:104950000022594620460A9B00F0FEF94FF4007AE7
:1049600040B120680068C00501D5C4F840A003200C
:10497000BDE8F88F216809F0FE0008612B46284940
:1049800020460A9A00F030FAF0BB2068416980693D
:1049900000902A4620460A9900F0BCFA40B1206CEB
:1049A00004283AD12068016841F40071016034E0C4
:1049B000FEB2B8F1010F09D02168380A08612A4611
:1049C00020460A9900F0A6FA0028E8D1206806617E
:1049D0002A4620460A9900F09DFA0028DFD1206877
:1049E000016841F48071016000950022594620461B
:1049F0000A9B00F0B1F90028B3D1216809F0FF004B
:104A000040F00100086100E007E02B460449204621
:104A10000A9A00F0E9F90028AAD00120A8E70000CE
:104A2000020001002DE9F843044600680D46DDE967
:104A3000089701689846164641F4807101604B461C
:104A400000224FF001112046009700F085F948B18F
:104A500020680068C00502D54FF400702064032070
:104A6000BDE8F883216805F0FE0008613B464A4630
:104A70001549204600F0B8F988B920684169806975
:104A800000903A464946204600F044FA48B1206C6E
:104A9000042804D12068016841F4007101600120FC
:104AA000DEE7F5B2B8F1010F09D02168300A0861DC
:104AB0003A464946204600F02DFA0028E7D1206802
:104AC00005610020CCE700000200010038B50C466B
:104AD00090F83D2000212825954302680B4605D01B
:104AE00051699169009180F83C3038BD556825F4D2
:104AF00080655560E243540700D50121120601D5B7
:104B0000828900E0028B80F83C3092B2FDF73DFED6
:104B100038BD00002DE9F04190F83D300446C26AEE
:104B2000002120261E4F00686FF48065082A01D0FE
:104B3000202A01D1282B04D0212B17D04561BDE8B4
:104B4000F081E762426822F4E062426020684561D9
:104B50002068026822F480620260216384F83D606C
:104B600084F83E102046FEF74BF8E8E7E762212282
:104B7000226384F83D6084F83E10416821F4E061CE
:104B80004160206845612068016821F4806101600E
:104B90002046FFF753FB2046FEF719FACFE7000047
:104BA0000000FFFFF8B590F83D60044600684168DA
:104BB00021F4E061416020680025416900910168AD
:104BC00041F0010101602068016821F48061016009
:104BD00020684168090520D5474F222E48D02A2E4B
:104BE00046D0616B096849686185618D19B1216C96
:104BF00041F004012164416821F400614160606B6F
:104C0000FDF732FB012808D0606B0765606BFDF78C
:104C100019FB10B1606B016D8847608D08B3206887
:104C20004169C943490708D40069616A0870606A2C
:104C3000401C6062608D401E608520684169C943E8
:104C4000490608D40069616A0870606A401C6062A5
:104C5000608D401E6085608D18B1206C40F00400AE
:104C60002064206C00B32046BDE8F840FFF7EEBAA0
:104C7000A16B096849686185618D19B1216C41F0AA
:104C800004012164416821F400614160A06BFDF7DB
:104C9000EBFA0128C1D0A06B0765A06BFDF7D2FA33
:104CA0000028BAD0A06BB6E72A2E06D125632820AB
:104CB00084F83D002046FEF789F994F83D10202045
:104CC00028290DD0216B222901D0222E07D125635E
:104CD00084F83D0084F83E502046FEF777F9F8BD91
:104CE0000649E162256384F83D0084F83E50204681
:104CF000FDF786FFF8BD0000814100080000FFFFBE
:104D000070B516460D4604461EE02046FFF74AFBE6
:104D100008B1012070BD681C16D0FDF72FFD801B67
:104D2000A84200D885B920684069C04340070BD528
:104D3000002044F8300F20216173A073216941F0F5
:104D4000200121612073E4E720684069C0434007E7
:104D5000DBD4002070BD00002DE9F04798461746CF
:104D60000D460446C1F30746DDF820902AE000BF57
:104D7000B8F1FF3F26D0FDF701FDA0EB0901414549
:104D800002D8B8F1000F1DD12068012E16D080691D
:104D900025EA00000004000C12D00020B84211D116
:104DA000002044F8300F20216173A073216941F085
:104DB0002001216120730120BDE8F0874069E7E709
:104DC0000120EBE72068012E0AD0806925EA000067
:104DD0000004000C06D00020B842C9D00020EBE748
:104DE0004069F3E70120F7E72DE9F04798461646BA
:104DF0000D4604464FF000094FF0200AC1F3074763
:104E000023E020684069C043400515D4206801684C
:104E100041F40071016021686FF480604861C4F85A
:104E2000309084F83DA084F83E90216C41F004015C
:104E3000216484F83C9021E0701C06D0FDF79EFCB4
:104E4000A0EB0800B04203D816B1012F1FD021E01B
:104E50002068012F15D0806925EA00000004000CAD
:104E600018D000BF44F8309F84F80DA084F80E904D
:104E7000216941F02001216184F80C900120BDE8F6
:104E8000F087406925EA00000004000CEAD12068A0
:104E9000406901E02068806925EA00000004000CF8
:104EA000AFD1ECE72DE9F041002590460E460446CF
:104EB000202728E04069C043C0060CD454F8301BBA
:104EC0006FF01000486144F810596777A577206AA1
:104ED0002062257714E0FDF751FCA0EB0800B042FA
:104EE00000D886B920684069C04340060BD544F815
:104EF000305F6773A573206940F02000206125733F
:104F00000120BDE8F08120684169C9434906D1D438
:104F10000020F6E770B516460D4604461EE0204612
:104F2000FFF740FA08B1012070BD681C16D0FDF7EC
:104F300025FC801BA84200D885B920684069C04381
:104F400000060BD5002044F8300F20216173A073B8
:104F5000216941F0200121612073E4E72068406964
:104F6000C0430006DBD4002070BD000010B5002057
:104F70002DED028B82B00090684600F03FF89DF85E
:104F800000409FED138BE0090ED19DF80110E00069
:104F900000EB51102BF00FFD53EC182B2BF022FDE2
:104FA00041EC100BE0090ED0E0009DF80110A0F5D7
:104FB000806000EB51102BF0FEFC53EC182B2BF013
:104FC00011FD41EC100B02B0BDEC028B10BD0000D6
:104FD000000000000000C03F1FB500208DF80C004D
:104FE000012103A864228DE807000B460A469021A0
:104FF0000148FDF70DFF1FBD640A00200EB5022217
:10500000CDE900026421029101230022902102488F
:10501000FDF7FCFD0EBD0000640A00207FB50024F2
:1050200015480094019402941249039401604FF4CE
:105030000031C0E901140461047680F820400F4972
:10504000C0E90A140125C561C46080F8305045618B
:10505000FCF7C5FF08B1FCF708FFCDE9004569463C
:1050600005480295FCF704FF002801D0FCF7FDFE7F
:105070007FBD000000200140BC0900200100000F9E
:105080000D4808B5016841F4800101600068002204
:1050900000F48000009005213820FEF731F8382018
:1050A000FEF720F8002205213A20FEF729F8BDE896
:1050B00008403A20FEF716B83038024010B5B4B0B8
:1050C00000203190329031A823F096F8274C1C2212
:1050D0002749E0616846FBF78DFB0021684623F015
:1050E000EDF8234920601C221C3107A8FBF782FB46
:1050F000002107A823F0E2F81D4960601C22383126
:105100000EA8FBF777FB00210EA823F0D7F818496B
:10511000A0601C22543115A8FBF76CFB002115A8D8
:1051200023F0CCF81249E0601C2270311CA8FBF778
:1051300061FB00211CA823F0C1F80D4920611C224D
:105140008C3123A8FBF756FB002123A823F0B6F8E7
:10515000074960611C22A8312AA8FBF74BFB0021FC
:105160002AA823F0ABF8A06134B010BD18000020CD
:10517000D00C03082DE9F04387B014216846FBF7F3
:105180008DFB33480024016841F00401016001688F
:1051900001F004010591016841F08001016001689E
:1051A00001F080010591016841F001010160016891
:1051B00001F001010591016841F002010160006800
:1051C000244F00F002000590002283213846FDF7AD
:1051D000D0FADFF88490002210214846FDF7C9FA82
:1051E000DFF8788044F24106002231464046FDF760
:1051F000C0FA832000900125CDE901546946384664
:105200000394FDF7B9F910200090CDE901546946E7
:1052100048460394FDF7B0F90096CDE9015469467C
:1052200040460394FDF7A8F94FF48760CDE90004E8
:10523000694640460294FDF79FF92802CDE9000433
:10524000694648460294FDF797F907B0BDE8F08338
:1052500030380240000802400000024000040240D2
:105260000D4810B50B4901600C49416000214FF415
:1052700080428160C0E9031241618161C1610162C4
:10528000FDF7FAFB002803D0BDE81040FCF7EDBDA8
:1052900010BD000000540040640A0020A0860100F8
:1052A000114810B50F4901604FF4827141604FF40D
:1052B0000041816000210222C0E903120122426103
:1052C0005202C0E906210162416281620A21C16283
:1052D000FEF778FA002803D0BDE81040FCF7C5BD02
:1052E00010BD000000300140B80A00200B4810B586
:1052F0000949016031214160002142F20F72C0E989
:10530000021201618161FEF771FC002803D0BDE843
:105310001040FCF7AABD10BD00440140B80B0020AE
:1053200010B58EB000240794089409940A940B9445
:105330001C2168460C94FBF7B1FA1E484FF08041DF
:10534000016040F6E861C0E901144821C0E9031496
:105350008461FEF74BFC08B1FCF787FD4FF48050E9
:10536000079007A91348FEF7D7FC08B1FCF77DFDAD
:105370001048FEF766FE08B1FCF777FD0B940BA909
:105380000C480C94FEF7F4FB08B1FCF76EFD6020AE
:10539000CDE9000402940422694606480494FEF70D
:1053A000EAFD08B1FCF761FD0248FEF7BDFD0EB055
:1053B00010BD0000700B0020FEE70000F0B5214A90
:1053C0002149002002F1780332F8104021F8104002
:1053D00033F8104001EB4005401CA5F878403C280C
:1053E000F2DB184B0020EE3303F176044FF6FF7525
:1053F00001EB400233F81060A2F8F06034F810605E
:10540000401C06EB4607C7EBC61605EA4606A2F89F
:1054100068613C28ECDB0D4B002003F1760400BFF3
:1054200001EB400233F81050A2F8E05134F810506C
:10543000401C05EB4506C6EBC515A2F858523C28A2
:10544000EEDBF0BD1001002048530020EE020020EA
:10545000FEE700000148FEF737B90000B80A002057
:1054600010B5806B0021C187C186FEF72BF910BDF6
:1054700010B5806B01684A6822F003024A60416DF2
:1054800041F010014165012180F85110FEF71AF931
:1054900010BD10B5806BFEF768FB10BD38B5054632
:1054A000846BFDF76BF9024628680068C00523D4B9
:1054B0002068416821F0200141602068416821F0A6
:1054C000020141606421204600F01AF818B1606DB5
:1054D00040F020006065A068002118B92068C2680B
:1054E00080680090E186012084F85100606D18B159
:1054F0002046FEF7E7F838BD2046FEF735FB38BDFD
:10550000F8B515460E460B460092044601220221CC
:1055100000F02CF8A0B9134813490068B0FBF1F073
:105520004FF47A71484300906068B0F5827F0DD1E6
:105530003346002280212046009500F017F870B114
:10554000606D40F0200060650320F8BD009830B128
:10555000401E009020688068C0430006F6D50020F9
:10556000F8BD00004400002000366E012DE9F8432C
:105570001E46914688460446089DFDF7FFF8401BED
:10558000351AFDF7FBF8074625480068C0F3CB3015
:10559000684338E0701C37D0FDF7F0F8C01BA84214
:1055A00003D215B1009860B32CE02068416821F067
:1055B000E00141606068B0F5827F0BD1A068B0F572
:1055C000004F02D0B0F5806F04D12068016821F04F
:1055D00040010160A06AB0F5005F09D12068016850
:1055E00021F4005101602068016841F4005101601C
:1055F000012084F85100002084F850000320BDE809
:10560000F8830025401E00902068816838EA010078
:1056100004D000214945BDD10020F0E70121F9E780
:10562000440000202DE9F047141A641CA6B25C1A4D
:10563000641CDDF82080A4B2F0283AD2B1F58C7F4A
:1056400037D200F013F9DFF870900022102148469D
:10565000FDF78FF8012280211848FDF78AF866438C
:105660004FF49667002517E0741BBC4201D200205E
:105670000BE03C4600202A1838F812100A0A42EAC9
:1056800001210F4A22F81010401CA042F3D32146FA
:105690000B4800F0C9F92544B542E5D30949C88E45
:1056A0000028FCD14846BDE8F04701221021FDF753
:1056B00060B8BDE8F087000000000240000802402A
:1056C00038490020B80A00202DE9F04107460021A2
:1056D00040F21713EF22084600F0C8F80E4E0022E1
:1056E00010213046FDF745F800244FF496652A4610
:1056F00039460A4822F07AFB2946084800F094F916
:10570000641CA4B2382CF2D33046BDE8F04101222B
:105710001021FDF72EB8000000000240384900209B
:105720001FB54FF416614548FBF796F80A2022F0A2
:1057300057FD434C002240212046FDF71AF80A206D
:1057400022F04EFD012240212046FDF712F81420E0
:1057500022F046FD3A2000F0DFF8552000F044F931
:10576000B22000F0D9F837A1D1E90001CDE900015C
:105770000521684600F0F0F8022000F0B5F8B720E7
:1057800000F0CAF8352000F02FF9BB2000F0C4F873
:10579000322000F029F9C02000F0BEF82C2000F0E3
:1057A00023F9C22000F0B8F8012000F01DF9C32051
:1057B00000F0B2F8152000F017F9C42000F0ACF8A2
:1057C000202000F011F9C62000F0A6F80F2000F00C
:1057D0000BF9D02000F0A0F8A42000F005F9A120DA
:1057E00000F002F9E02000F097F818A00FC88DE84B
:1057F0000F000E21684600F0AFF8E12000F08CF8B1
:1058000016A10FC98DE80F000E21684600F0A4F81C
:10581000212000F081F8112000F07EF8132000F024
:105820007BF8292000F078F8962022F0D9FC04B00B
:105830000020BDE81040FFF747BF000038490020B6
:10584000000402400C0C003333000000D0080E09A5
:10585000090531334817141531340000D0080E09FA
:105860000915313348171415313400002DE9F84378
:10587000DFF8708016460D4607461C4600221021B0
:105880004046FCF776FF2A201434143500F044F823
:10589000380A8DF800008DF80170300A8DF802008A
:1058A0008DF803600421684600F056F82B2000F0C4
:1058B00033F8280A8DF800008DF80150200A8DF881
:1058C00002008DF803400421684600F045F82C20C2
:1058D00000F022F84046BDE8F84301221021FCF711
:1058E00048BF00000000024010B50446362000F01A
:1058F00013F854B1012C0AD0022C0AD0032C0AD17F
:105900006020BDE8104000F06FB8C020F9E7A0208B
:10591000F7E70020F5E710BD31B50C4C002210214F
:105920002046FCF726FF002280210948FCF721FFD2
:105930004FF0FF33012269460648FDF7FBFF0122C5
:1059400010212046FCF715FF38BD00000000024082
:1059500000080240B80A00202DE9F05FDFF878B0B7
:105960000C460646002210215846FCF702FF012291
:1059700080211A48FCF7FDFE4FF480384FF6FF7A7D
:10598000174FDFF860901DE0444501D3504600E01A
:10599000204685B23888A0420BD82A4631461148A5
:1059A000FEF77CF8D9F8480090F835100129FBD1B2
:1059B00006E04FF0FF332A4631460A48FDF7BAFFAA
:1059C0002E44641B002CDFD15846BDE8F05F012255
:1059D0001021FCF7CEBE000000000240000802408B
:1059E000B4000020B80A002031B50C4C0022102170
:1059F0002046FCF7BEFE012280210948FCF7B9FED3
:105A00004FF0FF33012269460648FDF793FF01225C
:105A100010212046FCF7ADFE38BD0000000002401A
:105A200000080240B80A00204900FFF795BF0000B7
:105A30002DED028B01259FED118ADFED118A114CAE
:105A40001148FCF799FB32210F48FCF73FFB0E4849
:105A5000FCF7C0FA80050CD50B48FCF7BDFA00EE48
:105A6000100AB8EE400A20EE080A20EE280A84ED5B
:105A7000010A2570642022F0B3FBE1E73333534081
:105A80000000803900000020BC090020FCF76CF801
:105A90000D4C0E4D0E4E0F4FDFF83C804FF4FA794F
:105AA0002188286881420AD130883968884206D125
:105AB000D8F8000018B924210120FCF767F84846FF
:105AC00022F08EFBECE70000F80500201406002011
:105AD000F6050020180600201C06002070B5054CB5
